:020000021000EC
:1090000000000120099301005D9301005F930100BE
:10901000619301006393010065930100000000006B
:109020000000000000000000000000006793010045
:1090300069930100000000006B9301006D93010033
:1090400011DF01006F930100E1E301006F93010064
:109050006F9301000000000081DF01006F930100A9
:109060006F9301006F9301006F9301006F930100F4
:109070006F9301006F9301006F9301006F930100E4
:109080006F93010059AE01006F9301006F930100CF
:109090006F9301006F930100F17102006F93010063
:1090A0006F9301006F9301000000000000000000BA
:1090B0006F9301006F9301000000000000000000AA
:1090C00000000000000000000000000000000000A0
:1090D0000000000000000000000000000000000090
:1090E0000000000000000000000000000000000080
:1090F0000000000000000000000000000000000070
:10910000000000000000000000000000000000005F
:10911000000000000000000000000000000000004F
:10912000000000000000000000000000000000003F
:10913000000000000000000000000000000000002F
:10914000000000000000000000000000000000001F
:10915000000000000000000000000000000000000F
:1091600000000000000000000000000000000000FF
:1091700000000000000000000000000000000000EF
:1091800000000000000000000000000000000000DF
:1091900000000000000000000000000000000000CF
:1091A00000000000000000000000000000000000BF
:1091B00000000000000000000000000000000000AF
:1091C000000000000000000000000000000000009F
:1091D000000000000000000000000000000000008F
:1091E000000000000000000000000000000000007F
:1091F000000000000000000000000000000000006F
:109200000348044B834202D0034B03B11847704715
:10921000D41C0020D41C0020000000000548064B90
:109220001B1AD90F01EBA301491002D0034B03B164
:1092300018477047D41C0020D41C002000000000F8
:1092400010B5064C237843B9FFF7DAFF044B13B18E
:109250000448AFF300800123237010BDE81C0020F8
:1092600000000000309E020008B5054B1BB1054907
:109270000548AFF30080BDE80840FFF7CFBF00BF4F
:1092800000000000EC1C0020309E0200A3F5803A94
:10929000704700BF174B002B08BF134B9D46FFF7CD
:1092A000F5FF00218B460F461348144A121A0EF0A0
:1092B00035F90E4B002B00D098470D4B002B00D0FA
:1092C00098470020002104000D000D48002802D01E
:1092D0000C48AFF300800EF029F92000290005F0BA
:1092E000D7FE0EF0F9F800BF0000080000000000F3
:1092F0000000000000000120E81C0020802F00205A
:1093000000000000000000000E4800680E490968D7
:109310000A280AD1002908D10C4802686FF07003AE
:109320001A404FF040031A4302600949094A0A4BA8
:109330009B1A03DD043BC858D050FBDC04F0E4FB6F
:10934000FFF7A8FF3001001034010010E40E0040C8
:10935000B09F0200401A0020E81C0020FEE7FEE754
:10936000FEE7FEE7FEE7FEE7FEE7FEE7FEE7FEE7D5
:10937000704700BF00B583B0044B0093044A4023FC
:1093800000F03AF803B05DF804FB00BF95930100CC
:10939000041D002022B32DE9F843134B134E8846D9
:1093A0001446032743F001090025224608EB050176
:1093B000002006F0A7F8034601224FF47A40E41A91
:1093C0001D4443B933784BB1C847013F4FF0010307
:1093D00007D03370E9E73270002CE6D1BDE8F8839E
:1093E00070473770BDE8F883C0780200441D002044
:1093F000704700BF06F05AB9F0B595B00846002492
:109400000E4617461D4604F021FA1A9A0D9223467D
:10941000082205A93046CDE9095408978DF82C405B
:109420000C9404F077FADDE906219DF814308DF8EC
:109430001140CDE9021203F00302012A28D0022ACA
:1094400004D0304604F006FA15B0F0BDBDF8165051
:10945000C3F3C203C5F389158DF810300827082D12
:109460002C4628BF08243B4622460EA9304604F06D
:1094700051FA2D1B08AB02AA21460EA8274400F082
:109480000BFF002DEBD1304604F0E4F915B0F0BD30
:10949000BDF814100598C1F38312C3F3C203C0F3DF
:1094A0009525C1F383148DF810300EA93046920033
:1094B000082304F02FFA08AB0093224602AB0EA952
:1094C000284600F073FE304604F0C4F915B0F0BD34
:1094D00008B5FFF78FFF0448042100F0E5FD034BBA
:1094E00001225A7108BD00BF989F0200401A002057
:1094F000064B074810B500221A7004F059F90446CB
:1095000010B9044804F05EFA204610BD481D002042
:10951000BC9E0200FC78020030B499B10D490E4D9A
:10952000491BC90813D00D4C002302E001339942B6
:109530000AD034F823208242F8D1184655F830007A
:1095400030BC7047044DF9E7002030BC7047084636
:10955000F6E700BF989F0200D09E0200E81C0020A2
:10956000094B013903EBC00303290BD8DFE801F0F5
:10957000040208060420704702207047587970479B
:109580001879704700207047D09E0200704700BFD6
:109590002DE9F0438B4CD4E901239A4285B05DD08C
:1095A0000023C4F81834BFF34F8FA568EAB2D31C68
:1095B00004EB830014F82330590718D56668037844
:1095C00003F00303012B42D0022B03D14388023561
:1095D00005EB9315EAB2D4F81814D31C04EB8300FE
:1095E00029B9AE4239D914F823305B07E7D404EB2C
:1095F00082026B1CDBB2D26804EB830302F003012E
:10960000DB680229CDE9012305F102062AD00129F0
:1096100000F08A80D4F810543DB12B6828469B682E
:109620009847EB681D68002DF7D16748674B68497C
:10963000C01AC008000440F0020000F05FFCD4E94A
:109640000130C01A18BF012005B0BDE8F0830388BF
:109650000235C3F383131D44BCE7A660002005B0A8
:10966000BDE8F083BDF806305A48C3F38918454673
:10967000502D28BF502565F38F1305F10801ADF873
:10968000063004F097F807460028C3D004F0DEF84F
:109690000023082201A9384604F008F9F343DBB29D
:1096A0000133B5EB830F4FEA83097FD9F1B2A5EB04
:1096B0000905033104EB81014A4638460823EDB21F
:1096C00004F0F4F8444909F108032A46384604F046
:1096D000EDF808F1030806EB9806D4F81834D4F82E
:1096E0001054002B5ED165B1EB685A792846394693
:1096F000002A65D02B681B689847EB681D68002D11
:10970000F2D1384604F0A6F800230DF103008DF8DD
:10971000033001F001FAD4F8183403B9A6609DF8BB
:10972000030001F01FFA8AE7BDF804202948C2F3BC
:109730008313062B28BF062363F38912023303F039
:109740000F018900ADF8042004F034F80746002822
:109750003FF460AF04F07AF80023082201A93846EC
:1097600004F0A4F8BDF8043013F4707FB5D06FF0A6
:1097700001094FF00808A9EB0509F1B2033143468E
:10978000042204EB8101384604F090F8BDF804305F
:109790000136C3F3831309EB0602934208F1040870
:1097A000EBD89AE7384604F055F848E7F1B20331B0
:1097B0002A4604EB81010823384604F077F888E74D
:1097C0001D6890E7481D0020F09E0200D09E020018
:1097D000E4780200BC9E0200541D00202DE9F04FE9
:1097E00089B0DFF8C8B10193064600230DF11300DC
:1097F0008DF813308946924601F08EF9DBF8083077
:10980000DBF8047003F58073DB1B052B00F2CB80C3
:10981000CDE902760BF21C450BF583680BF214447C
:1098200018E0BDF81620C2F389120332360C07EB9C
:109830009207204602F0CEFF08B1CBF808703146FF
:10984000284602F097FFDBE9012303F580739B1A9A
:10985000052B55D80121284602F08CFF404602F026
:10986000ADFF204602F0AAFFDBF80870F9B2CA1C6F
:109870000BEB820C1BF82220530702F0040020D4CB
:109880000BEB8101CA680592791CC9B202F0030290
:109890000BEB8101012ACE6807F1020729D0022AC9
:1098A000BFD00026C5E7BCF8027002EB9717F9B2EB
:1098B000CB1C0BEB830C1BF8230000F004000028EA
:1098C000DED09CF8003003F00303012B0AD0022BFA
:1098D00007F1020201F10303E5D00BEB830C002832
:1098E000EFD1CDE7BCF800300237C3F383131F4438
:1098F000DDE7BDF81420C2F38312360C174498E755
:10990000DDE90276D3B2033340F205114BF82310A0
:1099100006329DF81300CBF8042001F023F9BB1C9C
:10992000DBB20BEB8303019AC3F80CA0FB1CDBB288
:109930000BEB83030021DA603B1DDBB20BEB8303EF
:10994000129ADA607B1DDBB20BEB8303139A184883
:10995000DA6002F0D5FE80F31001F30003F0380363
:10996000781C43F48073C0B2FAB2090443F00103D7
:109970000BEB8000033243EA892341EA1641C160C0
:109980004BF822309BF8003023B9FFF7FFFD09B0F8
:10999000BDE8F08FFFF7FCFD0028F6D0FFF7F8FDDB
:1099A0000028F7D1F1E73A46ACE700BF481D002098
:1099B000642100202DE9F04F89B0DFF8B4B10193A4
:1099C000064600230DF113008DF8133089469246A8
:1099D00001F0A2F8DBF80830DBF8047003F58073BF
:1099E000DB1B042B00F2C180CDE902760BF21C4593
:1099F0000BF583680BF2144418E0BDF81630C3F37E
:109A000089130333360C07EB9307204602F0E2FE7E
:109A1000314608B1CBF80870284602F0ABFEDBE90E
:109A2000012303F580739B1A042B54D80121284687
:109A300002F0A0FE404602F0C1FE204602F0BEFE4B
:109A4000DBF80830DAB2D11C0BEB810C1BF82110CB
:109A500001F0040049071FD40BEB82019F1CC8686A
:109A600005900133DBB20BEB830300F00300012808
:109A7000DE6829D00228C0D00026C6E7BCF8023034
:109A800006EB9313DAB2D11C0BEB810C1BF821000F
:109A900000F004000028DFD09CF8001001F0030162
:109AA00001290AD0022903F1020602F10301E5D0DF
:109AB0000BEB810C0028EFD1CEE7BCF8002002337D
:109AC000C2F383121344DDE7BDF81430C3F38313EC
:109AD000360C1F4499E7DDE90276D3B20333C52182
:109AE0004BF8231005329DF81300CBF8042001F049
:109AF00039F8BB1CDBB20BEB8303019AC3F80CA053
:109B0000FB1CDBB20BEB83030021DA603B1DDBB2F5
:109B10000BEB8303129A1748DA6002F0F1FD80F331
:109B20001001F200781C02F03802C0B2FBB203331D
:109B3000090442F0C1020BEB800041EA164142EAFF
:109B40008922C1604BF823209BF8003023B9FFF72E
:109B50001DFD09B0BDE8F08FFFF71AFD0028F6D013
:109B6000FFF716FD0028F7D1F1E73A46B5E700BF49
:109B7000481D0020642100202DE9F04FDFF8B8B126
:109B800089B0002406460DF11300019389469246E0
:109B90008DF8134000F0C0FFDBF80830DBF80470EC
:109BA00003F58073DB1B032B00F2C480CDE9027642
:109BB0000BF21C450BF583680BF2144419E0BDF859
:109BC0001620C2F389120332360C07EB92072046A7
:109BD00002F000FE3146002839D02846CBF8087044
:109BE00002F0C8FDDBE9012303F580739B1A032B08
:109BF0005CD80121284602F0BDFD404602F0DEFDA2
:109C0000204602F0DBFDDBF80870FAB2D11C0BEB4A
:109C1000810C1BF821104B0701F0040027D40BEB3B
:109C200082017A1CC9680591D2B20BEB820201F065
:109C300003000128D66807F1020730D00228BED001
:109C4000204602F0C7FD002631460028C5D128462F
:109C5000C6E7BCF8027001EB9717FAB2D31C0BEB06
:109C6000830C1BF8230000F004000028D7D09CF8D8
:109C7000003003F00303012B0AD0022B07F102018D
:109C800002F10303E5D00BEB830C0028EFD1C6E70C
:109C9000BCF800300237C3F383131F44DDE7BDF87F
:109CA0001420C2F38312360C174490E7DDE90276E4
:109CB000D3B2033385214BF8231004329DF81300EF
:109CC000CBF8042000F04EFFBB1CDBB20BEB830390
:109CD000019AC3F80CA0FB1CDBB20BEB8303002141
:109CE0001648DA6002F00CFD80F31001F300781CD6
:109CF00003F03803C0B2FAB2090443F081030BEB5E
:109D00008000033243EA892341EA1641C1604BF8DF
:109D100022309BF8003023B9FFF738FC09B0BDE8CA
:109D2000F08FFFF735FC0028F6D0FFF731FC002854
:109D3000F7D1F1E73A46BBE7481D00206421002037
:109D40002DE9F04FDFF8ACB187B0002306460DF1E6
:109D50000B008DF80B30CDE9001200F0DDFEDBE9E1
:109D6000018303F58073A3EB0803022B00F28180CB
:109D70000BF21C450BF583670BF214441AE0BDF897
:109D80000E20C2F3891203324FEA114A09EB9209FD
:109D9000204602F01FFD514600283AD02846CBF855
:109DA000089002F0E7FCDBE9012303F580739B1ABE
:109DB000022B5FD80121284602F0DCFC384602F075
:109DC000FDFC204602F0FAFCDBF80830DAB2D11CC8
:109DD0000BEB810C1BF8211001F00400490728D47B
:109DE0000BEB82015A1CC9680391D2B201F0030047
:109DF0000BEB82020128D16803F1020931D002285D
:109E0000BDD0204602F0E6FC4FF0000A5146002883
:109E1000C4D12846C5E7BCF802300EEB9313DAB282
:109E2000D11C0BEB810C1BF8211001F00400002861
:109E3000D6D09CF8001001F0030101290AD00229B4
:109E400003F1020E02F10301E5D00BEB810C0028B7
:109E5000EFD1C5E7BCF800200233C2F383121344EC
:109E6000DDE7BDF80C20C2F383124FEA114A91449A
:109E70008EE74246D3B2033345214BF82310033219
:109E80009DF80B00CBF8042000F06CFE08F10203F3
:109E9000DBB20BEB8303019A1748DA60002102F072
:109EA0002FFC80F31001F300009A03F0380343F015
:109EB000410308F1010043EA8223C0B25FFA88F24D
:109EC00009040BEB8000033241EA1641C1604BF8F4
:109ED00022309BF8003023B9FFF758FB07B0BDE8EC
:109EE000F08FFFF755FB0028F6D0FFF751FB002855
:109EF000F7D1F1E7481D0020642100202DE9F04F43
:109F0000DFF89CA187B0002306460DF10B008DF809
:109F10000B30019100F000FEDAE9018303F5807354
:109F2000A3EB0803012B00F281800AF21C450AF51D
:109F300083670AF214441AE0BDF80E30C3F38913A4
:109F400003334FEA11490BEB930B204602F042FC1E
:109F5000494600283AD02846CAF808B002F00AFC60
:109F6000DAE9012303F580739B1A012B5FD80121E5
:109F7000284602F0FFFB384602F020FC204602F0A3
:109F80001DFCDAF80830DAB2D11C0AEB810C1AF8A1
:109F9000211001F00400490728D40AEB82015A1C61
:109FA000C9680391D2B201F003000AEB82020128D2
:109FB000D16803F1020B31D00228BDD0204602F057
:109FC00009FC4FF0000949460028C4D12846C5E7DE
:109FD000BCF802300EEB9313DAB2D11C0AEB810C01
:109FE0001AF8211001F004000028D6D09CF80010C7
:109FF00001F0030101290AD0022903F1020E02F146
:10A000000301E5D00AEB810C0028EFD1C5E7BCF8CD
:10A0100000200233C2F383121344DDE7BDF80C3095
:10A02000C3F383134FEA11499B448EE74246D3B2F0
:10A03000033305214AF8231002329DF80B00CAF8B9
:10A04000042000F08FFD0021164802F059FB80F338
:10A050001001F300019A03F0380343F0010308F103
:10A06000010043EA8223C0B25FFA88F209040AEBD6
:10A070008000033241EA1641C1604AF822309AF862
:10A08000003023B9FFF782FA07B0BDE8F08FFFF781
:10A090007FFA0028F6D0FFF77BFA0028F7D1F1E726
:10A0A000481D00206421002030B4154DD5F810144F
:10A0B000044679B100200B4601E01B685BB1DB6808
:10A0C0001A798242F9D101300A28F4D14FF0FF30D9
:10A0D00030BC70470846E3681871D5F810344BB1AE
:10A0E000DA68E36812681A60D5F81034DB681C601F
:10A0F00030BC7047C5F81044E268136030BC70474C
:10A10000481D002038B5084BD3F8104401251D70B8
:10A110004CB1E3685D71236820465B689847E3684B
:10A120001C68002CF5D138BD481D002070B5C388CF
:10A1300082B004460D461BBB237A052B1ED0627AE3
:10A140007AB9134AA08852F823600021FFF7E4F996
:10A15000104903463246284602B0BDE8704002F07E
:10A16000B3BB1946A088FFF7FBF90B4B0B4953F81B
:10A170002020284602F0A8FB237AE2E702B070BD57
:10A1800007490091074A0849284602F09DFBD3E79A
:10A19000D079020030790200AC790200749002009C
:10A1A0002879020008790200107902002DE9F043B5
:10A1B00085B01D460C9C002394F80C9023738046B8
:10A1C0000E46174621462846FFF7B0FF062F09D84E
:10A1D000DFE807F0042E343B444F1F004146204681
:10A1E00002F072FB2B7A052B05D06B7A5BB92749FD
:10A1F000204602F069FB204602F05AFB84F80C90DE
:10A2000005B0BDE8F083224A2249204602F05CFBFB
:10A21000EDE77369039333690293F3680193B368BD
:10A220000093D6E900234146204602F04DFBD9E7D2
:10A2300032684146204602F047FBD3E7D6E90023C7
:10A240004146204602F040FBCCE7B3680093D6E9D4
:10A2500000234146204602F037FBC3E7F368019331
:10A26000B3680093D6E900234146204602F02CFB58
:10A27000B8E733690293F3680193B3680093D6E9B2
:10A2800000234146204602F01FFBABE73C79020069
:10A290002879020074900200082900D970472DE93E
:10A2A000F04F1D4683B000241B7B2C730E460746DF
:10A2B0002946104690460193DFF8BCB0DFF8BCA0F9
:10A2C000FFF734FF05E03A5D013402F0FDFA082C97
:10A2D00009D0A64251462846F5D85946013402F025
:10A2E000F3FA082CF5D12649DFF898B0264CDFF8B0
:10A2F0009CA0284602F0E8FA4FF0000917E017F892
:10A300000910481C7E294FF02E02C0B206D81AF858
:10A31000002012F0970F14BF0A462E22214628462D
:10A3200009F1010902F0D0FAB9F1080F0AD04E453F
:10A33000E5D85946284609F1010902F0C5FAB9F1F4
:10A34000080FF4D198F80830052B02D098F809309E
:10A350005BB90F49284602F0B7FA284602F0A8FA7E
:10A36000019B2B7303B0BDE8F08F0A4A0A492846C7
:10A3700002F0AAFAEDE700BF487902004079020036
:10A380004C79020038790200507902002C9D0200BD
:10A390003C790200287902007490020000B585B073
:10A3A0000346002101AA44F20100CDE90111039303
:10A3B00000F004F805B05DF804FB00BF10B572B6FC
:10A3C000FFF7A0FEFFF7E4F80028FBD1104B114C7B
:10A3D0001149E41AE408240444F00100FFF78EFD5B
:10A3E0000E4BD3F8F030DB0700D500BE0C4944F02B
:10A3F0000200FFF783FDBFF34F8F0849094BCA687E
:10A4000002F4E0621343CB60BFF34F8F00BFFDE760
:10A41000D09E0200F09E0200F079020000ED00E004
:10A42000FC7902000400FA05844612F0030013D1FF
:10A430004B1C10B4DB00094C9BB213442260084A49
:10A440001360084A084B10701870084A084BA2F8AD
:10A4500000C0198010BC704707207047DC22002024
:10A46000D8220020D4220020D5220020D222002091
:10A47000D02200202DE9F0432C4E33888B4283B04C
:10A4800003D2092003B0BDE8F083002507460DF193
:10A4900007000C4690468DF8075000F03DFB244B1A
:10A4A00024491A78244B0888197881425FFA81FC84
:10A4B00038BF0CF1010CD2B238BF5FFA8CF5AA425A
:10A4C0002BD01D781978DFF87490CAB2884286BF05
:10A4D0000132D2B200229DF807001A70EDB200F0EE
:10A4E00041FBD9F8003043F8358003EBC5034FEA50
:10A4F000C50807B11CB900229A800020C2E7104BA2
:10A5000030881B68394605FB003022460DF032F8D2
:10A51000D9F8003043449C80EFE79DF8070000F035
:10A5200021FB042003B0BDE8F08300BFD22200204D
:10A53000D5220020D0220020D4220020DC220020BE
:10A54000D82200202DE9F047194C1A4D22782B789B
:10A550009A4222D0DFF860A0DFF86090184F194EC1
:10A560004FF000082378DAF80010388851F83320CB
:10A5700001EBC30CBCF80410D9F800C003FB00C009
:10A58000904722783188D3B201339142DBB206D9A9
:10A59000237023782A789A42E4D1BDE8F08784F8C2
:10A5A000008022782B789A42DCD1BDE8F08700BF8A
:10A5B000D5220020D4220020DC220020D822002036
:10A5C000D2220020D022002030B48D688468C26876
:10A5D000CB68A54293412CBF0120002030BC7047BE
:10A5E000D0E90030184700BF10B5044684B00023FE
:10A5F00002A88DF8083000F08FFA23692BB94FF0CC
:10A60000FF324FF0FF33C4E902239DF8080000F049
:10A61000A9FAD4E90513194ACDE9021302A80821C1
:10A62000FFF728FF38BB00230DF107008DF8073036
:10A6300000F072FA2369BBB1D4E90212B2F1FF3F14
:10A6400008BFB1F1FF3F0FD05B1842F10002C4E92F
:10A6500002329DF8070000F085FA0948214603F010
:10A66000D5F9012004B010BD9DF8070000F07AFA7A
:10A67000002004B010BDFFF791FED4E7E1A5010072
:10A680000C7A02002DE9F04F85B0019000F0A2FB9A
:10A6900040B1A64AD2E9003113F1807341F10001C3
:10A6A000C2E900310198A24D002100F0AFFB60B378
:10A6B0002B6853B39F4B2C681B7823B31CB39E4865
:10A6C00000F0B4FB994A9D4913685268C318D1E958
:10A6D000000142F10002834272EB010103D213F147
:10A6E000807342F10002D4E9020183428A4180F082
:10A6F0001981B1F1FF3F08BFB0F1FF3F03D090488F
:10A70000214603F083F900232B600198012100F01A
:10A710007DFB002840F0EF808A4803A901F03EFF4E
:10A7200000283BD0874C4FF0FF364FF0FF3709E051
:10A730003BB303A9204601F061FF03A9204601F0C5
:10A740002DFF58B30378012B12D0022BF0D1DFF884
:10A75000F081404603F06EF930B1C0E9026740462F
:10A7600003F068F90028F8D1724B01221A70E0E773
:10A770002B684168994200F0B780714803F064F992
:10A78000D7E74168D1E90223B3F1FF3F08BFB2F137
:10A79000FF3FCED06A4803F039F9CAE7684FDFF8C7
:10A7A0009881DFF88891384603F04AF9002853D0A1
:10A7B000D0E90223B3F1FF3F08BFB2F1FF3F00F041
:10A7C0008B80296891B12968D1E9020182428B41CD
:10A7D00079D22B68D3E90223B3F1FF3F08BFB2F16E
:10A7E000FF3F03D02968384603F010F9384603F0DC
:10A7F00021F904464046D4E902BA00F017FBD9E932
:10A8000000134E4E4018D6E9002143F10003904258
:10A8100073EB010103D210F1807043F10003BBEB35
:10A8200000006AEB0302012872F100021CDBB0F5A4
:10A83000350F4BD25A464FF496030021404600F0A4
:10A840003FFA00283CD00D2812D0002338462B6058
:10A8500003F0F6F80028ABD12B68A3BB019805B034
:10A86000BDE8F04F00F0FEB90021404600F0C2FA0A
:10A87000304B1B78002BE8D0404600F0D7FAD9F8CF
:10A880000030D6E90012C018D9F8043043F10003B3
:10A89000884273EB020203D210F1807043F100038F
:10A8A000D4E902128842934121D2B2F1FF3F08BF9E
:10A8B000B1F1FF3FC9D02248214603F0A7F8C4E711
:10A8C0002B686BB12C6005B0BDE8F08F404600F0FE
:10A8D000ADFA1D4A0244AEE7384603F0ABF862E732
:10A8E000019800F0BBF9EDE700232B6021E720463B
:10A8F000FFF77AFEA9E71048104E00F097FA0B4BCD
:10A900001A685B688018D6E9001243F10003884298
:10A9100073EB020203D210F1807043F10003C6E929
:10A920000003F9E62046FFF75FFEECE6582300201F
:10A930006423002060230020481A002050230020B8
:10A940000C7A0200E4220020FFFFB40010B5134B84
:10A9500013491C68134882B008235822019401F05F
:10A96000A5FD044610B1204602B010BD0E4A0F48A6
:10A9700001A900F00FF904460028F4D10B48012189
:10A9800000F01EFA01231946094A084800F06EF942
:10A99000084B012220461A7002B010BD247A020032
:10A9A000F4220020E422002085A60100481A00209D
:10A9B000FFFF7F00602300208AB130B4A1F10101C4
:10A9C0000368B1FA81F14FF0FF344FF0FF354909C8
:10A9D000C3E90245C3E90412002030BC70470720D8
:10A9E000704700BFF0B583B00446002601A81746A3
:10A9F0000D468DF8046000F08FF8D4E90223B3F11E
:10AA0000FF3F08BFB2F1FF3F06D09DF8040000F001
:10AA1000A9F8304603B0F0BD1C4800F007FA1C4B03
:10AA20001C4A19685B684018D2E9001243F1000320
:10AA3000884273EB020220D3281843F10003A06080
:10AA4000E3609DF8040000F08DF82369A76103B16D
:10AA50002561114801A901F061FD034650B10022B2
:10AA60000D481A705C6001A901F088FD50B9002002
:10AA700003B0F0BD042003B0F0BD10F1807043F1CD
:10AA80000003D9E7014800F0D5F9F0E7481A0020A3
:10AA90005823002050230020E422002030B583B04A
:10AAA0000446002501A88DF8045000F035F8D4E9DB
:10AAB0000223B3F1FF3F08BFB2F1FF3F1DD04FF0BB
:10AAC000FF334FF0FF32C4E902239DF8040000F089
:10AAD00049F80F4801A901F021FD034650B10122B8
:10AAE0000B481A705C6001A901F048FD60B90020B4
:10AAF00003B030BD042003B030BD9DF8040000F069
:10AB000031F8284603B030BD024800F093F9EEE773
:10AB1000E4220020481A002070B4EFF3108472B6CB
:10AB20000D4A9368ABB9012191600C490C4ED1F8E4
:10AB3000805035401560C1F88060D1F88450556070
:10AB40004FF0FF32C1F88420037004B962B670BCC4
:10AB500070470123F8E700BF6823002000E100E010
:10AB6000FC06FFBD094B9A6872B168B910B4EFF3E7
:10AB7000108172B6064A1C6814605C685460986064
:10AB800001B962B610BC7047704700BF682300204F
:10AB900000E100E010B5294C437944F82320284C0B
:10ABA00004EBC3031B79002B3BD103680A88C3F86D
:10ABB000082590F904308A78002B2ADB03F16043E2
:10ABC000520103F56143D2B283F8002390F90430B7
:10ABD000002B09DB1B494FEA531C012203F01F0322
:10ABE00002FA03F341F82C304279174B44F8320053
:10ABF0001648181A04EBC201C0084FF0010C0004FB
:10AC000081F804C040F003001149FFF777F90020F4
:10AC100010BD104903F00F0352011944D2B20A7655
:10AC2000D4E70A4B08480C49C01AC008000440F099
:10AC30000200FFF763F9082010BD00BF7C2300204D
:10AC40007423002000E100E0009F0200D09E02007B
:10AC50004C7A0200FCEC00E0287A02000368012232
:10AC60001A607047036801225A60704770B4056823
:10AC70004FF480348C40C5F80843056801F1500C4E
:10AC8000C5F848434FEA8C0C05681FFA8CFC002677
:10AC900045F80C6083B055F80C500195019D05688E
:10ACA00001F5A87122F07F4245F821200268C2F820
:10ACB000444313B10368C3F8044303B070BC704746
:10ACC0002DE9F0474FF48037994603688F40C3F869
:10ACD00048730368C3F80873036801F150060D4612
:10ACE00003EB810122F07F48D3F80435D1F84025E9
:10ACF000C1F84035B600B6B2D21A03684FF0000A68
:10AD000043F806A082B09B59009322F07F42012AAB
:10AD1000009B044645D02368D3F80465C3F8447308
:10AD2000A8EB060323F07F43012B05F5A87527D078
:10AD3000226842F825802168D1F80405A8EB0002BA
:10AD4000C9F1FF13013A03F57F4322F07F4293429A
:10AD500012D342B1C1F8447323680020C3F80473CE
:10AD600002B0BDE8F08708F1010341F82530216801
:10AD7000D1F804359842EDD00D2002B0BDE8F0873F
:10AD8000236808F1010243F825200C4B4FF4806042
:10AD900043F0010398472168D1F804359E42D9D089
:10ADA000EAE7064B4FF4806043F0010398472368BD
:10ADB00043F806A09B590193019BACE7607A02001F
:10ADC00002680223C2F8443311B10268C2F80433A6
:10ADD000704700BF0368D3F8040100B97047002230
:10ADE00082B0C3F80421D3F804310193019B012000
:10ADF00002B0704702684FF4803303FA01F1C2F8E1
:10AE000048130368C3F80813704700BF5031890026
:10AE1000036889B2585800B9704700225A5082B06E
:10AE20005B580193019B012002B070470368D3F87F
:10AE30000405704790F90430002B09DB5A090548D6
:10AE400003F01F030121403201FA03F340F82230DE
:10AE5000704700BF00E100E0024A034B10681B6826
:10AE6000184700BF742300207C230020022300F534
:10AE7000805C30B508300B80002A45D00368013370
:10AE800023D0B0F802E00EF1030300EB83039C45EE
:10AE900045D384884FF6FF739C423BD00388002B38
:10AEA00038D083685C1C35D0204C25689D4202D286
:10AEB0002360B0F802E00B88033373440B804388AF
:10AEC000033300EB83008445D8D830BD4388DA1CB7
:10AED00000EB8202944524D38288144DA24209D00B
:10AEE00002883AB18268541C04D02C6894423CBF5A
:10AEF0002A6043880A88033213440B804388033353
:10AF000000EB83008445E0D9036801334FF6FF74FA
:10AF1000DCD130BD01231370B0F802E0CBE7012390
:10AF200013704FF480630B8030BD00BF7C24002081
:10AF3000F0B543681BB12F4AD468A34237D200262C
:10AF40002D4F0E804FF6FF757B6803F5805C08334C
:10AF50009C450CD8731C022B0B8007F114074FF093
:10AF60000106F1D10020F0BD9445F3D913461A68CB
:10AF70000132EFD05A88033203EB82029445E9D3C1
:10AF8000B3F804E0AE45EFD01C88002CECD09C68F0
:10AF9000B4F1FF3FE8D0D0F800E0744501D013468B
:10AFA000D6E7164A4360138903810120F0BD126978
:10AFB0009342C4D813F00302C1D1104C05892489EF
:10AFC000A542BCD105689C68A542B8D10A4C60680E
:10AFD000834203D900F58050834207D3A26993428C
:10AFE000C0D902F580529342BCD201220A800120CE
:10AFF000F0BD00BFD41C0020B8230020A0230020F7
:10B000002DE9F04FA84EDFF8A4A2DFF8A492DFF8F4
:10B01000A4828BB0044635682346002D00F0BA8028
:10B0200029784A1E052A00F24B82DFE802F03D2112
:10B030002103034A002B40F0D0802A79012A00F036
:10B040006F82022A00F06682002A00F04982CDE970
:10B0500007330593099305AF48F20E6306932B78E7
:10B06000023B042B49D8DFE803F075816962450093
:10B07000AC8A002B40F097808F4FAA7D04EB8403AD
:10B0800007EB83034FEA840B18895B6803EB8003AB
:10B09000062A00F25684DFE812F0410190017B019C
:10B0A000A4013401B5015501002B40F010822B7929
:10B0B000032B00F2B880DFE813F0E7000F01D9009E
:10B0C0009900002B40F0898098F80C20002A00F0AD
:10B0D000B58088F80C3098F80030013B062B00F260
:10B0E000EF81DFE813F0FC02A302CD01BD01ED0109
:10B0F000EB02AC0105238DF81430704C04F11005FF
:10B1000054F8043B384603B19847AC42F8D1514655
:10B1100000244846346001F071FA6948012101F0C9
:10B1200035FB00287FF477AF0BB0BDE8F08F042328
:10B130008DF81430EB88ADF82030DEE703238DF86E
:10B140001430EB88ADF820302B89ADF82230EB6855
:10B150000793D2E701238DF814302B89ADF8203006
:10B16000AB88ADF82230EB680793C6E702238DF871
:10B1700014302B89ADF82030AB88ADF82230EB6865
:10B180000793AB7DA3F10603B3FA83F35B098DF854
:10B190002430B2E751464846029401F0FFF9029B81
:10B1A000306005463CE7AB7D434F022B08D904EBEA
:10B1B000840207EB8202EB88118903330B4413816D
:10B1C0004FEA840B0BEB0402EB8807EB8202C3F51A
:10B1D0007F435189FD330B445381002305AF059311
:10B1E000C7E902333B614FF4064337E7314B324F37
:10B1F0005B88344C03EB830307EB83020020287148
:10B20000216807F82300009053682360A388138106
:10B2100002235160A3802C4A2C48082301F050FFE0
:10B22000002881D035682A4A05AF00230593536072
:10B23000C7E902333B6148F20D630FE798F800302D
:10B24000072B3FF64AAF01A252F823F05FB7010087
:10B25000DBB00100DBB0010095B701002FB70100A2
:10B2600039B4010039B40100F1B70100154A17489B
:10B270001168002302242B719480012201F0E2FF67
:10B2800000283FF451AFCDE70E4B124A19680F4822
:10B2900001232B7100230093082301F011FF0028E4
:10B2A0003FF442AFBEE700BF9C230020982300205C
:10B2B000E0230020A0230020B823002080240020C9
:10B2C00094240020B02300206C7A0200D41C0020BB
:10B2D00098240020747A0200A74F3B78022B00F0DC
:10B2E000CD823B7D022B00F0DC82002305AFA34A18
:10B2F0000593C7E90233012111703B6153600023BC
:10B30000ACE69F48AA6902609E490293002242600F
:10B31000FFF70EFE029B002800F09D8219460223D3
:10B32000AB750023009304239748EA1801F0C8FE88
:10B3300000283FF4F9AEAB7D3168022B48F20D6373
:10B340000DD902E0294641F61D530BEB040007EB33
:10B350008000EA88B0F808C0033262440281A34446
:10B36000EA8807EB8B0B0D46C2F57F42BBF80A104B
:10B37000FD320A44ABF80A2005AF002241F61D5108
:10B3800005928B4208BF1346C7E902223A6165E67F
:10B3900003F108012B697C48002B0CBF0123032318
:10B3A000AB750023009305F10C02042301F088FE25
:10B3B0000028C0D10BB0BDE8F08F032903F10401D0
:10B3C00014BF06230523AB75002300936E480423A6
:10B3D00005F1080201F074FE0028ACD10BB0BDE805
:10B3E000F08F012003F10C01EB88A87500202A6979
:10B3F00000909B00644801F063FE00289BD10BB0D5
:10B40000BDE8F08F5E4B614A59685E4B5E481B8811
:10B4100002930623AB7500230093042301F050FE32
:10B42000002888D1029C04EB840407EB84030122EA
:10B430001A740BB0BDE8F08F072388F800300023A2
:10B440000093C8F80430524B524A19684E480823FA
:10B4500001F036FE0346002B3FF466AE35688BE7FD
:10B46000B8F80230444F03EB830307EB8302D36841
:10B47000C3B951684448012201F0E4FE0346EAE7FB
:10B48000D8F8042042485388848801680333002098
:10B490009BB29B00009001EB84013B4801F010FE41
:10B4A0000346D8E7052388F80030394B3648196839
:10B4B00002229A800023012201F0C4FE0346CAE75B
:10B4C00005AF00230593C7E902333B61C4E505AF2F
:10B4D0002A4A002305935360C7E902333B6182E6A1
:10B4E00002222A71CDE9063305AFEA6802930DF115
:10B4F000120138460592FFF71BFD029B002840F021
:10B500007D8148F2096300220592C7E90122C7E95B
:10B510000322A3E5CDE907330593099305AFEEE6D2
:10B52000164A1278002A00F084811B48B0F804B053
:10B53000BBF1010F11D8104F0BEB8B0207EB820E02
:10B540009EF8002052B30BF1010B1FFA8BF2012A77
:10B55000A0F804B00EF1140EF2D905AF08220E487F
:10B56000029300210BF0DAFF002205923568029B5E
:10B570003A61C7E9022271E5B8230020982400202F
:10B580008C23002088230020D41C0020687A02002D
:10B59000B0230020747A020080230020DEF80440EB
:10B5A000016804F58052002900F040814C88033482
:10B5B00001EB8401914236D2144602930A680132AB
:10B5C00030D04A88033201EB820294422AD38B881E
:10B5D00003934FF6FF7C634521D0B1F800C063466A
:10B5E000EBB1D1F808C0BCF1FF3F18D0DDF80CC0BA
:10B5F000029B01602246EC886445D7D1002300936A
:10B60000A94AAA48042301F05BFD002840F02081EC
:10B610000BEB8B0B07EB8B0701233B7484E5944208
:10B6200000F22281029B002202608CE7B8F802003F
:10B630009F4FD8F8044000EB800307EB8303596861
:10B64000830001F58055002C40F0BB8001F1080219
:10B65000AA4280F0BD80146801344FF6FF7C00F0F0
:10B66000B7805488033402EB8404AC4200F2B0800B
:10B67000B2F804E0E64500F0F980B2F800C0BCF191
:10B68000000F00F0F380D2F808C0BCF1FF3F00F0DB
:10B69000ED808848C8F804200021538800918488F0
:10B6A00001688248033301EB84019BB203249B00B1
:10B6B00088F8004001F004FD0346CCE6B8F802200B
:10B6C0007B4F9300134407EB83037B4A5968774809
:10B6D00000230093082301F0F3FC0346BBE698F82F
:10B6E0000A304BB1724FF868002388F80A3018B955
:10B6F0003B7C002B40F0238198F80B3053B16C4F0A
:10B70000002388F80B303B6A23B997F82430002BCC
:10B7100040F0D68005AF0023059388F80030C7E9D4
:10B720000233A8F80230C8F804303B61E7E5B8F806
:10B7300002205F4F5F4902EB820307EB8303086837
:10B740005C6858608888188102200C60888000211D
:10B750001974062388F8003002FA00F3B2E7544F58
:10B76000B8F808303A7D0133A8F80830B2FA82F20E
:10B770003B785209B3FA83F388F80B2000225B0967
:10B78000A8F8022088F80C20012288F80A3088F8EE
:10B790000020A6E7B8F80200454F464AD8F8044012
:10B7A00000EB800307EB83036588596893880333B4
:10B7B0002B449380022388F8003001F5805500FA6D
:10B7C00003F36288033204EB8202AA42FFF443AF20
:10B7D000034407EB8303DB68002B7FF463AE042292
:10B7E00088F800203148012201F02CFD034632E6A2
:10B7F000012388F8003098F80A3072E706992A4A3F
:10B800008888E8800888288100932848BDF812407D
:10B81000042301F055FC68BB254B04EB840403EBC7
:10B82000840301221A740BB0BDE8F08F04F1080103
:10B83000C0E61946214808220BF070FE48F2016369
:10B8400005AF0022059235683A61C7E9022205E496
:10B8500048F20D63F4E7CDE907000590099005AFC4
:10B8600048F20963FFF7FABB1146A7E6AC42AFD234
:10B870002246F0E6356848F20D6344E6002303EB08
:10B88000830307EB830209485168002207F823204D
:10B8900000920823084A01F013FC00283FF444AC4E
:10B8A000C0E40123EBE700BF687A0200D41C00204B
:10B8B000B8230020B02300206C7A020080230020EF
:10B8C00001200346A8F8023000EB800307EB830356
:10B8D000D8F804205968830001F5805462B3558874
:10B8E000033502EB8502A242BFF472AF1568013541
:10B8F0004FF6FF7C3FF46CAF5588033502EB8505AE
:10B90000AC42FFF465AFB2F804E0E6450AD0B2F805
:10B9100000C0BCF1000F05D0D2F808C0BCF1FF3F59
:10B920007FF4B7AEAC427FF653AF2A464FF6FF7CAA
:10B9300015680135E0D14BE701F10802D3E7034672
:10B94000C0E7294648F20E63FFE400BF4068FFF7F6
:10B9500057BB00BF094A116804290BD038B5084C01
:10B96000156803460121104644F8253000F002FF17
:10B97000002038BD48F20B60704700BF90240020C3
:10B98000802400202DE9F04F994D89B02A780023BA
:10B99000CDE90333CDE90533079352B1954C04F15A
:10B9A000100554F8043B03A803B19847AC42F8D102
:10B9B00005E0281D02F0FF0800F0F4FE20B100248D
:10B9C000204609B0BDE8F08FD8F8F83F581C40D0A9
:10B9D0004FF080521269DFF820928849C9F8103080
:10B9E0000022A3F540534846C9F80C3001F030FB63
:10B9F00004460028E4D11C2381498248DFF808A2CC
:10BA00008C2200F053FD0323264627469B46D9F897
:10BA10000C30F018F35800F0DD80534525D1436811
:10BA20007A4A93427BD00132934220D1B8F1000F81
:10BA300040F08D80764B7749186000220193FFF724
:10BA400015FA019B9B88022B14BF082304231C4377
:10BA500027E04FF010234FF080525B691269591CA8
:10BA600004BF02EB42021301B5E701330AD1021D04
:10BA700000F5805101E08A423CD01368013302F1A5
:10BA80000402F8D0644907EB870301EB83020BF152
:10BA9000FF3B50600322013701F823201FFA8BFB84
:10BAA000BFB206F58056B6F5405FB0D15B46012BBC
:10BAB00040F28A80E4B2062C5BD003D814F0FD0F6C
:10BAC00000F0828002A94F4800F028FD1C220546A4
:10BAD00000210BF023FD002D70D00123013C2B70C1
:10BAE0000A2C57D8DFE804F0545654566756675668
:10BAF000646D6400464B1A68002A73D04649474A71
:10BB000007EB870C01EB8C0357800222013701F809
:10BB10002C205860BFB21A8144F00104C1E73E4BAB
:10BB200007EB870C03EB8C024FEA8C01506001F1AC
:10BB3000100208314FF0000E1A441944013703F87F
:10BB40002CE044F00204FFF791F9BFB2A9E7DFF857
:10BB5000C8C02F4B07EB870E0CEB8E0202210CF8AE
:10BB60002E1011812D494F80196851600137BFB2E5
:10BB700061E7204C012200232A706B6004F110055C
:10BB800054F8043B03A803B19847AC42F8D116E738
:10BB900000232B7102A91B4800F0F0FC2048012172
:10BBA00000F0DCFD00287FF40AAFFFF729FA06E772
:10BBB00003232B71EEE701232B71EBE748F20764B7
:10BBC000FEE602232B71E5E700232B7048F20A649E
:10BBD0006B60F5E65A1C3FF44AAF0B4A93423FF4C0
:10BBE00046AF4FE7022218609A804FF0010893E7B2
:10BBF0009824002080240020D41C00207C7C02009B
:10BC0000F0230020E0230020DEC0ADDEFE011EF1A7
:10BC1000B0230020B4230020B8230020A02300205C
:10BC20009424002028B370B50D4682B0E9B10DF11F
:10BC300006010446FFF77CF918B948F2096002B022
:10BC400070BDBDF806300C48666803EB830300EB5B
:10BC50008300012100F08EFD2E60636801220C3309
:10BC600000206B60A27202B070BD48F2046002B0A6
:10BC700070BD48F204607047C423002010B310B5B3
:10BC800082B00DF106010446FFF752F9B0B1BDF8DC
:10BC900006300E4A03EB830302EB8303DA684AB1F2
:10BCA000A27A3AB1DA680021013A0846DA60A17254
:10BCB00002B010BD48F2056002B010BD48F2096044
:10BCC00002B010BD48F20460704700BFB8230020E6
:10BCD0002DE9F0474F4B1B7882B083B30C46002907
:10BCE00045D00A884FF6FF739A4222D04B8803B39F
:10BCF0004D6815F0030534D1B1F8089009F103033C
:10BD00009BB240F2FE32934234D8434A1178074640
:10BD100039B9508911890144194489B2B1F5806F4C
:10BD20002BD9117D89B148F20665284602B0BDE8DD
:10BD3000F08748F20365284602B0BDE8F08748F274
:10BD40000165284602B0BDE8F087D08B918B014495
:10BD5000194489B2B1F5806FE5D84FF00108C246A9
:10BD60000DE048F20265284602B0BDE8F08748F2CF
:10BD70000465DAE748F20865D7E7A846AA460AEB61
:10BD80008A0A02EB8A0A034401A92448AAF80A3065
:10BD900000F0C4FB1C22064600210BF0BFFB6EB373
:10BDA000A6F8148002234FF0000886F8168033703E
:10BDB0006368336101211A4800F0DCFCF0602388DD
:10BDC000338163881548B38001A9A6F80690A6F8C8
:10BDD0000A8000F0D3FB47B1C7F80480F268114B2A
:10BDE0003A601B8987F80A803B810F48012100F0E7
:10BDF000B5FC002899D1FFF703F996E7BAF80A30A5
:10BE0000C9F57F4909F1FD099944AAF80A9048F259
:10BE100007658AE798240020B8230020E02300204B
:10BE20007C240020A0230020942400202DE9F0474A
:10BE300082B068B3514B1B78002B41D00C4639B30C
:10BE40000A884FF6FF739A4234D04B8893B34E68FA
:10BE500016F003063AD1B1F8089009F103039BB23A
:10BE600040F2FE32934234D8454A1178054639B93A
:10BE7000508911890144194489B2B1F5806F2BD9D9
:10BE8000117D59B148F20666304602B0BDE8F08730
:10BE900048F20466304602B0BDE8F087D08B918B43
:10BEA0000144194489B2B1F5806FEBD84FF0010815
:10BEB000C24613E048F20366304602B0BDE8F087A0
:10BEC00048F20166304602B0BDE8F08748F20266EB
:10BED000DAE748F20866D7E7B046B2460AEB8A0AC4
:10BEE00002EB8A0A034401A92648AAF80A3000F0A6
:10BEF00015FB1C22074600210BF010FB002F30D051
:10BF0000A7F8148003234FF0000887F816803B70D1
:10BF100063683B6101211C4800F02CFCF860238819
:10BF20003B816388BB800423A7F80690BB752B6810
:10BF3000BB6101A91348A7F80A8000F01FFBC5F8F0
:10BF40000480FA68114B2A601B89114885F80A8021
:10BF50002B81012100F002FC002895D1FFF750F859
:10BF600092E7BAF80A30C9F57F4909F1FD09994409
:10BF7000AAF80A9048F2076686E700BF98240020D6
:10BF8000B8230020E02300207C240020A0230020F0
:10BF900094240020194B1B780BB370B54FF6FF7338
:10BFA000984282B0044621D001A9154800F0B6FAA3
:10BFB0001C22054600210BF0B1FA9DB10126052394
:10BFC00001A90F482B702E71EC8000F0D7FA0D48B4
:10BFD000314600F0C3FB68B1002002B070BD48F2EA
:10BFE0000160704748F2076002B070BD48F203601C
:10BFF00002B070BDFFF704F8EEE700BF9824002000
:10C00000E023002094240020154B1B78F3B110B5D9
:10C0100082B001A9134800F081FA1C2204460021D5
:10C020000BF07CFAC4B1062323700E4801A900F07E
:10C03000A5FA0D4B1A780AB101221A730B48012197
:10C0400000F08CFB28B1002002B010BD48F2016066
:10C050007047FEF7D5FFF6E748F2076002B010BD63
:10C0600098240020E0230020A02300209424002016
:10C070002DE9F043394C2478002C67D0002A69D090
:10C08000002B67D09D88012D13D8354C05EB850614
:10C0900004EB860C4FF6FF7700269CF800405CB15D
:10C0A0006C1CA4B2022C9C800CF1140C4FF0010506
:10C0B000F3D148F2096035E0DCF804E01C680EF5C5
:10C0C0008058ACBB0EF10804444539D2D4F800E0E6
:10C0D000BEF1FF3F34D0B4F802E00EF1030E04EBE2
:10C0E0008E0EC6452CD8B4F80490B9452AD0B4F8C1
:10C0F0000090B9F1000F25D0D4F80890B9F1FF3FB6
:10C1000020D01C60B4F804E086450DD1B4F800E0FE
:10C110008E4509D1A16811601968124B51601B89C5
:10C1200013810020BDE8F083DCF804E00EF58058B0
:10C13000B4F802E00EF1030E04EB8E044445C5D3BF
:10C140001E60ADE7C645FBD27446BFE748F201600A
:10C15000BDE8F08348F20460BDE8F0839824002035
:10C16000B8230020A0230020344B1B78002B54D090
:10C1700000295FD0002A5DD02DE9F041B2F804E03B
:10C18000BEF1010F12D82E4C0EEB8E0304EB830C84
:10C1900000269CF800306BB10EF101039BB2022B1C
:10C1A00093800CF1140C4FF0010EF2D148F20960AB
:10C1B000BDE8F081DCF80450136805F58054DBB964
:10C1C00005F108039C421DD81660E5E75F88033738
:10C1D00003EB8707BC42F7D39D88454519D01D88DE
:10C1E000BDB19D68013514D013601C88844217D0FE
:10C1F000DCF8044004F580545D88033503EB8503C7
:10C200009C42E1D91D6801354FF6FF78DED11660FA
:10C21000C2E7BC42D8D93B46F4E748F20160704718
:10C220009B680B601268074B4A601B890B810020DA
:10C23000BDE8F08148F20460704700BF98240020F8
:10C24000B8230020A0230020344B1B78002B54D0AF
:10C2500000295FD0002A5DD02DE9F041B2F804E05A
:10C26000BEF1010F12D82E4C0EEB8E0304EB830CA3
:10C2700000269CF800306BB10EF101039BB2022B3B
:10C2800093800CF1140C4FF0010EF2D148F20960CA
:10C29000BDE8F081DCF80450136805F58054DBB983
:10C2A00005F108039C421DD81660E5E75F88033757
:10C2B00003EB8707BC42F7D39D88454519D01D88FD
:10C2C000BDB19D68013514D013609C88844217D09D
:10C2D000DCF8044004F580545D88033503EB8503E6
:10C2E0009C42E1D91D6801354FF6FF78DED116601A
:10C2F000C2E7BC42D8D93B46F4E748F20160704738
:10C300009B680B601268074B4A601B890B810020F9
:10C31000BDE8F08148F20460704700BF9824002017
:10C32000B8230020A023002020B119B103680B60BE
:10C330000020704748F20460704700BF2DE9F84FB5
:10C34000564B1B78002B00F091800446002800F02B
:10C35000A18012220021524D524FDFF84C810BF088
:10C36000DDF80323B4F802E0B4F808C06189A689B7
:10C3700023802A460020B2F80A9013894B44D2F851
:10C3800004909BB2B9F1000F50D0D9F800A0BA4583
:10C390004CD1D9F80490C144B9F1010F46D800EB53
:10C3A000800905EB89091944D9F80C90CE441FFA8D
:10C3B0008EFEA4F802E0B2F80A90C3F580639BB247
:10C3C000CC44B34289B21FFA8CFCA4F808C0618146
:10C3D00084BFA3811E46536803F1080903F5805A00
:10C3E000D9F8003001334FF6FF7B1BD0B9F802308B
:10C3F000033309EB83039A453CD3B9F804305B451A
:10C400001BD0B9F80030C3B1D9F80830013314D0CB
:10C41000A3880133A380B9F80230033309EB830901
:10C42000CA45DDD81432F0B90120A4E7B4F8009071
:10C4300009F1FF39A4F80090B1E7B4F806B0E38938
:10C440000BF1010BA4F806B0B9F802B003335B445A
:10C45000E381B9F80230033309EB8309CA45BFD839
:10C4600014320028E0D00020BDE8F88F48F20160C7
:10C47000BDE8F88FAAEB0903B4F8069009F10109A9
:10C48000A4F80690B4F80E9009EBA303E38101230E
:10C490002374C7E748F20460BDE8F88F98240020B1
:10C4A000B8230020DEC0ADDE02FEE10E89B110B47B
:10C4B000B2FBF3F403FB1424A4B23CB90160446062
:10C4C00084608281C381204610BC7047092010BC63
:10C4D00070470E20704700BF82B050E8022FC1881D
:10C4E000B2EB324F4FF0000317BF92B241EA014165
:10C4F00042EA014104E04268B2EB324F08BF012337
:10C5000040E80212002AE8D18DF807309DF8073084
:10C51000002B0CBF1120002002B0704710B483B074
:10C5200050E8013F1FFA83FCC489A4448489A445D0
:10C5300028BFACEB040C0489A44502BFBFF32F8FC6
:10C54000002207E0CCEA030C40E801C4002CE7D14C
:10C550004FF001028DF803200193019C9DF8032008
:10C560000C602AB1006810FA84F003B010BC704768
:10C5700002F0FF03184603B010BC70470A884B88CE
:10C580009A4201D00020704750E8012FC2EA0242CF
:10C5900040E80123002BF7D10120704710B483B08D
:10C5A00050E8023F1FFAA3FCC488A44502BFBFF3B2
:10C5B0002F8F00220EE0C489A4448489A44528BF9B
:10C5C000ACEB040CC3EA0C4C40E802C4002CE7D1ED
:10C5D0004FF001028DF803200193019C9DF8032088
:10C5E0000C602AB1006800EB144003B010BC704727
:10C5F00002F0FF03184603B010BC70470A884B884E
:10C600009A4201D00020704750E8022FC2EA22422D
:10C6100040E80223002BF7D1012070474B0901F0BD
:10C620001F024FF0010C0CFA02F100EB830000F046
:10C630007DB800BF4B0910B501F01F040121A140D6
:10C6400000EB830000F066F8E04000F0010010BD50
:10C6500001F01F02012303FA02F24B0900EB8300F1
:10C66000D14300F06FB800BF4B0901F01F0150F833
:10C670002300C84000F00100704700BF2DE9F04FD3
:10C6800001F1FF3B83B04FEA5B130F460546019370
:10C6900000264FF0010A55F8264005EB8608E443D2
:10C6A00094FAA4F4FCB1B4FA84F404EB46144FEA0F
:10C6B0004619A74217D904F01F0360090AFA03F1CB
:10C6C00005EB80009B4600F025F820FA0BF0C3072D
:10C6D00011D5D8F80030DB4393FAA3F3B3FA83F40F
:10C6E0004C44002BE5D1019AB24206F1010301D07E
:10C6F0001E46D0E73C46204603B0BDE8F08F00BFA1
:10C70000034653E8000F0A4643E8002C9CF0000F54
:10C71000F7D17047034653E8000F40EA010243E8AF
:10C72000002C9CF0000FF6D1704700BF034653E881
:10C73000002F42EA010043E8000C9CF0000FF6D104
:10C74000704700BF034653E8002F02EA010043E8A8
:10C75000000C9CF0000FF6D1704700BF034653E871
:10C76000000F00EB010243E8002C9CF0000FF6D113
:10C77000704700BF034653E8002F02EB010043E877
:10C78000000C9CF0000FF6D1704700BF034653E841
:10C79000002FA2EB010043E8000C9CF0000FF6D143
:10C7A000704700BF0346012253E8000F40EA020130
:10C7B00043E8001C9CF0000FF6D1704703460122AD
:10C7C00053E8001F41EA020043E8000C9CF0000F10
:10C7D000F6D170470346002253E8000F00EA020139
:10C7E00043E8001C9CF0000FF6D17047C8B110B4AC
:10C7F000D0E90112521A0468D2B2531E2160DBB292
:10C8000052B101680A6803F1FF3C541C0C601370BC
:10C810005FFA8CF3FF2BF4D103680020187110BC71
:10C8200070470E20704700BF30B583B00446002526
:10C830000DF107008DF80750FEF76EF9D4E90031CD
:10C840001A688A4210D9511E19602168A3680868C5
:10C8500012F801CC0A79E5681B1ADBB2208A9A42E9
:10C8600038BF0B7100FB0C559DF80700FEF77AF9F5
:10C87000284603B030BD00BF30B5054683B00DF18A
:10C88000070000230C468DF80730FEF745F92A68AB
:10C890001368591C1160E9682A8A641AB4FBF2F41F
:10C8A0001C709DF80700FEF75DF903B030BD00BFB6
:10C8B000826842B110B5044643690168006998472F
:10C8C0000023A36010BD70470EB400B582B0039979
:10C8D00021B104AB01AA019300F0B2F802B05DF8F7
:10C8E00004EB03B0704700BF2DE9F04F164683B04C
:10C8F000B142DDF830900D9A0F4605469A46C0F0D9
:10C900009A800B464FF00108B3FBF6F39E4208F104
:10C910000108F9D9D04538BFD04612F00103019380
:10C9200002D1B9F1000F65D1AA68BAF1010F4FF039
:10C93000010406D90AF1FF3ABAF1010F06FB04F42B
:10C94000F8D8B7FBF4F39E4205D806FB04F4B7FB16
:10C95000F4F39E42F9D9DFF8E4A007E0B442B4FB57
:10C96000F6F31AD3AA681C46B7FBF3F31AF803B020
:10C97000BBF10A0F04FB13772DD02B68511CA96063
:10C9800003F802B0D5E901329A42E7D32846FFF70F
:10C990008FFFB4FBF6F3B442E4D2019BC3B1B9F10B
:10C9A000000F15D0C14513D9202401E0C1450FD097
:10C9B000AB682A68591CA960D454D5E901329A425F
:10C9C00009F1FF39F2D32846FFF772FFC145EFD1D5
:10C9D00003B0BDE8F08F511C2B68A9604FF00D012A
:10C9E0009954D5E901329A42C7D32846FFF760FF30
:10C9F000AA68C2E7930718D42024C14594D9AA682D
:10CA00002968531CAB608C54D5E901128A4209F1A4
:10CA1000FF3905D2B9F1000F87D0C145F0D184E7C5
:10CA20002846FFF745FFAA68F4E7BAF1000F14BFE4
:10CA300020243024E1E74FF001086BE77C7A020004
:10CA4000002900F070822DE9F04F0C4685B014F8F3
:10CA5000015B0646002D7BD091464FF00D0A10E099
:10CA60000A2D00F09080B3683268591CB160D5542B
:10CA7000D6E901329A4280F082802578002D67D075
:10CA80000134252DECD10027224614F8013B2D2B33
:10CA90006FD0302B70D02B2B64D02A2B00F08280EB
:10CAA000A3F1300109294FF000050BD805EB8505EE
:10CAB00003EB450512F8013FA3F130010929A5F167
:10CAC0003005F3D92E2B144677D04FF0000803F031
:10CAD000FB02682A43D0252B00F08E81583BDAB246
:10CAE000202A31D8202B2FD8DFE813F021002E0088
:10CAF0002E002E002E002E002E002E002E002E00C6
:10CB00002E0004017D002E002E002E002E007D0040
:10CB10002E002E002E002E002E002E00B5002E001E
:10CB20002E0021012E001C012E002E002100D9F81C
:10CB3000001043461022081DC9F80000096830465D
:10CB4000CDE90057FFF7D0FE01342578002D97D1AD
:10CB5000337B002B40F04A8105B0BDE8F08F14F81C
:10CB6000013FB4E7224614F8013B2D2B47F00407A0
:10CB70008FD147F0010787E747F0020784E7304687
:10CB8000FFF796FE79E7B3683268591CB16002F886
:10CB900003A0D6E901239342FFF466AF3046FFF7C6
:10CBA00087FE60E7D9F80030191DC9F800101D682C
:10CBB00053782E2B02F1010487D16378A3F1300260
:10CBC000092A04F101044FF0000880D808EB880816
:10CBD00003EB480814F8013FA3F13002092AA8F139
:10CBE0003008F3D973E7D9F800301A1DC9F80020CE
:10CBF000D3F800B08BEAEB73A3EBEB73092B40F394
:10CC00000D82B74801211A46632AA0FB03C301F134
:10CC100001014FEAD303F6DC414538BF4146002D00
:10CC200040F020810025BBF1000FC0F2908107F099
:10CC30000403002B40F0E18107F00303022B00F016
:10CC4000D481CDE90057434659460A223046FFF7C2
:10CC50004BFE013479E7D9F800301A1DC9F80020DD
:10CC6000D3F80080B3683268581C3021B060D154CA
:10CC7000D6E90123934280F02581591C3268B160C6
:10CC80007821D154D6E901329A4280F01681B8F168
:10CC90000F0F474603D943461B090F2BFCD801252C
:10CCA000082301E0013B2D01012BFBD1B8FBF5F17D
:10CCB0000F29F8D8DFF82CB206E00F2D4FEA151334
:10CCC0007FF642AFB2681D46B7FBF5F31BF8038051
:10CCD000B8F10A0F05FB137778D03368501CB060A9
:10CCE00003F80280D6E901329A42E6D33046FFF7D4
:10CCF000DFFDE2E7D9F800301A1DC9F800201D78E1
:10CD0000B3680A2D00F030813268591CB160D554E7
:10CD1000D6E901329A42FFF417AF3046FFF7C8FD5B
:10CD2000013412E7D9F8001043460A2203E7D9F884
:10CD300000301A1DC9F8002017F00107D3F8008051
:10CD400065D1B8F1000F03D040460AF021FC074638
:10CD5000BD4215D94FF0200B01E0BD4210D0B268A2
:10CD60003368511CB16003F802B0D6E90123934245
:10CD700005F1FF35F1D33046FFF79AFDBD42EED104
:10CD800098F80050002D3FF4DFAEB3680D270A2D50
:10CD90000FD03268591CB160D554D6E901239342B3
:10CDA00080F0C28018F8015F002D3FF4CDAE0A2D4F
:10CDB000EFD13268591CB160D754D6E901239342B0
:10CDC000E7D33046FFF774FDB368E2E73368501CE1
:10CDD0004FF00D01B0609954D6E901329A42FFF448
:10CDE0007CAF3046FFF764FDB26876E7304605B0A9
:10CDF000BDE8F04FFFF75CBDB2683168501CB06011
:10CE00008B54D6E901329A4287D201349DE698F8D4
:10CE10000020002A00F013810A2AB368C3464FF0AD
:10CE20000D0710D03168581CB060CA54D6E90123F0
:10CE300093420BF101016AD29BF80120002A46D0EF
:10CE40008B460A2AEED13168581CB060CF54D6E91F
:10CE500001138B42E6D330460392FFF729FDB368F6
:10CE6000039ADFE7BBF1000F68DB17F0040300F063
:10CE70008A80BA0705F1FF3503D5B8F1000F3FF4FA
:10CE8000D8AEFA073FF5D5AE002D3FF4D2AEA94299
:10CE9000BFF4CFAE2023B268501CB060306883541A
:10CEA000D6E90102824205F1FF3580F09380002D22
:10CEB0003FF4B8AEA942EED1B5E63046FFF7F8FC34
:10CEC000B268E4E63046FFF7F3FCB368D5E6C8F194
:10CED000010293445D457FF637AE4FF0200806E02F
:10CEE000CDCCCCCC7C7A0200AB453FF42DAEB36800
:10CEF00031685A1CB26001F80380D6E901319942C9
:10CF000005F1FF35F0D33046FFF7D2FCECE73046B1
:10CF1000FFF7CEFC9BF801200BF10101002AD6D0CF
:10CF2000B3688B468DE770473046FFF7C1FC18F8B1
:10CF3000015F002D3FF408AEB36828E7B80705F19C
:10CF4000FF354ED4FB0702D40DB1A942A2D3B2687B
:10CF50003368501CB0602D209854D6E901329A42B3
:10CF60005ED2CBF1000B67E6591C3268B1600D212F
:10CF7000D154D6E901239342FFF4C6AE3046FFF701
:10CF800097FCB368C0E6BA0750D4FB075CD507F03E
:10CF90000303022B7FF455AEB8F1000F7FF451AEBE
:10CFA000A942BFF44EAE3023B268501CB060306866
:10CFB0008354D6E90102824205F1FF3503D2D5B18F
:10CFC000A942F1D13DE630460391FFF771FC039988
:10CFD0003023F4E730460391FFF76AFC03992023DE
:10CFE00065E7B8F1000FADD1B1E7B8F1000F7FF4FC
:10CFF00028AE002DD4D1002523E6B2683368501C3A
:10D00000B0602B209854D6E901329A42FFF414AE56
:10D0100030460391FFF74CFC03990DE60121FBE537
:10D0200030460391FFF744FC03999AE7B8F1000FEB
:10D0300007D107F00303022B7FF403AEB0E793465A
:10D0400048E7F8073FF5F8AD8D423FF623AFF3E52B
:10D0500010B582B040B10B46B9B103601B681146F0
:10D0600002B0BDE8104018470F4B1048104A114954
:10D07000C01AC0080E2400040F4B009440F00100B9
:10D08000FCF798FC0E2002B010BD074B07480B4A76
:10D090000849C01AC0080E240004074B009440F051
:10D0A0000100FCF787FCEDE7D09E0200209F020004
:10D0B0008C7A0200947A0200587C0200C07A020046
:10D0C0002DE9F04182B0002874D01546002A00F006
:10D0D00081800768002F00F08C8073B34668D6F813
:10D0E0000480B3FBF8F608FB1636002E35D111F09C
:10D0F000030F41D1AD074ED1C568A94211D2454BAE
:10D100004548464A4649C01A1024C008A040454B2D
:10D11000009440F00100FCF74DFC102002B0BDE887
:10D12000F081046901F1FF3E9E44A645E7D8FC6802
:10D13000A44602B0BDE8F0416047364B36483A4A53
:10D140003749C01AC00809240004364B009440F047
:10D150000100FCF72FFC0920E0E72E4B2E48334A54
:10D160002F49C01AC008092400042E4B009440F037
:10D170000100FCF71FFCEEE7264B27482C4A284904
:10D18000C01A1024C008A040264B009440F00100B3
:10D19000FCF710FCC1E71F4B1F48264A2049C01A64
:10D1A0001024C008A0401F4B009440F00100FCF781
:10D1B00001FCB2E7174B18481F4A1949C01AC008AA
:10D1C0000E240004174B009440F00100FCF7F2FB22
:10D1D0000E20A3E70F4B1048184A1149C01AC00887
:10D1E0000E2400040F4B009440F00100FCF7E2FB1A
:10D1F000EEE7084B0848124A0949C01AC00808243B
:10D20000000440F00100074B0094FCF7D3FB2046DC
:10D2100084E700BFD09E0200209F0200907B0200A6
:10D22000947A0200447C0200DC7A0200287B02002F
:10D23000547B02006C7B02008C7A0200207B02008F
:10D24000C87A0200F0B583B0002849D00568002DE7
:10D250004FD02AB346683668771E0F4231D1C7686F
:10D26000B94210D2274B2848284A2949C01A10240D
:10D27000C008A040274B009440F00100FCF79AFB47
:10D28000102003B0F0BD046901F1FF3E06FB02EE81
:10D29000A645E7D82C69A44603B0BDE8F040604736
:10D2A000184B19481C4AC01AC0081A4B092400041C
:10D2B0001749009440F00100FCF77CFB204603B0C6
:10D2C000F0BD104B1048154A1149C01A1024C0086F
:10D2D000A040104B009440F00100FCF76BFBCFE73F
:10D2E000084B09480E4AC01AC0080A4B0E24000415
:10D2F000DEE7044B04480B4AC01AC008054B08245B
:10D300000004D5E7D09E0200209F0200E07B0200CF
:10D31000947A0200307C0200DC7A0200B87B0200C2
:10D320008C7A0200C87A020029DF704728DF704734
:10D330000846704700207047024B187A003818BF23
:10D3400001207047A8240020034B187A0122B0FA6C
:10D3500080F05A7440097047A824002008B5104690
:10D360001A460AF007F9002008BD00BF08B51422CC
:10D37000002104480AF0D2F80348FFF7ADF8002076
:10D3800008BD00BFA8240020BC24002010B50A4C12
:10D390000A4B43602046FFF705FA08B1002010BD94
:10D3A00009F020FF02462274054906481C238C22FE
:10D3B000FFF77CF8002010BDA82400209C7C020010
:10D3C000CC240020BC24002030B53D4C237A87B00B
:10D3D000002B3CD03B4D2868022323720379002B9D
:10D3E0003FD0012B25D002689368C3B10023CDE95B
:10D3F0000233009304930323019383680593037915
:10D40000002B4FD0012B07D102238DF80030C368C9
:10D41000416904911B0302939368684698472A491F
:10D420002A4800232372636007B0BDE83040FFF74D
:10D43000E5B8D0E903201044FFF778FF28B311289E
:10D440002CD0286802689368002BCFD1E7E71E49EB
:10D450001E481C4DFFF7A2F828600028BCD1606070
:10D460001EE0D0E90523D21AB2F5805F28BF4FF441
:10D470008052D0E903109208012A38BF01221944D2
:10D480001844FFF751FF0028D9D1237C43B9014646
:10D49000022007B0BDE8304000F01AB80123237223
:10D4A00007B030BD01238DF800300369C1680293D5
:10D4B0004369CDE90313684693689847AFE700BF17
:10D4C000A8240020A4240020A0240020BC240020A4
:10D4D000831E012B40D810B5354C237A86B0002B23
:10D4E00038D0022B2FD103283CD0324B00221B68AE
:10D4F000E2601A79002A4ED0012A24D1D3E904210E
:10D5000001328A421A611ED10020207205E0294BA7
:10D5100000221B68E26022720D2019688A6872B1CD
:10D520000022CDE90222009204929A6801900592AD
:10D530001A7932B3012A1BD08B68684698471E4976
:10D540001E48FFF75BF8637C3BB906B0BDE81040AE
:10D55000FFF73ABF06B010BD704706B0BDE81040F7
:10D5600009F030BEE3680133082BD0D8E360EAE766
:10D5700002228DF80020DA685869049012030292A2
:10D58000DAE701228DF800201A690292DA685B69F5
:10D59000CDE90323D0E7D3E90512881AB0F5805FFF
:10D5A00094BF121802F5805291429A61CBD1ABE739
:10D5B000A8240020A4240020A0240020BC240020B3
:10D5C0002DE9F04182B007468846154801A9164664
:10D5D0001D46FEF7A3FFE0B104461C22002109F01E
:10D5E0009DFF089BA36000230D48276001A9C4F894
:10D5F0001080E66065612371FEF7C0FF0948FFF700
:10D60000D1F810B9084B5B7C3BB1002002B0BDE8FB
:10D61000F081042002B0BDE8F081FFF7D5FEF4E709
:10D62000BC240020AC240020A82400202DE9F041D7
:10D6300082B007460D46154801A916469846FEF7E2
:10D640006DFFD8B104461C22002109F067FF2D0BA5
:10D6500001230E48276001A9C4F80880E5606661CF
:10D660002371FEF78BFF0A48FFF79CF810B9094BAE
:10D670005B7C3BB1002002B0BDE8F081042002B029
:10D68000BDE8F081FFF7A0FEF4E700BFBC24002056
:10D69000AC240020A824002000F0FD03012B00D0C2
:10D6A000704730B53E4CA0F10100B0FA80F0237A0B
:10D6B0000022400987B062742074002B50D0394D8D
:10D6C0002868022323720379002B53D0012B0DD13C
:10D6D000D0E903201044FFF729FE00282CD01128A0
:10D6E00003D10123237207B030BD28680268936814
:10D6F0007BB10023CDE9023300930493032301930C
:10D700008368059303790BB3012B0CD093686846AB
:10D7100098472549254800232372636007B0BDE878
:10D720003040FEF76BBF02238DF80030C3684169BB
:10D7300004911B030293E9E7237C002BD3D101461C
:10D74000022007B0BDE83040FFF7C2BE01238DF8CC
:10D7500000300369C16802934369CDE90313D5E73B
:10D76000114912480F4DFEF719FF28600028A8D173
:10D770006060B8E7D0E90523D21AB2F5805F28BF10
:10D780004FF48052D0E903109208012A38BF0122D9
:10D7900019441844FFF7C8FD0028A0D1CCE700BF0A
:10D7A000A8240020A4240020A0240020BC240020C1
:10D7B000FFF71CB82DE9F041078ACE1C043F3E4418
:10D7C0000546B6FBF7F6FFF72FF8002834D0F6B27F
:10D7D0004FF48073013E04468380C78005602CD0DF
:10D7E00003464FF0000807E06279464502F1010266
:10D7F00062713860056020D028461F46FFF714F894
:10D8000008F1010803460028EED16779791E17D088
:10D810002246013399421268FBD1D2F800805FB1F1
:10D820002668002501E03446366821464046013529
:10D83000FFF722F8AF42F6D800242046BDE8F08179
:10D8400020682146FFF718F8F6E700BF01210430F1
:10D85000FEF790BF2DE9F041012104460430FEF7A8
:10D8600095FF10F0FF0301D0BDE8F0816779791EC4
:10D8700016D02246013399421268FBD1D2F80080BB
:10D88000002FF1D02668002501E034463668214695
:10D8900040460135FEF7F0FFAF42F6D8BDE8F08113
:10D8A00020682146BDE8F041FEF7E6BF2DE9F843C8
:10D8B0008846C788417907FB01F1043902EB030C64
:10D8C0001E1D6145154638BFCD1AB7420446B6FB4A
:10D8D000F7F207FB126002D8013A2468FCD13E1A25
:10D8E000AE4228BF2E469DB14FF000090430AD1B5B
:10D8F000324608EB0901204409F03CFEAF42B14436
:10D9000024683E464FF0000028BF2E46002DEDD182
:10D91000BDE8F8832DE9F8430446C788407907FB42
:10D9200000F0043802EB030C1E1D6045154638BF9D
:10D93000C51AB7428846B6FBF7F207FB126102D858
:10D94000013A2468FCD17E1AAE4228BF2E469DB112
:10D950004FF0000904312144AD1B324608EB0900A9
:10D9600009F008FEAF42B14424683E464FF0000182
:10D9700028BF2E46002DEDD1BDE8F88341DF70476A
:10D98000064A074B10B5002414701C60BFF35F8F6C
:10D990000449054800F024F8204610BD6025002009
:10D9A00064250020A87C02005825002008B509F055
:10D9B00019FC18B920BF40BF20BF08BDBDE8084012
:10D9C000FFF7DCBF8268002393608268136182687E
:10D9D00053618268D36082685360826813607047C5
:10D9E00001600B6843604A68934208BF00234360AC
:10D9F000704700BF436843B1026891680B444360BD
:10DA00005268934204BF00234360704770B5446876
:10DA1000064620680D4618B908E02468206828B139
:10DA2000B368294698470028F7D120682860256008
:10DA300070BD00BF4368186808B102681A6070477B
:10DA400043681868704700BF4368186818B908E051
:10DA50000346006828B18142FAD10A681A600120A1
:10DA6000704770470E49A1F5947205E052F83330C3
:10DA7000984238BF614607D28B1A1B11914202EBC4
:10DA8000C30CF3D80748704702D90CF10802F3E73A
:10DA9000DCF80400034B002808BF1846704700BF9D
:10DAA000E0810200E0810200D1E9003291F80CC06F
:10DAB000BCF1000F16BF1346012200220271036061
:10DAC000704700BF10B4027903464AB148681C6829
:10DAD0008A68011B914212D9A018186010BC7047C7
:10DAE000046808688A68211A914204D801221860E3
:10DAF0001A7110BC7047A01A186010BC7047002241
:10DB000018601A7110BC70474FF08053D3F8302161
:10DB10000A2A0DD04FF01023D3F80022002A73DB1D
:10DB2000D3F80432002B6FDB504B514A1A60704718
:10DB3000D3F844024FF080410022C0F34230C1F8D4
:10DB40003C05C1F80C21C1F81021C1F83825494A1B
:10DB5000D3F80404C2F82005D3F80804C2F8240559
:10DB6000D3F80C04C2F82805D3F81004C2F82C0529
:10DB7000D3F81404C2F83005D3F81804C2F83405F9
:10DB8000D3F81C04C2F84005D3F82004C2F84405B9
:10DB9000D3F82404C2F84805D3F82804C2F84C0589
:10DBA000D3F82C04C2F85005D3F83004C2F8540559
:10DBB000D3F83404C2F86005D3F83804C2F8640519
:10DBC000D3F83C04C2F86805D3F84004C2F86C05E9
:10DBD000D3F84404C2F87005D1F80024D20710D558
:10DBE0006FF00102D3F83431C1F80024002B91D03A
:10DBF0004FF08042D2F8E43E43F00F03C2F8E43E17
:10DC000088E7D3F83431F1E71B4A0123C2F8043521
:10DC1000D2F80034002BFBD04FF010231521164A08
:10DC2000C3F80012D2F80034002BFBD04FF01023C1
:10DC30001521114AC3F80412D2F80034002BFBD08E
:10DC400000230D49C2F80435D1F80034002BFBD075
:10DC5000BFF34F8F09490A4BCA6802F4E0621343CD
:10DC6000CB60BFF34F8F00BFFDE700BF501A00200D
:10DC70000090D00300C0004000E0014000ED00E053
:10DC80000400FA054FF0A042044B1B5CD2F80405D7
:10DC9000D840C04300F00100704700BFF881020087
:10DCA000044A115C01234FF0A0428B40C2F80C35AE
:10DCB000704700BFF8810200044A115C01234FF055
:10DCC000A0428B40C2F80835704700BFF8810200BF
:10DCD0004FF0A04310B44FF480204FF400344FF4C1
:10DCE00000214FF48012C3F80845C3F80805C3F8B3
:10DCF0000815C3F8082510BC704700BF4FF0A043BB
:10DD000010B44FF480204FF400344FF400214FF44E
:10DD10008012C3F80C45C3F80C05C3F80C15C3F802
:10DD20000C2510BC704700BF074B4FF0A041185C9A
:10DD3000D1F804350122824022EA03001340C1F8E1
:10DD40000805C1F80C357047F88102004FF0A04279
:10DD5000044B1B5CD2F81005D840C04300F0010012
:10DD6000704700BFF4810200014B185C704700BF90
:10DD7000F481020010B568B90E4CA36801226270EC
:10DD80003BB1D3E900230020A2609847A368002B91
:10DD9000F7D110BD0128FCD1064C2369A070002BDF
:10DDA000F7D0D3E900230120226198472369002B93
:10DDB000F7D110BD6825002070B910B5074CA368D5
:10DDC000012262703BB1D3E900230020A260984792
:10DDD000A368002BF7D110BD704700BF6825002055
:10DDE00030B5012883B004D0032821D0B0B103B0EE
:10DDF00030BD294C00230DF107008DF80730FCF7EA
:10DE00008BFE23786BB3E3689DF80700012213446F
:10DE1000E360A270FCF7A6FE03B030BD1F4B0122E9
:10DE2000C3F88020BFF34F8FBFF36F8F03B030BDB7
:10DE3000194C00F045F800230DF107008DF807306C
:10DE4000FCF76AFEE368013BE360E3681BB9144B2F
:10DE5000D3F80054C5B19DF80700FCF783FE03B06A
:10DE600030BD10486360A3602361E36000F01CF8DC
:10DE700009F0B8F960B10A4A01232370D2F80024EE
:10DE8000002AC0D0A370BEE700F02CF8A570E2E72E
:10DE900000F016F8EFE700BF6825002000E100E081
:10DEA0000000014075DD0100044A137923B9012106
:10DEB0001060918018467047852070477C250020AF
:10DEC000074B1A68D20704D4C02283F8002301222A
:10DED0001A604FF080430122C3F81825704700BF35
:10DEE00000E100E04FF0804202210023C2F8081355
:10DEF00082B0C2F80431D2F80431019301230199B0
:10DF0000D360D2F81834DB03FBD402B0704700BFF3
:10DF100010B54FF0804382B0D3F8002162B10021E8
:10DF2000164AC3F80011D3F800115079009101216D
:10DF3000009CC3F80813A8B14FF08043D3F8042124
:10DF4000CAB10022C3F80421D3F8042101920221AE
:10DF50000A4A0198C3F808131368012002B0BDE80B
:10DF6000104018471368517198474FF08043D3F819
:10DF70000421002AE5D102B010BD00BF7C2500209D
:10DF8000F0B585B01D4A00230193D2F80011012994
:10DF900000F0EB811E46194BD3F80421012A00F052
:10DFA000D581164BD3F80821012A00F0BD81134B0F
:10DFB000D3F80C21012A00F0A881104BD3F81021CE
:10DFC000012A00F093810D4BD3F81421012A00F0AF
:10DFD0007E810A4BD3F81821012A00F06981074B92
:10DFE000D3F81C21012A0BD0044BD3F87C21012A41
:10DFF00000F0E38126BB05B0F0BD00BF006000402B
:10E00000D3F804231206EFD50022C3F81C21D3F85D
:10E010001C110291D3F87C110298012946F0800668
:10E020000ED1C3F87C21D3F87C2103924FF0A0439A
:10E03000039AD3F820250192C3F8202546F0004624
:10E04000C14F00240125A30003F180432E4203F5B4
:10E05000C0434FEA45050BD0D3F8100557F82420EC
:10E06000D3F81015C0F30420C1F3014102B1904769
:10E070000134082CE7D1002EBDDAB34D01264FF054
:10E08000A04495F950305F1C3FD0C3F3C20101F1A9
:10E0900010020DEB020103F0070211F80C7C06FAE6
:10E0A00002F21742D9B203F03F002ED0830003F1F1
:10E0B000A04306FA00F7D3F80027D3F800C72CF4E2
:10E0C000403CC3F800C7C2F30142D3F800E7022A7C
:10E0D0000CBF4FF4403C4FF4003C4CEA0E0CC3F82C
:10E0E00000C72B18C4F8207593F9303055F8233049
:10E0F0005BB18909032900F05481022A00F04E81A6
:10E10000032A02D1022900F04C8195F95130581CA4
:10E110003FD0C3F3C20101F110020DEB020103F085
:10E12000070211F80C7C06FA02F21742D9B203F08A
:10E130003F002ED0830003F1A04306FA00F7D3F886
:10E140000027D3F800C72CF4403CC3F800C7C2F343
:10E150000142D3F800E7022A0CBF4FF4403C4FF4D1
:10E16000003C4CEA0E0CC3F800C72B18C4F820750D
:10E1700093F9303055F823305BB18909032900F059
:10E180001581022A00F00F81032A02D1022900F032
:10E190000D8195F95230591C3FD0C3F3C20101F1F2
:10E1A00010020DEB020103F0070211F80C7C06FAD5
:10E1B00002F21742D9B203F03F002ED0830003F1E0
:10E1C000A04306FA00F7D3F80027D3F800C72CF4D1
:10E1D000403CC3F800C7C2F30142D3F800C7022A8B
:10E1E0000CBF4FF4403E4FF4003E4CEA0E0CC3F817
:10E1F00000C72B18C4F8207593F9303055F8233038
:10E200005BB18909032900F0D680022A00F0D08092
:10E21000032A02D1022900F0CE8095F953305A1C0E
:10E220003CD0C3F3C20101F110020DEB020103F077
:10E23000070211F80C7C06FA02F21742D9B203F079
:10E240003F002BD0830003F1A04306FA00F7D3F878
:10E250000027D3F800C72CF4403CC3F800C7C2F332
:10E260000142D3F800C7022A0CBF4FF4403E4FF4DE
:10E27000003E4CEA0E0CC3F800C72B18C4F82075FA
:10E2800093F9303055F8233043B1890903297BD005
:10E29000022A77D0032A01D1022975D0D4F820357B
:10E2A0000193C4F82035002B7FF4EBAE05B0F0BD30
:10E2B000D3F8042351067FF592AE0022C3F818214B
:10E2C000D3F818310293029B46F0400687E6D3F854
:10E2D000042390067FF57DAE0022C3F81421D3F805
:10E2E00014310293029B46F0200672E6D3F8042311
:10E2F000D4067FF568AE0022C3F81021D3F81031A0
:10E300000293029B46F010065DE6D3F8042315073E
:10E310007FF553AE0022C3F80C21D3F80C310293E1
:10E32000029B46F0080648E6D3F8042357077FF51A
:10E330003EAE0022C3F80821D3F808310293029BB5
:10E3400046F0040633E600BF84250020D3F80423FA
:10E3500092077FF526AE0022C3F80421D3F80431DA
:10E360000293029B46F002061BE6D2F8046316F005
:10E3700001063FF410AEC2F80031D2F8003102932A
:10E38000029B08E6012989D19847D4F820350193EA
:10E39000C4F82035002B7FF474AE87E701297FF4A1
:10E3A000B4AE9847B1E601297FF4F3AE9847F0E6A2
:10E3B00001297FF432AF98472FE70022C3F87C2170
:10E3C000D3F87C2103924FF0A043039AD3F8202581
:10E3D0000192C3F82025002E3FF44FAE2EE600BF79
:10E3E000D0B5584BD3F824218AB0002A58D0002247
:10E3F000C3F82421D3F82411049102228DF81820A7
:10E400000499514AD3F88014C3F880140991D3F8C1
:10E410003C45D06800260027CDE90704C2E906671D
:10E42000D2E9001306A89847464BD3F8442152B1CD
:10E430000021454AC3F84411D3F84401916903907F
:10E440000398002961D13F4BD3F8202162B100200D
:10E45000C3F82001D3F82021029201213A4A029CFC
:10E46000D9605169002943D1364BD3F85821AAB15C
:10E470000020C3F85801D3F85811334A019101998B
:10E48000516959B1D3F84C458DF81800D2E90131E2
:10E490005061CDE9071406A8116898470AB0D0BDAD
:10E4A000D3F810110029BFD0C3F81021D3F81011F0
:10E4B000254C05910599A169D3F83C058842B3D153
:10E4C000E169002932D0A161E261D3F80022266916
:10E4D00022F02002C3F80022E268089001218DF8A2
:10E4E000181063682168079206A8E66098479BE7C2
:10E4F000D3F84C458DF81800D2E901315061CDE9CF
:10E50000071406A811689847AEE7D3F83C45D068D1
:10E5100000260027C2E906670126CDE90704D2E9F3
:10E5200000138DF8186006A898478CE7E268A1618F
:10E530000123CDE907208DF8183006A8D4E900138F
:10E54000984771E700200040E025002038B5B64D1F
:10E550002B7804466BB1B54B1B7800202870002B3C
:10E560004CD0FFF7A9FB0120FFF7A6FB0320FFF724
:10E57000A3FB172C61D8DFE814F0F40063006300FC
:10E58000AA00B700C300D5000901500044005000A4
:10E5900044008F0018001800180018001800E3004D
:10E5A00095007A0010015C005C00A148FCF776FA47
:10E5B000D4F11104054600F02081002840F01D81AF
:10E5C000012C14D0C82303FB04F429464FF4004364
:10E5D0004FF47A70C4FB03014FF4FA62002308F091
:10E5E000E9FF2A4601469248FCF7FCF9054602205D
:10E5F000FFF756FB8D4B01221A701FE0FFF768FBF7
:10E60000B7E701202870FFF78FFBBDE83840894845
:10E6100000224FF40051FCF7E5B901202870FFF704
:10E6200083FBBDE838408348002240F26661FCF776
:10E63000D9B9FFF763FB804B1C700025284638BD15
:10E640000020FFF71FFB002840F0BD80FFF728FBEC
:10E6500040F6CD4141F69A13022C18BF1946764B6D
:10E660001C70BDE8384073480022FCF7BBB96F4B03
:10E670001B78002B00F0CB800020FFF71DFB012052
:10E68000FFF71AFB0320FFF717FB0120FFF708FB3A
:10E69000694B14221A70D0E7FFF730FB664B0C224F
:10E6A0001A70CAE7614B1B78002B00F0AD80002088
:10E6B000FFF702FB0120FFF7FFFA0320FFF7FCFA48
:10E6C0000020FFF7EDFA5C4B13221A70B5E700202B
:10E6D000FFF7D8FA002840F08A80FFF7E1FA40F609
:10E6E000CD41554B0324BBE70020FFF7CBFA0028B0
:10E6F00077D1FFF7D5FA41F69A114F4B0424AFE7D3
:10E700000020FFF7BFFA002867D1FFF7C9FA4A4B8C
:10E71000484805241C70BDE83840002240F6CD4131
:10E72000FCF760B90020FFF7FFFA434B414806248D
:10E730001C70BDE83840002240F26661FCF752B917
:10E740003A4B1B78002B6BD00020FFF7B5FA012065
:10E75000FFF7B2FA0320FFF7AFFA374B12221A7015
:10E760006BE7324B1B78002B57D00020FFF7A4FA41
:10E770000120FFF7A1FA0320FFF79EFA2D48FCF7CE
:10E780008DF92D4B002205461A7057E70020FFF740
:10E7900087FA294B07221A704FE7244B1B78CBB31B
:10E7A0000020FFF789FA0120FFF786FA0320FFF720
:10E7B00083FA0020FFF774FA0120FFF771FA1E4B6D
:10E7C00015221A7039E70020FFF776FA022C47F27B
:10E7D000333118BF4FF4803141E70020FFF76CFA66
:10E7E00095E70020FFF768FA4FF4803185E70020B5
:10E7F000FFF762FA43F2333173E70220FFF75CFA66
:10E800000A4B00221A7019E7FFF762FA58E7FFF780
:10E810005FFA3AE7FFF75CFACBE7FFF759FAADE7A3
:10E82000FFF756FA99E700BF1826002010260020AF
:10E83000581A0020781A002019260020032801D930
:10E8400000207047FFF782BA044B1B6813F00103E6
:10E8500001D118467047FFF779BE00BF142600208B
:10E86000032806D8012A06D001291BD0022908D086
:10E8700071B107207047012911D002294FF0000221
:10E88000F6D10B4B00EB4000034400205A70704758
:10E89000074B00EB400003449A700020704700F1E2
:10E8A0000E02D2B2024B00EB40001A54F5E700BF53
:10E8B00004260020032801D90620704708B5FFF779
:10E8C00053FA830003F1A0430020D3F8002722F479
:10E8D0004032C3F80027D3F8002742F44032C3F88F
:10E8E000002708BD10B50388102B07D0112B04D1C9
:10E8F000254B18680138186030B110BD224C2168D2
:10E9000011B30131216010BD01220221FFF7A8FFE0
:10E9100040B1072806D01D4B1B68002BEDD0BDE889
:10E9200010401847072202210120FFF799FF08B184
:10E930000728F0D100210A220846FFF791FF00289E
:10E94000DBD00728D9D0E6E701220846FFF788FF89
:10E9500038B1072805D00D4B1B6803B198472168D3
:10E96000CFE7072202210120FFF77AFF08B107282D
:10E97000F1D1042202210020FFF772FF0028EED01F
:10E980000728ECD0E7E700BF1C2600202026002047
:10E9900008B50020FFF78EFF10B1062800D008BD93
:10E9A0000120FFF787FF0028F9D0062808BF0020C4
:10E9B00008BD00BF76DF704778DF70477ADF7047A9
:10E9C0007CDF70478FDF704733DF7047FBF7E6BCB3
:10E9D00008B50E490E48FFF775F801464FF6FE726E
:10E9E0000C48C9B207F074F978B1132809D8072880
:10E9F00003D9094BC340DB0707D4BDE80840FBF748
:10EA0000CDBC43F201439842F7D108BD382700201E
:10EA1000302700206028002000810A002DE9F047FF
:10EA2000DFF884A0DFF884901C4684B007460E46C9
:10EA300015469BB2082200210DEB0200984608F013
:10EA40006DFD0DF10A032A1B3119181908F092FD0A
:10EA50000120FFF7F3FE9AF8001002AB082228B15C
:10EA60009DF8080040F002008DF80800A1B9B9F83F
:10EA700000000090384608F089F90134A3B228B9A3
:10EA80009D42D7D208F101081FFA88F80C9BA3F821
:10EA9000008004B0BDE8F087B9F8003002AA082170
:10EAA000384608F0D7F9E8E748270020F81A002090
:10EAB00030B5254D85B00DF10E0300930146044697
:10EAC000002306222846FFF7A9FF132818D008B90B
:10EAD00005B030BD13280AD807280CD91B4BC340FA
