:1010000000600020091300005D1300005F13000062
:10101000611300006313000065130000000000006E
:101020000000000000000000000000006713000046
:1010300069130000000000006B1300006D13000036
:101040006F1300006F1300006F1300006F13000098
:101050006F130000000000006F1300006F1300000A
:101060006F1300006F1300006F1300006F13000078
:101070006F1300006F1300006F1300006F13000068
:101080006F1300006F1300006F1300006F13000058
:101090006F1300006F1300006F1300006F13000048
:1010A0006F1300006F13000000000000000000003C
:1010B0006F1300006F13000000000000000000002C
:1010C0000000000000000000000000000000000020
:1010D0000000000000000000000000000000000010
:1010E0000000000000000000000000000000000000
:1010F00000000000000000000000000000000000F0
:1011000000000000000000000000000000000000DF
:1011100000000000000000000000000000000000CF
:1011200000000000000000000000000000000000BF
:1011300000000000000000000000000000000000AF
:10114000000000000000000000000000000000009F
:10115000000000000000000000000000000000008F
:10116000000000000000000000000000000000007F
:10117000000000000000000000000000000000006F
:10118000000000000000000000000000000000005F
:10119000000000000000000000000000000000004F
:1011A000000000000000000000000000000000003F
:1011B000000000000000000000000000000000002F
:1011C000000000000000000000000000000000001F
:1011D000000000000000000000000000000000000F
:1011E00000000000000000000000000000000000FF
:1011F00000000000000000000000000000000000EF
:101200000348044B834202D0034B03B11847704795
:101210001400002014000020000000000548064BC8
:101220001B1AD90F01EBA301491002D0034B03B1E4
:101230001847704714000020140000200000000030
:1012400010B5064C237843B9FFF7DAFF044B13B10E
:101250000448AFF300800123237010BD1400002068
:10126000000000001816000008B5054B1BB1054929
:101270000548AFF30080BDE80840FFF7CFBF00BFCF
:10128000000000001800002018160000A3F5803AA6
:10129000704700BF174B002B08BF134B9D46FFF74D
:1012A000F5FF00218B460F461348144A121A00F02E
:1012B0006DF90E4B002B00D098470D4B002B00D042
:1012C00098470020002104000D000D48002802D09E
:1012D0000C48AFF3008000F061F92000290000F015
:1012E00069F800F041F900BF0000080000000000AC
:1012F0000000000000600020140000200401002015
:1013000000000000000000000E4800680E49096857
:101310000A280AD1002908D10C4802686FF070032E
:101320001A404FF040031A4302600949094A0A4B28
:101330009B1A03DD043BC858D050FBDC00F056F884
:10134000FFF7A8FF3001001034010010E40E004048
:10135000401600000800002014000020FEE7FEE711
:10136000FEE7FEE7FEE7FEE7FEE7FEE7FEE7FEE755
:101370004FF0A042D2F80435D94301F4802103F4A0
:101380008023C2F80815C2F80C357047C20708D58B
:101390004FF0A04303214FF48022C3F84817C3F84D
:1013A0000825830704D54FF0A0430C22C3F8642717
:1013B000704700BF38B50120FFF7E8FF0A4D4FF036
:1013C000A04301220321C3F800171543C3F80825E1
:1013D0000020FFF7CDFF4FF4FA744FF47A40A8478E
:1013E000013CFAD1F4E700BF101600004FF0805323
:1013F000D3F830210A2A0DD04FF01023D3F8002261
:10140000002A73DBD3F80432002B6FDB504B514AB8
:101410001A607047D3F844024FF080410022C0F3B5
:101420004230C1F83C05C1F80C21C1F81021C1F8C7
:101430003825494AD3F80404C2F82005D3F8080433
:10144000C2F82405D3F80C04C2F82805D3F8100418
:10145000C2F82C05D3F81404C2F83005D3F81804E8
:10146000C2F83405D3F81C04C2F84005D3F82004B0
:10147000C2F84405D3F82404C2F84805D3F8280478
:10148000C2F84C05D3F82C04C2F85005D3F8300448
:10149000C2F85405D3F83404C2F86005D3F8380410
:1014A000C2F86405D3F83C04C2F86805D3F84004D8
:1014B000C2F86C05D3F84404C2F87005D1F80024D2
:1014C000D20710D56FF00102D3F83431C1F80024EF
:1014D000002B91D04FF08042D2F8E43E43F00F034E
:1014E000C2F8E43E88E7D3F83431F1E71B4A012320
:1014F000C2F80435D2F80034002BFBD04FF0102393
:101500001521164AC3F80012D2F80034002BFBD084
:101510004FF010231521114AC3F80412D2F80034F9
:10152000002BFBD000230D49C2F80435D1F800345C
:10153000002BFBD0BFF34F8F09490A4BCA6802F456
:10154000E0621343CB60BFF34F8F00BFFDE700BFE6
:10155000080000200090D00300C0004000E00140DF
:1015600000ED00E00400FA0508B5064B044613B18F
:101570000021AFF30080044B1B6803B1984720465D
:1015800000F030F800000000000100200244034693
:10159000934200D1704703F8011BF9E770B50D4D78
:1015A0000D4C641BA4100026A64209D10B4D0C4C17
:1015B00000F01AF8641BA4100026A64205D170BDE5
:1015C00055F8043B98470136EEE755F8043B984739
:1015D0000136F2E70C0000200C0000200C00002077
:1015E00010000020FEE700BFF8B500BFF8BC08BC43
:1015F0009E467047F8B500BFF8BC08BC9E467047D1
:101600006170700000000000000000000000000099
:0C1610000338FDD8704700000000000007
:08161C000016000000000303AA
:1016240030000020F80000200001002038000020D5
:04163400180000009A
:0816380054FCFF7F01000000DB
:0C1640000090D00369120000411200006D
:0400000300001309DD
:00000001FF
