:020000021000EC
:1090000000600020099301005D9301005F9301005F
:10901000619301006393010065930100000000006B
:109020000000000000000000000000006793010045
:1090300069930100000000006B9301006D93010033
:10904000E9CE01006F93010001D301006F9301008D
:109050006F93010000000000B1D1010081D3010035
:109060006F9301006F9301006F9301006F930100F4
:109070006F9301006F9301006F9301006F930100E4
:109080006F93010075A701006F9301006F930100BA
:109090006F9301006F930100B14602006F930100CE
:1090A0006F9301006F9301000000000000000000BA
:1090B0006F9301006F9301000000000000000000AA
:1090C00000000000000000000000000000000000A0
:1090D0000000000000000000000000000000000090
:1090E0000000000000000000000000000000000080
:1090F0000000000000000000000000000000000070
:10910000000000000000000000000000000000005F
:10911000000000000000000000000000000000004F
:10912000000000000000000000000000000000003F
:10913000000000000000000000000000000000002F
:10914000000000000000000000000000000000001F
:10915000000000000000000000000000000000000F
:1091600000000000000000000000000000000000FF
:1091700000000000000000000000000000000000EF
:1091800000000000000000000000000000000000DF
:1091900000000000000000000000000000000000CF
:1091A00000000000000000000000000000000000BF
:1091B00000000000000000000000000000000000AF
:1091C000000000000000000000000000000000009F
:1091D000000000000000000000000000000000008F
:1091E000000000000000000000000000000000007F
:1091F000000000000000000000000000000000006F
:109200000348044B834202D0034B03B11847704715
:109210004C2100204C210020000000000548064B96
:109220001B1AD90F01EBA301491002D0034B03B164
:10923000184770474C2100204C21002000000000FE
:1092400010B5064C237843B9FFF7DAFF044B13B18E
:109250000448AFF300800123237010BD602100207B
:1092600000000000AC71020008B5054B1BB10549B8
:109270000548AFF30080BDE80840FFF7CFBF00BF4F
:109280000000000064210020AC710200A3F5803AC8
:10929000704700BF174B002B08BF134B9D46FFF7CD
:1092A000F5FF00218B460F461348144A121A0BF0A3
:1092B0006FFB0E4B002B00D098470D4B002B00D0BE
:1092C00098470020002104000D000D48002802D01E
:1092D0000C48AFF300800BF063FB2000290005F081
:1092E000C1FB0BF033FB00BF0000080000000000D2
:1092F00000000000006000206021002050320020AB
:1093000000000000000000000E4800680E490968D7
:109310000A280AD1002908D10C4802686FF07003AE
:109320001A404FF040031A4302600949094A0A4BA8
:109330009B1A03DD043BC858D050FBDC03F080FAD5
:10934000FFF7A8FF3001001034010010E40E0040C8
:10935000A4730200401A002060210020FEE7FEE70F
:10936000FEE7FEE7FEE7FEE7FEE7FEE7FEE7FEE7D5
:10937000F0B595B01D46164608460C4603F0A9F810
:109380001A9B0D93CDE9086500252B46082205A9F7
:1093900020460A958DF82C500C9503F0B6F8079BE3
:1093A0000293069B03939DF814308DF8115003F03F
:1093B0000302012A1DD1BDF81420059DC3F3C20389
:1093C000C2F383168DF81030B20008230EA9204690
:1093D00003F09BF8C5F3952508AB0093324602AB2A
:1093E0000EA9284600F0B8FB204603F076F815B029
:1093F000F0BD022AF8D1BDF81650C3F3C203C5F37D
:1094000089158DF810300827082D2E4628BF08260C
:109410003B4632460EA9204603F077F8AD1B08AB59
:1094200002AA31460EA8374400F0FAFB002DEBD11A
:10943000DAE70000014B01221A7070477D210020FD
:109440007047000070B50E4D06460FCD88B06C46D3
:109450000FC495E80F00002E84E80F00094A0A485F
:109460004FF0060308BF00226946009303F0C4FCD6
:1094700008B100F0A5FD054B1E7008B070BD00BF1F
:109480002C4D020035940100401A00207C21002060
:1094900007B5044B0093044A4023FFF769FF03B06C
:1094A0005DF804FBAD9401007E21002038B50D4825
:1094B0000D4C0E4D002323700378EB5CD2B263B1E8
:1094C000043004F091FD08B100F07AFD084B1B78E0
:1094D00013B12378002BFCD038BD0C3004F024FBF2
:1094E000F1E700BF401A00207D210020042A00205F
:1094F0007C21002008B50848084A0378D35C3BB1BA
:10950000043004F0D5FCBDE808400020FFF79ABF06
:109510000C3004F08FFAF6E7401A0020042A0020ED
:109520000120FFF78FBF000008B5FFF7F9FF0448DF
:10953000042100F079FA034B01225A7108BD00BFE3
:109540008C730200541A0020037813F0040215D023
:1095500003F00303012B03D0022B09D00120704735
:109560000B6802880233C2F3831213440B60F5E7E1
:109570000B684288023303EB9213F7E710467047FB
:109580002DE9F04F434C87B0884600230546871CE1
:109590000DF1070016468DF8073000F06FFF626886
:1095A000C8F80020A36803F580739B1A04F21C48D6
:1095B00004F5836A04F21449BB4218D30021002E3B
:1095C00064D005F00F05AD0145F0050565F30F0109
:1095D00063689DF80700DAB203323B4444F8221076
:1095E000636000F06FFF012007B0BDE8F08F01213C
:1095F000404602F092F9504602F0AAF9484602F0BD
:10960000A7F9A0680290C0B2033004EB800002A961
:10961000FFF79AFF20BB029BDAB204EB8202D1680B
:1096200003919A1C0133DBB204EB83030292D3F85B
:109630000CB001F00303012B20D0022B13D0834682
:10964000484602F088F908B1029BA360594640469B
:1096500002F063F9A368626803F580739B1AABE7B5
:109660009DF80800D0E7BDF80E30C3F3891303332B
:109670004FEA1B4B02EB93030293E1E7BDF80C307A
:10968000C3F383134FEA1B4B1344F5E7AD0545F0D5
:1096900006019DE7C0210020064B074810B50022B7
:1096A0001A7002F0D2FE044610B9044803F018F80C
:1096B000204610BDC021002074720200744D0200CB
:1096C00030B50A4C71B10A4A0A49121BD20800236C
:1096D0009A4201D1002030BD31F82350854202D09A
:1096E0000133F5E7034654F83300F4E79C720200B7
:1096F0008C73020060210020094B013903EBC0008C
:10970000032909D8DFE801F0020A040602207047A5
:1097100000797047407970470020704704207047F7
:109720009C72020070470000034BD3E90130C31A5A
:1097300058425841704700BFC02100202DE9F04336
:1097400087B0FFF7F1FF002874D1744CC4F81804F7
:10975000BFF34F8FA0680290C0B2033004EB8000CB
:1097600002A9FFF7F1FE029B18B1D4F81824002AD1
:109770005CD0DAB29F1C013304EB8202DBB204EB53
:109780008303D268DB68049302F00303022B039285
:10979000029758D1BDF80E306148C3F38918464688
:1097A000502E28BF502666F38F1306F10801ADF83E
:1097B0000E3002F062FE0546002800F0998002F0AB
:1097C00088FE002303A90822284602F094FEFB43EA
:1097D000DBB20133F9B20331B6EB830F4FEA8309F1
:1097E00004EB81012CD908234A46A6EB090628463A
:1097F00002F081FEF6B24B4909F10803324608F146
:109800000308284607EB980702F075FE0297D4F884
:109810001834D4F81064002B55D0284602F05DFEB1
:10982000FFF782FF80F00100C0B204E062689A4254
:1098300004D8A260002007B0BDE8F083D8B28CE75E
:1098400008233246DBE7012B52D1BDF80C303448F7
:10985000C3F38311062928BF062161F3891302315E
:1098600001F00F018900ADF80C3002F006FE05464C
:1098700000283DD002F02DFE0023082203A928462F
:1098800002F039FE0026BDF80C20C2F38312B300AB
:10989000B24203F10803BAD902994A1CC9B2033192
:1098A000029204EB81010422284602F024FE0136D4
:1098B000E9E7F3685B7923B1336829461B683046D2
:1098C0009847F3681E68002EF3D1284602F005FE83
:1098D0000DF107008DF8076000F0D0FDD4F81834C2
:1098E0000BB9029BA3609DF8070000F0EBFD97E722
:1098F000D4F8104454B90C4B0C480D49C01AC00898
:10990000000440F0020000F05DF889E7236820467B
:109910009B689847E3681C68ECE700BFC021002003
:1099200074720200CC2100209C720200CC720200F2
:109930005D4D02002DE9F34704460E46924601A90B
:10994000012218469946FFF71BFE1C4F10B3019DDC
:109950004FF00008AA1CC84508EB020125D11848A1
:10996000002101F093FF80F31000000440EA14404E
:10997000E4006B1C04F03804DBB2EDB244F00104E7
:1099800007EB8303033544EA881444EA8624D8604D
:1099900047F825403B781BB1FFF7D0FE0028FBD1EC
:1099A000FFF7C0FE02B0BDE8F087C9B207EB810146
:1099B0005AF82830CB6008F10108CCE7C02100201C
:1099C000DC25002000231A46FFF7B4BF07B50123AA
:1099D000019201AAFFF7AEFF03B05DF804FB07B5E3
:1099E000CDE9002302236A46FFF7A4FF03B05DF828
:1099F00004FB1FB5CDE90123069B039301AA0323B2
:109A0000FFF798FF05B05DF804FB1FB5CDE9002313
:109A1000069B0293079B03936A460423FFF78AFF82
:109A200005B05DF804FB000030B51349D1F81044CF
:109A30000346002022464AB9DC682071D1F8104460
:109A400084B9C1F81034DB681A600AE0D26815796D
:109A5000854201D01268EEE701300A28EAD14FF0C2
:109A6000FF3030BDE468DA6824681460D1F810244F
:109A7000D2681360F5E700BFC021002038B5084B5D
:109A80000125D3F810441D7004B938BDE3685D7139
:109A9000236820465B689847E3681C68F4E700BFCA
:109AA000C021002010B5037A052B0C460FD0437A55
:109AB00023B1084A0849204601F0B2FF0749204671
:109AC00001F0AEFF2046BDE8104001F09EBF002A25
:109AD000F8D0F3E7804D0200FF650200A24D0200BE
:109AE00073B5C38804460D4633B1144A0092144935
:109AF000144A284601F094FF217A05291CD0637A84
:109B00004BB1A088FFF7F8FD0F4B104953F8202008
:109B1000284601F085FF227A0D4BA08853F8226079
:109B20000021FFF7CDFD0B4903463246284602B01F
:109B3000BDE8704001F074BF02B070BD804D0200FE
:109B40008D4D0200854D02000C4E0200FF650200A3
:109B5000304E0200A54D02002DE9F04385B01F46AE
:109B60000C9D002395F80C902B7306460C469046EE
:109B700029463846FFF7B4FFB8F1060F09D8DFE8E9
:109B800008F00412181F283340003146284601F01F
:109B900047FF002229463846FFF784FF85F80C90DE
:109BA00005B0BDE8F08322683146284601F038FF51
:109BB000EFE7D4E900233146284601F031FFE8E71A
:109BC000A3680093D4E900233146284601F028FF1A
:109BD000DFE7E3680193A3680093D4E900233146EB
:109BE000284601F01DFFD4E723690293E36801933F
:109BF000A3680093D4E900233146284601F010FF02
:109C0000C7E76369039323690293E3680193A36839
:109C10000093D4E900233146284601F001FFB8E75C
:109C200008292DE9F84F80460E4617461C463DD8B8
:109C3000002593F80C901D7319461046FFF750FF4E
:109C4000DFF884A0DFF884B0AE4231D918F80520DF
:109C50005946204601F0E4FE0135082DF4D11C4997
:109C60001C4DDFF874B0204601F0DAFE4FF0000A18
:109C7000564524D918F80A207E2A1ED8511CC9B28C
:109C80001BF8011011F0970F08BF2E221349204630
:109C900001F0C6FE0AF1010ABAF1080FE8D101226B
:109CA00021463846FFF7FEFE84F80C90BDE8F88F99
:109CB0005146204601F0B4FECEE72E22E6E72946C3
:109CC000204601F0ADFEE5E7B54D0200AF4D0200C4
:109CD000B94D0200B74D0200A8700200BB4D020052
:109CE00010B5C307064A4FEA500048BF0901145C8B
:109CF0004ABF0F23F023C9B223401943115410BDAA
:109D00004827002010B5094B1978094B1B68002221
:109D1000914201DC002005E013F83240844202D178
:109D200003EBC20010BD0132F2E700BF6427002040
:109D30006827002070B504460D46FFF7E3FF30B1F9
:109D4000436823B129462046BDE87040184770BDDE
:109D5000034B044819680022490800F053BA00BFB9
:109D600060270020601A002010B5C0B2FFF7CAFFBC
:109D70000446007803F012FA63785A1E53425341A6
:109D8000834208D1044AD2E90032134303D1BDE82B
:109D90001040FFF7DDBF10BD5827002037B543083E
:109DA000374AD35CC2074CBF1B0903F00F030446BC
:109DB0000D46042B25D8DFE803F00326303D410093
:109DC000F9B10121FFF78CFF00230DF107008DF899
:109DD000073000F053FB0122A4F12003C4F120005E
:109DE000284922FA00F002FA03F30343A240D1E922
:109DF000004014431843C1E900409DF8070000F0FB
:109E000061FB03B030BD003918BF01214900204675
:109E100003B0BDE83040FFF763BF49B10321FFF74E
:109E20005FFF0121204603B0BDE83040FFF782BF4D
:109E30000121ECE70029E4D10421E8E709B103217D
:109E4000E5E7FFF74DFF29462046FFF773FF0DF1C9
:109E500007008DF8075000F011FB0122A4F1200348
:109E6000C4F12000074922FA00F002FA03F3034389
:109E7000A240D1E9004024EA020420EA0300BAE744
:109E800048270020582700202DE9F041124E134F9B
:109E900000243378A34208DC114AD2E9003213438C
:109EA00018D0BDE8F041FFF753BF3D6805EBC4088B
:109EB00015F8340003F072F998F801305A1E534235
:109EC0005341181A4142414115F83400FFF766FF2B
:109ED0000134DEE7BDE8F081642700206827002018
:109EE00058270020092AF7B505460C4616463ED9E4
:109EF00003F088F8E8B11F4B1F481D601F4B204F2F
:109F00001C70204B002110221E600AF041FD1E4BE8
:109F100000200021C3E90001013CE4B20326FF2C2C
:109F20000DD11A4A1A48002103B0BDE8F04000F0F4
:109F300057B903F02BF80028DDD003B0F0BD9DF831
:109F4000063015F834008DF8046005EBC40223F0E8
:109F500007038DF8063001A993788DF805303A464D
:109F600003F05AF8013CE4B20028D8D0E5E7072016
:109F7000E3E700BF6827002048270020642700206F
:109F8000699D01006027002058270020899E01005C
:109F9000444E020070B5084D084E00242B789C42B8
:109FA00001D3002070BD3368012113F8340003F0A1
:109FB000AFF80134F2E700BF6427002068270020D3
:109FC0001FB50021039001AA44F20100CDE901115F
:109FD00000F004F805B05DF804FB000038B572B677
:109FE000FFF74CFDFFF7AAFB0028FBD1104B114CEB
:109FF000114D1249E41AE408240444F00100FFF76B
:10A00000E1FCD5F8F030DB0700D500BE0C4944F088
:10A010000200FFF7D7FCBFF34F8FEA68094B02F449
:10A02000E0621343EB60BFF34F8F00BFFDE700BF5B
:10A030009C720200CC72020000ED00E0534E020060
:10A040005F4E02000400FA0510B5D0E90242D1E9E2
:10A050000203A04293412CBF0120002010BD00004C
:10A0600008B50A4800F06FFB094AD2E90031C01870
:10A07000084BD3E9002341F10001904271EB030347
:10A0800003D210F1807041F1000108BD801A002058
:10A09000E0270020D827002037B5284B1D7804463C
:10A0A000002D3FD000283DD0FFF7DAFFD4E902238E
:10A0B000904299413AD300230DF107008DF8073003
:10A0C00000F0DCF923692BB94FF0FF324FF0FF337A
:10A0D000C4E902239DF8070000F0F4F9D4E9053043
:10A0E000984700230DF107008DF8073000F0C6F9FE
:10A0F00023699DF807009BB1D4E90212B2F1FF3F3A
:10A1000008BFB1F1FF3F0BD05B1842F10002C4E978
:10A11000023200F0D7F90A48214602F004FB02E0BF
:10A1200000F0D0F90025284603B030BDB3F1FF3F61
:10A1300008BFB2F1FF3FF5D0EDE700BFE8270020F0
:10A140006C4E020037B505460C460A4801A901F0DD
:10A15000D2FA68B10570446001A9064801F0F5FA29
:10A1600010B9002003B030BD034800F0F1FAF8E761
:10A170000420F7E770270020801A002013B5114B48
:10A1800011491868019008231048582201F07EFAFE
:10A19000044698B90E4A0F4801A900F0B5F90446E3
:10A1A00060B90C48012100F0AFFA01230A4A0948BE
:10A1B000194600F00BFA094B01221A70204602B032
:10A1C00010BD00BF824E02008027002070270020B3
:10A1D000C1A20100801A0020FFFF7F00E8270020B5
:10A1E00030B56AB103684FF0FF344FF0FF355A6164
:10A1F0004A1E5142C3E9024551411961002030BD58
:10A200000720FCE7F7B5044600270DF107001646C6
:10A210000D468DF8077000F031F9D4E90223B3F14F
:10A22000FF3F08BFB2F1FF3F15D1FFF719FF281814
:10A2300041F10001C4E902019DF8070000F042F974
:10A240002369A66103B125612146002003B0BDE862
:10A25000F040FFF777BF9DF8070000F033F938466C
:10A2600003B0F0BD37B5044600250DF107008DF8A9
:10A27000075000F003F9D4E90223B3F1FF3F08BF10
:10A28000B2F1FF3F9DF807000ED04FF0FF324FF0C4
:10A29000FF33C4E9022300F015F92146012003B081
:10A2A000BDE83040FFF74EBF00F00CF9284603B080
:10A2B00030BD0000014800F046BA00BF801A0020FF
:10A2C0002DE9F743074600F028FA40B1634AD2E986
:10A2D000003113F1807341F10001C2E90031002126
:10A2E000384600F02AFA38B15D4C236823B1206863
:10A2F000FFF7D2FE002323600121384600F01DFA4B
:10A3000020B1FFF7ADFE574BC3E900015648544E4C
:10A3100001A901F02AFA4FF0FF344FF0FF35A0B940
:10A32000DFF848814E4C404602F013FA002800F056
:10A330008A80D0E90223B3F1FF3F08BFB2F1FF3FAB
:10A3400036D1404602F0FFF9EDE70378012B21D02A
:10A35000022B09D1DFF81481404602F0F4F920BB4A
:10A36000434B01221A700CE05BB94168D1E902232A
:10A37000B3F1FF3F08BFB2F1FF3F02D03B4802F00C
:10A38000D2F901A9384801F01BFA01A9364801F0B9
:10A39000ECF9C4E741683368994202D10023336085
:10A3A000EFE7324802F0D8F9EBE7C0E90245D3E71E
:10A3B000216891B12168D1E9020182428B412CD2FE
:10A3C0002368D3E90223B3F1FF3F08BFB2F1FF3F97
:10A3D00003D02168404602F0A6F9404602F0B3F9E6
:10A3E000D0E902590646FFF73BFE281A69EB01093E
:10A3F000012879F1000915DBB0F5350F10D3FFF70F
:10A4000059FF1C4A02441C484FF49603002100F0F7
:10A4100001F978B9236893B1266003B0BDE8F083F1
:10A420002A46F0E71448002100F07CF93046FFF797
:10A4300033FE01E00D28F9D00023236073E738468E
:10A4400000F0BCF8E8E7064B1B68002BE5D1384666
:10A4500003B0BDE8F04300F0B5B800BFE02700202E
:10A46000EC270020D8270020702700206C4E020027
:10A47000E8270020FFFFB400801A002070B5EFF33A
:10A48000108672B60C4A9468012384B993600B4B12
:10A490000B4DD3F8801029401160C3F88050D3F8D9
:10A4A000841051604FF0FF32C3F8842023460370BC
:10A4B00006B962B670BD00BFF027002000E100E0E1
:10A4C000FC06FFBD10B5084B9A685AB150B9EFF3BE
:10A4D000108172B6054A1C6814605C68546098600C
:10A4E00001B962B610BD00BFF027002000E100E016
:10A4F0000346405882B028B100225A505B5801935D
:10A50000019B012002B0704770B5244B4579244E61
:10A5100043F825200446234B234806EBC505C01A03
:10A52000C30818042B7933B140F002001F49FFF72C
:10A5300049FA082070BD23680A88C3F8082594F9F1
:10A5400004308A78002B4FEA4212ADBF03F160431A
:10A5500003F00F03164903F56143B9BFD2B2CA54E1
:10A56000D2B283F8002394F90430002B08DB0122D7
:10A57000590903F01F0302FA03F30E4A42F821308F
:10A58000637906EBC3020121117140F003000A490F
:10A5900046F83340FFF716FA0020CBE704280020E6
:10A5A000FC2700209C720200DC720200864E020032
:10A5B00014ED00E000E100E0A84E02000368012273
:10A5C0001A607047036801225A607047F7B5046843
:10A5D0004FF480358D40C4F808530468C4F84853DC
:10A5E00001F15004A4000668A4B200273751345981
:10A5F0000194019C046801F5A87122F07F4244F89F
:10A6000021200268C2F8445313B10368C3F804530D
:10A6100003B0F0BD2DE9F34799464FF48038036845
:10A6200008FA01F8C3F848830368C3F8088322F0E6
:10A630007F4502680E46D2F8041502EB860206F149
:10A640005007D2F84035C2F84015BF000268BFB2CB
:10A650004FF0000A42F807A05B1AD259009223F08B
:10A660007F43012B009A04460BD1264B4FF48060A8
:10A6700043F001039847236843F807A0DB5901938F
:10A68000019B2368D3F80475C3F84483EB1B23F0C4
:10A690007F43012B06F5A876236819D1013543F8CD
:10A6A0002650184B4FF4806043F00103984723680D
:10A6B000D3F804359F4209D12368C3F84483236843
:10A6C0000020C3F8048302B0BDE8F0870D20FAE74C
:10A6D00043F826502068D0F804156A1A013AC9F1E7
:10A6E000FF1322F07F4203F57F439342EED3002A0B
:10A6F000E2D1013540F826502368D3F80435994259
:10A70000D9E700BFC04E020002680223C2F84433FA
:10A7100011B10268C2F80433704700684FF48271C7
:10A72000FFF7E6BE4FF4803303FA01F10368C3F884
:10A7300048130368C3F80813704750318900006854
:10A7400089B2FFF7D5BE0368D3F80405704700004F
:10A7500090F90430002B09DB5A09012103F01F0393
:10A76000994002F14003024A42F82310704700BFAB
:10A7700000E100E0024B034A1B681068184700BF65
:10A7800004280020FC27002070B5064E0546002452
:10A7900056F8043B0BB1284698470134042CF7D1F6
:10A7A00070BD00BF082900204388033300EB8303FA
:10A7B00099420BD382884FF6FF739A4208D00388E0
:10A7C00033B18068431C584258417047022070479B
:10A7D0000120704768B10268084B9A4209D140686D
:10A7E000074B984207D0013398420CBF0120032049
:10A7F0007047032070470020704700BFDEC0ADDE09
:10A80000FE011EF1C21C92B240F2FE339A4230B5F4
:10A810001ED8124B187838B91C895D892C44144411
:10A82000A4B2B4F5806F0AD9187DA0B9988BDC8BDF
:10A830002044104480B2B0F5806F0CD8012008800D
:10A84000142101FB0033002059890A445A8130BD8C
:10A8500048F20860FBE748F20660F8E7402800206D
:10A860000B4A0C495388142000FB0311CB6833B901
:10A870000420496810700122074801F0A3BB074972
:10A880000523137002238B80012209680023F3E75C
:10A8900028280020402800204C21002038280020B3
:10A8A00007B5002305490093054A096805480823B0
:10A8B00001F0E0FA03B05DF804FB00BF3828002087
:10A8C000D44E02004C21002007B50023014600931E
:10A8D000034A0448082301F0CDFA03B05DF804FBF5
:10A8E000CC4E02004C21002013B500230C460093EF
:10A8F0000146084A0848042301F0BCFA38B9074960
:10A90000142202FB041101230B7402B010BD48F2A3
:10A910000D60FAE7C84E02004C21002040280020BC
:10A9200037B50A480A4B42689C8819685388032542
:10A93000033305709BB2002000909B0001EB840163
:10A94000044801F097FA03B030BD00BF282800206A
:10A95000382800204C21002010B50146044800F0A2
:10A96000CAFE1C22044600210AF012F8204610BD3F
:10A97000682800202DE9F0410D460223154F2B8059
:10A98000164600F5805100F108044FF001088C4292
:10A990000ED2236801330BD02046FFF705FF48B1E4
:10A9A0000EB186F80080022809D14FF480632B8015
:10A9B000BDE8F081A3683A68934200D93B602B88D8
:10A9C0006288033313442B806388033304EB8304CE
:10A9D000DDE700BF0429002038B5144B14220D46D2
:10A9E00002FB00335C682B6804F58051A3B15C88DE
:10A9F000033403EB84048C4215D22368013312D054
:10AA00002046FFF7D1FE012808D002280BD00028ED
:10AA1000F1D12C60012038BD0834ECE763880333A2
:10AA200004EB8304E7E70020F5E700BF402800209F
:10AA3000F7B5436805460E461BB1244AD1688B42E0
:10AA400006D200240027022C34802BD1002022E0E3
:10AA500012699342F5D813F00304F2D11C4A01891C
:10AA600012899142EED101689A689142EAD119495E
:10AA70004A68934203D902F5805293420DD38A6902
:10AA800093420CD902F58052934208D201233380BD
:10AA9000B4FA84F0400903B0F0BD2346F7E748F26A
:10AAA0000964F5E7019701A92046FFF795FF10B962
:10AAB0000134A4B2C7E7019B2A6899689142F2D198
:10AAC0006B60034B1B892B81E5E700BF4C21002005
:10AAD00028280020402800202DE9F0471C46204B64
:10AAE0001B78074688461646002B33D0002A34D000
:10AAF000002C32D0DFF86C904FF0140AA588012D9D
:10AB000002D948F2096023E00AFB05F319F8033083
:10AB10002BB921462846FFF75FFF18B920600135A1
:10AB2000A580EBE723681FB199883A889142F0D15C
:10AB3000B8F1000F04D01988B8F800209142E8D18C
:10AB40009B68336023687360074B1B893381002047
:10AB5000BDE8F08748F20160FAE748F20460F7E7E1
:10AB600020290020402800202828002008B5074B75
:10AB70005888191DFFF730FF18B1BDE80840FFF7EE
:10AB8000CFBEBDE80840FFF76BBE00BF28280020FD
:10AB90002DE9F0479D4FDFF8788288B006463B6884
:10ABA00023B99C48414600F0E0FD38603D682978B3
:10ABB0004B1E052B00F21481DFE813F00600650040
:10ABC0006500090109017B014EB1934B00215960D9
:10ABD000142203A809F0DCFE4FF4064407E12B79A8
:10ABE000032B1CD8DFE803F01402313C8B4A1378A6
:10ABF000022B1ED0137D022B4FF001031BD1142119
:10AC00004B43D1180020D0544868FFF75DFE03E0A5
:10AC100001232B71FFF744FE002800F0D2807E4B09
:10AC20000021142203A8596048F20D6409F0B0FE17
:10AC3000DDE00023E3E7784A00211370516014221D
:10AC400003A809F0A5FE0024D1E07549754800234A
:10AC500002222B718A800968012201F0B3F9DBE737
:10AC6000714B6E4C5B886E4A14214B43E1180026F1
:10AC70002E714D6810681560958848600D8102211D
:10AC8000E6549180C1E7B5F814A0AA7DDFF88C9155
:10AC90001423B6B1022A06D903FB0A93EA8819895C
:10ACA00003320A441A811422EB8802FB0A99C3F585
:10ACB0007F43B9F80A10FD330B44A9F80A3000218C
:10ACC00087E703FB0A9318895C6804EB8004062A73
:10ACD00005D8DFE802F0385F4755276B790048F266
:10ACE0000E64AB7D022B07D9142202FB0A92EB887B
:10ACF000118903330B441381142303FB0A99EB8856
:10AD0000B9F80A20C3F57F43FD331344A9F80A308C
:10AD10001422002103A809F03BFE41F61D539C427A
:10AD200091D064E04148424900234360AB6903602D
:10AD3000FFF77EFE014630B9142203A809F028FE71
:10AD400048F2096453E00223AB7500230093042307
:10AD5000EA182146334801F08DF8002831D048F236
:10AD60000D64BEE72B69002B0CBF01230323AB75D9
:10AD70000023009305F10C02042304F10801E9E724
:10AD80000123AB750022EB8800922A699B0004F135
:10AD90000C01DFE7032914BF06230523AB7500234D
:10ADA0000093042305F10802E118D3E70623AB75ED
:10ADB0001F4B19881D4B5868FFF796FD0446002865
:10ADC0008FD108B0BDE8F08741F61D5489E70EB178
:10ADD000142274E72B79012B49D0022B5BD04BB3A3
:10ADE0001422002103A809F0D3FD48F20E643B6849
:10ADF00004941A78023A042A00F21281DFE812F071
:10AE0000F300FF0021012901300100BF24280020A8
:10AE10002028002068280020202900204028002029
:10AE2000382800204C210020282800201428002049
:10AE30001028002002232B71CDE904660DF10A01D0
:10AE4000EB68039303A8FFF7F3FD10B91422314612
:10AE500073E70498BDF80A108388EB8003882B8180
:10AE6000FFF742FD0446002C7FF452AFA9E7DFF85C
:10AE7000F89103AA4B463146A81DFFF72DFE044664
:10AE800060B9B9F804100498FFF72EFD48F2096381
:10AE900098420446E7D114220021D1E60822314627
:10AEA000484609F075FD48F209639C427FF430AFD3
:10AEB000F1E7002E8CD16D4B197B1A78B1B11E735E
:10AEC0001A78013A062A8BD801A151F822F000BF66
:10AED0007BAF0100A1AF0100BFAF0100C5AF010012
:10AEE000E1AD0100CBAF0100DDAF0100072AE7D8DB
:10AEF00001A151F822F000BF19AF0100C1AE01005D
:10AF0000C1AE01003FAF010053AF010077AF0100B8
:10AF100077AF01003BAF01001A89554901321A8110
:10AF200000225A801A730A78B2FA82F252099A728F
:10AF30000A7DB2FA82F25209DA72012207E04D4923
:10AF400058688A884088033202448A8002221A7034
:10AF5000B6E75C88464A4749142505FB0422086881
:10AF6000546850608888108102200C60888000211D
:10AF700011740622EBE70722E9E79A7A32B9DA7A06
:10AF80008AB9002119705980596058E63849002261
:10AF90009A72CA68002AF2D1097C0029EFD05A803F
:10AFA000FFF7E4FD5EE70022DA72314A116A0029F8
:10AFB000E7D192F82420002AE3D00122EFE7FFF73F
:10AFC000AFFC4FE7FFF74CFC4CE75A88284B1421A5
:10AFD00001FB02335868FFF777FC43E700225A6011
:10AFE000FFF75EFC3EE701228DF80C201A89ADF8D0
:10AFF00018209A88ADF81A20DB68059310E0022229
:10B000008DF80C201A89ADF818209A88ADF81A200E
:10B01000DA6805929B7D9A1F534253418DF81C308C
:10B0200003A8FFF7B1FB0026414613483E6000F03D
:10B03000C7FB1248012100F07CFC00287FF4AFAD73
:10B04000BFE603228DF80C20DA88ADF818201A89A3
:10B05000D0E704228DF80C20DB88ADF81830DFE74C
:10B0600005238DF80C30DBE7082800202828002075
:10B070004028002038280020682800201C290020B3
:10B080004068FFF785BD000008B50548012100F0C4
:10B0900038FC18B9BDE80840FFF77ABD08BD00BF0D
:10B0A0001C2900202DE9F74398463A4B1B780646A9
:10B0B0000D46002B62D0002963D009884FF6FF733C
:10B0C000994261D06B88002B5ED06B689B075ED184
:10B0D0004AB92F890DF102013846FFF793FB30B1D1
:10B0E00003B0BDE8F08313885788ADF8023001A89B
:10B0F000FFF732FCBDF80220044650B9264B14215C
:10B1000001FB023358890338C01B588148F207609D
:10B11000E6E74FF0000980F8008080F81690828200
:10B120006B68036101211D4800F0F7FBE0602B888C
:10B1300023816B88A380B8F1030FE78012D1042329
:10B14000A37533681648A361A4F80A9001A900F01A
:10B15000FCFA00237360E268B372124B32601B8901
:10B16000338107E00E48A4F80A9001A900F0EDFA37
:10B17000002EEED1FFF788FF0020B1E748F2016012
:10B18000AEE748F20460ABE748F20360A8E748F294
:10B190000260A5E720290020402800200429002083
:10B1A000682800202828002008B5034607480268C0
:10B1B000042A08D00168064A42F82130012100F033
:10B1C000ACFB002008BD48F20B60FBE7182900200B
:10B1D000082900202DE9F04F774F87B01422002175
:10B1E00001A809F0D5FB3B7803F0FF081BB101A8CB
:10B1F000FFF7CAFA03E0381D00F0A7FB20B10024D6
:10B20000204607B0BDE8F08FD8F8F83F581C4FF043
:10B21000805237D01269DFF8A4916949C9F810301B
:10B220000022A3F540534846C9F80C3000F0F0FD69
:10B2300004460028E4D1634963481C238C2200F0B3
:10B2400025FAA3464FF0030A2546D9F80C605E4460
:10B250003046FFF7BFFA012866D003281BD000282C
:10B260003FD15A4914236B43CA18C854566003F19E
:10B27000100208330A4430461944FFF77BFB44F0C0
:10B2800002044EE04FF010235B691269591C04BFA1
:10B2900030235343BFE733685A1C02D04C4A9342D1
:10B2A00034D1331D06F58052196801312ED1043393
:10B2B0009342F9D1474B1A682AB902221E609A803C
:10B2C0004FF001080BE014236B4340480221C218E1
:10B2D000C154414B56605D8001351181ADB244F0DF
:10B2E00001040BF5805BBBF5405FAED1BAF1010FF5
:10B2F00006D9E4B2062C39D03DD814F0FD0F3AD16E
:10B3000000233B7048F20A647B6079E72F4A1423DC
:10B310006B43D1180AF1FF3A4E600321D1541FFA52
:10B320008AFA0135ADB2DCE72A4BB8F1000F0FD035
:10B33000DFF898C014226A430CEB020102200CF8DB
:10B3400002001A684A60244A088155800135ADB26E
:10B3500022491E6000223046FFF70CFB1D4B9B88E4
:10B36000022B14BF082304231C43BAE701233B70BC
:10B3700000237B603BE76846FFF7EEFAC8B1012384
:10B38000013C03700A2C09D8DFE804F0060806081F
:10B39000070807080F110F000023037169460A48C8
:10B3A00000F0D3F9FFF770FE29E70323F5E7022346
:10B3B000F3E748F2076423E7202900204C2100200E
:10B3C000BC50020078280020682800204028002077
:10B3D000DEC0ADDE38280020282800203C280020D0
:10B3E00073B50D460446C0B1B9B10DF10601FFF7C2
:10B3F0001FFBA8B10C4BBDF806206668142000FBAB
:10B400000230012100F089FA2E6063680C336B6012
:10B410000123A372002002B070BD48F20460FAE775
:10B4200048F20960F7E700BF4C28002013B5044636
:10B43000A8B10DF10601FFF7FBFA98B1BDF806209F
:10B440000B4B142101FB0233DA6872B1A27A62B1AC
:10B45000DA680020013ADA60A07202B010BD48F24A
:10B460000460FAE748F20960F7E748F20560F4E79C
:10B470004028002002230022FFF714BE18B1032346
:10B480000022FFF70FBE48F20460704713B5114B5E
:10B490001B780446ABB14FF6FF73984214D001A855
:10B4A000FFF75AFA98B10523037001230371C48092
:10B4B00001A9094800F049F9FFF7E6FD002002B0B4
:10B4C00010BD48F20160FAE748F20360F7E748F27E
:10B4D0000760F4E7202900206828002007B50F4BFB
:10B4E0001B78A3B101A8FFF737FA98B106230370C0
:10B4F00001A90B4800F029F90A4B1A780AB1012278
:10B500001A73FFF7C1FD002003B05DF804FB48F299
:10B510000160F9E748F20760F6E700BF2029002044
:10B52000682800202828002007B5ADF80600ADF8EF
:10B5300004100DF1060001A9FFF7CEFA03B05DF883
:10B5400004FB07B51346ADF806000A4600200DF1CE
:10B550000601FFF7C1FA03B05DF804FB07B5134617
:10B56000ADF806000A460DF106000021FFF7B4FA17
:10B5700003B05DF804FB20B119B103680B60002033
:10B58000704748F2046070472DE9F0473D4B1B7847
:10B590000446002B6FD0002870D0DFF8EC90122208
:10B5A000002109F0F5F9032323804FF0000A4F46EC
:10B5B00014264FF00108B9F80A30B9F80810D9F884
:10B5C00004001944FFF706F9032808BF238862889E
:10B5D00004BF03F1FF33238006FB0A7389B2DB68E3
:10B5E00013446380B9F80A202389134423816389B3
:10B5F0000B446381C1F58061A38989B28B4238BF56
:10B60000A181D9F8041001F1080501F58051A94282
:10B6100029D92B68013326D02846FFF7C5F8012821
:10B620000AD0022815D00028F1D1A3880133A380C5
:10B630000AE04FF0010ABEE7E3880133E380E389C3
:10B640006A8803331344E3816B88033305EB830576
:10B65000DDE7E38884F810800133E380E389491B48
:10B6600003EBA101E18109F11409BAF1000FE0D067
:10B670000020BDE8F08748F20160FAE748F2046074
:10B68000F7E700BF202900204028002010B561B155
:10B69000B2FBF3F403FB1424A4B244B9C0E90014D0
:10B6A00084608281C381204610BD0E20FCE7092002
:10B6B000FAE782B050E8022FC188B2EB324F4FF068
:10B6C000000317BF92B241EA014142EA014104E09E
:10B6D0004268B2EB324F08BF012340E80212002A51
:10B6E000E8D18DF807309DF80730002B0CBF1120F2
:10B6F000002002B0704737B550E8013F9DB2C489C1
:10B7000025448489A54228BF2D1B0489A54202BF78
:10B71000BFF32F8F002207E0C5EA030540E801547C
:10B72000002CE9D14FF001028DF803200193019A1A
:10B730000A609DF8031001F0FF0321B1006810FAC0
:10B7400082F003B030BD1846FBE70A884B889A4266
:10B7500009D150E8012FC2EA024240E80123002B40
:10B76000F7D1012070470020704737B550E8023FFD
:10B770001FFAA3F5C488A54202BFBFF32F8F002292
:10B780000DE0C48925448489A54228BF2D1BC3EA46
:10B79000054540E80254002CE8D14FF001028DF835
:10B7A00003200193019A0A609DF8031001F0FF0342
:10B7B00021B1006800EB124003B030BD1846FBE732
:10B7C0000A884B889A4209D150E8022FC2EA2242E5
:10B7D00040E80223002BF7D101207047002070477A
:10B7E00001F01F024B090121914000EB830000F0A2
:10B7F00064B84B0910B501F01F040121A14000EB12
:10B80000830000F04EF8E04000F0010010BD01F0B0
:10B810001F0301229A404B0900EB8300D14300F043
:10B8200064B84B0901F01F0150F82300C84000F034
:10B83000010070472DE9F0474F1E7F0980460E46F4
:10B840000137002558F8254008EB8509E44394FAB0
:10B85000A4F4A4B1B4FA84F44FEA451A5444A642BD
:10B860000DD921464046FFF7C4FF60B1D9F800402A
:10B87000E44394FAA4F414B1B4FA84F4EEE7013585
:10B88000BD42DFD334462046BDE8F08710B50346FD
:10B8900053E8000F0A4643E8002494F0000FF7D164
:10B8A00010BD10B5034653E8000F40EA010243E81B
:10B8B000002494F0000FF6D110BD10B5034653E8F4
:10B8C000002F42EA010043E8000494F0000FF6D193
:10B8D00010BD10B5034653E8000F00EA010243E82B
:10B8E000002494F0000FF6D110BD10B5034653E8C4
:10B8F000002F02EA010043E8000494F0000FF6D1A3
:10B9000010BD10B5034653E8000F00EB010243E8F9
:10B91000002494F0000FF6D110BD10B5034653E893
:10B92000002F02EB010043E8000494F0000FF6D171
:10B9300010BD10B5034653E8002FA2EB010043E809
:10B94000000494F0000FF6D110BD0121FFF7A9BF4C
:10B950000121FFF7B2BF0021FFF7BBBF10B590B1C7
:10B96000D0E9012301689B1ADBB20A60013BDBB21C
:10B97000FF2B026802D10020107110BD11684C1C11
:10B9800014600B70F2E70E20F7E737B50446002588
:10B990000DF107008DF80750FEF770FD2268616811
:10B9A00013688B4210D9591E1160216813F8010CDD
:10B9B000258AE368A2680C68121B0C79D2B2944203
:10B9C00038BF0A7105FB00359DF80700FEF77AFDC8
:10B9D000284603B030BD37B5054600230DF10700FA
:10B9E0000C468DF80730FEF749FD2A681368591C8C
:10B9F0001160EA68A41A2A8AB4FBF2F41C709DF85C
:10BA00000700FEF75FFD03B030BD10B58268044645
:10BA10002AB143690168006998470023A36010BDFB
:10BA20000EB403B5039921B104AB01AA019300F050
:10BA300077F802B05DF804EB03B070470A2938B517
:10BA400004460D4602D10D21FFF7F8FFA3682268D6
:10BA5000591CA160D554D4E901329A4204D320463E
:10BA6000BDE83840FFF7D1BF38BD00002DE9F84FE1
:10BA70009946DDE90A431546824688460A4601276B
:10BA8000AA420FD24F4538BF4F4613F0010B01D1E8
:10BA900064B900240126B9F1010F1CD909F1FF395D
:10BAA0006E43F8E70137B2FBF5F2E9E79B0710D5E3
:10BAB000B9F1000F14BF20263026BC42EAD9013C60
:10BAC00031465046FFF7BAFF002CE2D0BC42F6D117
:10BAD000E0E72026F1E7B8FBF6F39D42E0D9DFF876
:10BAE0003C90B8FBF6F3504619F8031006FB138898
:10BAF000FFF7A4FF3346AB42B6FBF5F6F1D2BBF13C
:10BB0000000F00D034B9BDE8F88F20215046013C29
:10BB1000FFF794FFBC42F8D8F5E700BFDC4E020007
:10BB20002DE9F74F064617468846002900F06C813C
:10BB300018F8011B49B9337B002B00F065813046B2
:10BB400003B0BDE8F04FFFF760BF252940F09380B8
:10BB5000002598F800102D29424608F1010806D06A
:10BB6000302907D02B2908D145F00405F1E745F02D
:10BB70000105EEE745F00205EBE72A2943461AD115
:10BB80003B681A1D3A601C68424613782E2B21D15F
:10BB900001324FF0000A4FF00A0C104610F8011B5A
:10BBA000A1F1300EBEF1090F16D80CFB0A11A1F15C
:10BBB000300A0246F1E7002413F8011CA1F130001D
:10BBC0000928E2D80A2202FB0411A1F130041A4626
:10BBD0000133F1E74FF0000A12F8011B01F0FB00FE
:10BBE00068289046F8D0782909D86F290CD863299D
:10BBF0003DD021D825293ED0582900F0B18098F8B1
:10BC00000030002B94D196E770390829F7D801A2AB
:10BC100052F821F0DBBD0100FFBB0100FFBB0100BA
:10BC200071BD0100FFBB01004FBD0100FFBB010062
:10BC3000FFBB010061BD0100642901D06929DED18B
:10BC40003A68111D3960D2F800B08BEAEB72A2EBB2
:10BC5000EB724FF001090A21092A10DCD14538BFE7
:10BC6000D1468CB90024BBF1000F25DA4BE03B68CC
:10BC70001A1D3A6019783046FFF7E0FEBFE709F178
:10BC80000109B2FBF1F2E7E7BBF1000F05F0020298
:10BC900025DB680750D452B9E90740F1B18005F0BF
:10BCA0000302022A3FD1BAF1000F3CD10CE0BAF1F5
:10BCB000000F05D0EA0717D569072AD52B2125E003
:10BCC00005F00302022A2ED1A1452CD2013C3021DD
:10BCD0003046FFF7B3FE2CB3A145F7D123E0013C7A
:10BCE00072B9EB070FD474B14C45BCD9013C20218B
:10BCF0003046FFF7A3FE002CB4D0A145F6D1B2E741
:10BD0000BAF1000FEDD1CBF1000B2D213046FFF73A
:10BD100095FE05F00302022A05D1BAF1000F02D107
:10BD2000002CD1D10024CDE9004553460A225946C2
:10BD30003046FFF79BFE62E7013C22B9E807BBD41F
:10BD4000002CD1D1B8E7BAF1000FB5D0F6E73968C9
:10BD50000A1D3A60CDE9004553460A220968E7E723
:10BD600039680A1D3A605346CDE900451022F5E7CF
:10BD70003B681A1D3A6015F00105D3F8009024D1F4
:10BD8000B9F1000F03D0484608F03CFE0546AC422E
:10BD90001DD809F1FF3919F8011F00293FF42FAF11
:10BDA0003046FFF74BFEF6E730460135FFF746FE1B
:10BDB00019F805100029F7D1A542BFF420AF2021C2
:10BDC0003046013CFFF73AFEF6E70025F0E7202178
:10BDD0003046013CFFF732FED9E73B681A1D3A6056
:10BDE000302130461C68FFF729FE78213046FFF7E6
:10BDF00025FE00220823CDE900322146102297E7D4
:10BE00004C453FF673AF57E703B0BDE8F08F00BF76
:10BE100013B50B46114680B9104B1148114AC01A90
:10BE20000E23C0080093104B0004104940F001009D
:10BE3000FDF7DFFD0E2002B010BD4BB9074B0848DF
:10BE40000B4AC01AC0080E2300930004064BECE70F
:10BE500003601B6802B0BDE8104018479C720200E6
:10BE600014730200EC4E02009B500200F14E0200DF
:10BE7000204F02002DE9F34188B9464B4648474A16
:10BE8000C01A0E23C0080093454B000440F0010087
:10BE90004449FDF7AEFD0E2002B0BDE8F0814AB97D
:10BEA0003C4B3D48404AC01AC0080E230093000492
:10BEB0003B4BEBE7D0F800E0BEF1000F0FD1354B64
:10BEC00035483A4A3749C01AC0080824000440F0EF
:10BED0000100334B0094FDF78CFD2046DCE77BB975
:10BEE0002C4B2D48324AC01A0923C00800932C4B12
:10BEF000000440F001002B49FDF77BFD0920CBE752
:10BF00004768D7F80480B3FBF8F708FB17374FB141
:10BF1000204B2148274AC01AC00809230093000477
:10BF20001F4BE6E78F070FD01A4B1B48224AC01A57
:10BF30001023C00800931A4B000440F00100194977
:10BF4000FDF757FD1020A7E712F0030F09D0114BA2
:10BF500011481A4AC01AC008102300930004104B5D
:10BF6000EBE7C768B9420BD305694C1E1C44AC42D1
:10BF700006D8DEF80C40A44602B0BDE8F0416047A8
:10BF8000044B05480E4AC01AC00810230093000451
:10BF9000034BD2E79C72020014730200EC4E0200C5
:10BFA00088500200F14E02006E4F02001A4F02004C
:10BFB0002D4F0200744F02009E4F0200B64F020048
:10BFC000D94F0200F7B580B92D4B2E482E4AC01A22
:10BFD000C0080E242D4B009400042D4940F00100B0
:10BFE000FDF707FD204603B0F0BDD0F800C0BCF15E
:10BFF000000F09D1224B2348264AC01AC008082442
:10C00000224B00940004E8E74AB91D4B1D48224A20
:10C01000C01AC00809241D4B00940004DDE74768DE
:10C02000D7F800E00EF1FF370F420FD0144B154840
:10C030001A4AC01A1023C0080093144B0004144974
:10C0400040F00100FDF7D5FC1024CBE7C768B942EA
:10C050000CD305694C1E0EFB0244AC4206D8DCF83A
:10C060001040A44603B0BDE8F0406047044B0548CB
:10C070000B4AC01AC008102300930004034BDEE7EC
:10C080009C72020014730200EC4E02007550020014
:10C09000F14E02001A4F02002D4F02000050020024
:10C0A0002650020029DF704728DF704770B5066808
:10C0B000B36886B004460D4673B114220021684669
:10C0C00008F066FCA36805932379019533B1012B31
:10C0D0000ED0B3686846984706B070BD01238DF84E
:10C0E000003023690293E368039363690493F0E7E4
:10C0F00002238DF80030E3681B030293F5E708463E
:10C100007047002070470000024B187A003818BFB3
:10C110000120704730290020034B187A0122B0FA21
:10C1200080F05A74400970473029002008B5104645
:10C130001A4608F059FC002008BD000008B514227A
:10C140000021044808F024FC0348FFF7B2FA00205D
:10C1500008BD00BF302900204429002010B5094C3B
:10C16000094B43602046FFF7F0FB40B908F086FA20
:10C17000064920741C2306488C22FFF787FA00200A
:10C1800010BD00BF30290020DC50020054290020DF
:10C190004429002038B5234C234D237A3BB9234949
:10C1A0002348FFF7E2FA286008B9606038BD02232F
:10C1B00023722B681A7972B1012A24D028680321CE
:10C1C000FFF774FF002323726360BDE8384017490E
:10C1D0001748FFF7F5BAD3E90520121AB2F5805FC8
:10C1E000D3E9031328BF4FF480529208012A014477
:10C1F00038BF01221844FFF755FF50B11128DDD197
:10C2000001232372D2E7D3E903031844FFF74CFF5D
:10C21000F3E7237C002BC9D1BDE83840022000F0B1
:10C2200009B800BF302900202C290020282900202F
:10C230004429002038B5244C237A0246002B41D0F3
:10C24000022B09D1032826D0204B18680023E36075
:10C2500003793BB1012B18D0637C7BBBBDE8384030
:10C26000FFF798BFD0E90513CD1AB5F5805F94BFED
:10C270005B1903F5805383619942EDD10023022AB3
:10C28000237214BF0D21194611E00369416901337E
:10C2900003618B42F1E7E3680133082B01D8E360C7
:10C2A000DAE70023E3602372084B18680D21FFF7DB
:10C2B000FDFE07490748FFF783FACDE7BDE83840A0
:10C2C00008F0CCB938BD00BF302900202C2900204F
:10C2D0002829002044290020831E012B01D8FFF7C4
:10C2E000A9BF704700F0FD03012B08D1044B0022C9
:10C2F0005A74421E504250411874FFF74BBF7047AA
:10C300003029002008B50648FFF71FFB30B9054B60
:10C310005B7C1BB9BDE80840FFF73CBF08BD00BF10
:10C3200034290020302900202DE9F34180460D46B4
:10C330000F4801A916461F46FFF7DDF90446A8B1CC
:10C340001C22002108F024FB2D0B0123237101A9DD
:10C350000748C4F80080A760E5606661FFF7F5F95B
:10C36000FFF7D0FF002002B0BDE8F0810420FAE71B
:10C37000442900202DE9F74381468846104801A949
:10C3800017461E46FFF7B7F90446B0B11C2200213C
:10C3900008F0FEFA00250A9BA36001A9C4E903780E
:10C3A00007482571C4F800906661FFF7CEF9FFF7E2
:10C3B000A9FF284603B0BDE8F0830420FAE700BFD8
:10C3C000442900202DE9F84FB0F806A04579D2F8AD
:10C3D00000B09DF828900AFB05F5043D88460BEB5C
:10C3E0000301A94203F1040488BFA5EB030BB4FBCE
:10C3F000FAF607460AFB1644C2F800B04EB9AAEB9B
:10C4000004055D4528BF5D46BBF1000F04D1BDE8C2
:10C41000F88F3F68013EF1E7043408EB06003C4426
:10C420002A46B9F1000F0DD02146ABEB050B08F001
:10C43000DBFADA452E443F6855464FF0000428BF2A
:10C440005D46E1E701462046EFE7FFF787BAF8B51A
:10C4500046790146721E0546002393422D6803D398
:10C460000024A64202D8F8BD0133F6E70F6828463B
:10C47000FFF7B1FA01343946F3E72DE9F041CD1C5D
:10C48000078A0646FFF781FA043F3D440446B5FBA0
:10C49000F7F5D0B14FF48073EDB2C7808380013DD2
:10C4A000066080460027AF4210D23046FFF76DFA93
:10C4B00040B16379013363710137C8F80000066049
:10C4C0008046F0E72046FFF7C2FF00242046BDE883
:10C4D000F08101210430FFF720BA10B50121044694
:10C4E0000430FFF726FAC0B220B92046BDE810405C
:10C4F000FFF7ADBF10BD1FB503920022009203AA43
:10C50000FFF760FF05B05DF804FB1FB50392012241
:10C51000009203AAFFF756FF05B05DF804FB41DF68
:10C5200070470000064B10B500241C70054B1C60C2
:10C53000BFF35F8F0449054800F0E0F8204610BDC6
:10C54000E8290020EC290020E8500200E029002022
:10C5500008B508F093F818B1BDE80840FFF7DFBF51
:10C5600020BF40BF20BF08BD0268136851688B42DE
:10C5700083BF826801325218C81A88BFD01A704728
:10C58000036881681A685B688B4234BF01330023FB
:10C59000D31A58425841704773B5002304460DF131
:10C5A00007000D468DF80730FDF768FF2046FFF7BE
:10C5B000E7FF10B1237C002B44D12268A1685668A4
:10C5C00053688B4234BF01330023536038B1226873
:10C5D000A16813688B4234BF013300231360E26803
:10C5E0006368511E072925D8DFE801F004152419D6
:10C5F0002424241D2A789A552046FFF7B5FF236886
:10C600009A6882421CD300249DF80700FDF75AFF68
:10C61000204602B070BD2A8823F81620ECE72A686D
:10C6200043F82620E8E7D5E9000103EBC603C3E998
:10C630000001E1E7294602FB063008F0D5F9DBE707
:10C640009860E0E70424DFE7036818685B68C31AB2
:10C6500058425841704773B5002305460DF1070055
:10C660000C4616468DF80730FDF708FF2846FFF701
:10C67000EBFF002832D12B6819682EB91A68A86818
:10C68000824238BF561C1E60EA686B68501E07283D
:10C690001ED8DFE800F0040E1D121D1D1D165B5C88
:10C6A000237000249DF80700FDF70CFF204602B020
:10C6B00070BD33F811302380F3E753F82130236045
:10C6C000EFE703EBC103D3E90023C4E90023E8E764
:10C6D00001FB0231204608F087F9E2E70524E1E793
:10C6E0008268002393608268136182685361826864
:10C6F000D3608268536082681360704701600B6882
:10C7000043604A68934208BF002343607047436810
:10C7100043B1026891680B4443605268934204BF7E
:10C7200000234360704770B5446806460D46206894
:10C7300018B1B3682946984718B923682B6025605B
:10C7400070BD2468F3E74368186808B102681A608E
:10C7500070474368186870474368186800B97047A5
:10C76000884203D102681A600120704703460068BE
:10C77000F4E7000010B50B4AA2F594739A4201D871
:10C7800000200CE0D11A091103EBC10453F8311059
:10C79000814205D802D204F10803EFE7606810BDBA
:10C7A0002246EBE7E855020008B5FFF7E3FF024B2E
:10C7B000002808BF184608BDE8550200BFF34F8F98
:10C7C0000549064BCA6802F4E0621343CB60BFF32D
:10C7D0004F8F00BFFDE700BF00ED00E00400FA0549
:10C7E0004FF0704393F8E02F062A09D1D3F8E83FC1
:10C7F000C3F30313033B042B02D8024AD05C7047F7
:10C80000002070470A5602004FF08053D3F83001E1
:10C81000421C04BF4FF0704393F8E00F062804D089
:10C82000A0F10A03584258417047012070470000A8
:10C83000024AD2F80034002BFBD0704700E00140E0
:10C8400010B54FF08053D3F830315C1C04BF4FF06B
:10C85000704393F8E03F062B08D14FF08053A14A74
:10C86000D3F82433C3F30423C2F84035FFF7B8FFED
:10C8700010B19D4B9D4A5A67FFF7C6FF48B14FF074
:10C8800080534FF08042D3F84432C3F34233C2F8AE
:10C890003C35FFF7A5FF30B1954AD2F8FC3023F0C4
:10C8A0008073C2F8FC30FFF7AFFF40B14FF0804318
:10C8B0000022C3F80C21C3F81021C3F83825FFF774
:10C8C0008FFF20B14FF080430322C3F8A025FFF76C
:10C8D00087FF60B1874B0522C3F810260122C3F8F9
:10C8E00088260022C3F818263F22C3F814264FF0EA
:10C8F0008053D3F83021501C09BF4FF07043D3F858
:10C90000343193F8E02FD3F8E83F08BFC3F30313A3
:10C91000062A4ED1033B042B03D8774AD35C002B65
:10C9200049D04FF08052754BD2F80414C3F820154B
:10C93000D2F80814C3F82415D2F80C14C3F828153B
:10C94000D2F81014C3F82C15D2F81414C3F830150B
:10C95000D2F81814C3F83415D2F81C14C3F84015D3
:10C96000D2F82014C3F84415D2F82414C3F848159B
:10C97000D2F82814C3F84C15D2F82C14C3F850156B
:10C98000D2F83014C3F85415D2F83414C3F8601533
:10C99000D2F83814C3F86415D2F83C14C3F86815FB
:10C9A000D2F84014C3F86C15D2F84424C3F87025AB
:10C9B00001E00A2AB5D04FF08053D3F83031591C2A
:10C9C00004BF4FF0704393F8E03F062B09D14FF0BE
:10C9D00080534FF08042D3F8583203F04F03C2F82F
:10C9E000E43EFFF711FF48B14FF08043D3F8002435
:10C9F000D20744BF6FF00102C3F800244FF0805308
:10CA0000D3F83021062A0ED1D3F83431033B042B5E
:10CA100002D83B4AD35CBBB13A4AD2F83C3743F424
:10CA20008063C2F83C374FF08053D3F830210A2A94
:10CA30000AD1D3F834313BB14FF08042D2F8E43E12
:10CA400043F00F03C2F8E43E4FF08053D3F8302197
:10CA5000062A0FD1D3F83431033B042B02D82A4ADB
:10CA6000D35C3BB14FF01023D3F808224FF0804342
:10CA7000C3F858254FF01021D1F80032002B03DB0A
:10CA8000D1F80432002B17DA204901234FF010208F
:10CA9000C1F804351524FFF7CBFEC0F80042FFF7BC
:10CAA000C7FEC0F80442FFF7C3FE0023C1F80435F7
:10CAB000FFF7BEFEFFF782FED1F80C32DB070DD583
:10CAC00012480123C0F804350024FFF7B1FEC1F875
:10CAD0000C42FFF7ADFEC0F80445E9E70C4B0D4AE8
:10CAE0001A6010BD0030014000C007400DF0ADBA23
:10CAF00000ED00E0005000400556020000C000407C
:10CB00000056020000100040FB55020000E001400A
:10CB1000881A00200090D003054A4FF0A043125C11
:10CB2000D3F8043523FA02F0C04300F00100704747
:10CB300013560200044B1A5C012393404FF0A042AD
:10CB4000C2F80C35704700BF13560200044B1A5C44
:10CB5000012393404FF0A042C2F80835704700BF50
:10CB60001356020008B50020FFF7F0FF0120FFF781
:10CB7000EDFF0220FFF7EAFFBDE808400320FFF7C2
:10CB8000E5BF08B50020FFF7D5FF0120FFF7D2FF72
:10CB90000220FFF7CFFFBDE808400320FFF7CABF20
:10CBA000074A4FF0A041105CD1F8043501228240C1
:10CBB00022EA03001340C1F80805C1F80C3570479C
:10CBC00013560200054A4FF0A043125CD3F810350B
:10CBD00023FA02F0C04300F0010070470F56020034
:10CBE0000D2809D00E2809D00F2809D0102814BF0D
:10CBF0004FF0FF300320704700207047012070473E
:10CC000002207047014B185C704700BF0F560200AE
:10CC1000C20708B501460CD54FF0A0430322C3F864
:10CC20004427C3F84827C3F84C27C3F85027FFF719
:10CC300099FF8B070AD54FF0A0430C22C3F8342785
:10CC4000C3F83827C3F83C27C3F8402708BD0000C5
:10CC500038B5074C051E04F1080318BF1C462368AD
:10CC60002BB11A6822605B6828469847F7E738BD01
:10CC7000F829002020B9054B01225A70FFF7E8BFC0
:10CC8000012802D1014A9070F8E77047F02900208E
:10CC900020B9034B01225A70FFF7DABF704700BF7B
:10CCA000F029002038B50E4C2378B3B90D486360E5
:10CCB000A3602361E36000F0E7F8054607F0DEFCBF
:10CCC00008B900F0EDF801232370074BD3F80034C6
:10CCD0000BB10123A370284638BD8525F5E700BFB9
:10CCE000F029002075CC01000000014037B50D4C43
:10CCF00000230DF107008DF80730FDF7BFFBE36857
:10CD0000013BE360E36833B9074BD3F8005415B92E
:10CD100000F0D8F8A5709DF80700FDF7D3FB03B02D
:10CD200030BD00BFF029002000000140012813B5EC
:10CD30000CD0032820D038B9134B0122C3F880202F
:10CD4000BFF34F8FBFF36F8F02B010BD0F4C0023A6
:10CD50000DF107008DF80730FDF790FB23780BB934
:10CD6000FFF7A0FFE3689DF807000133E3600123AC
:10CD7000A370FDF7A7FBE7E700F092F802B0BDE86B
:10CD80001040FFF7B3BF00BF00E100E0F029002032
:10CD90001FB503788DF800304368019383688DF8E0
:10CDA0000830C368054A0393054B684653F82130A1
:10CDB00052F82110984705B05DF804FB082A0020BE
:10CDC0000C2A00201FB503788DF8003043680193CA
:10CDD00083688DF80830C368054A0393054B68469D
:10CDE00053F8213052F82110984705B05DF804FB44
:10CDF000082A00200C2A0020F0B5194B90F800C03A
:10CE000091F81DE043F82C20164B16460A6943F8AA
:10CE10002C20154B0C4603F80CE007460FCC89B0CC
:10CE20006D460FC594E80F0085E80F00CDF810C0DF
:10CE3000BEF1000F09D0002E0C4A694608BF3246E9
:10CE4000381D00F065FF09B0F0BD002E084A6946A4
:10CE500008BF324607F10C0000F02AFDF3E700BFDF
:10CE60000C2A0020082A0020042A002091CD01006D
:10CE7000C5CD010000F18040002382B0036003684B
:10CE80000193019B02B07047044B0246187918B910
:10CE90001A6001229A80704785207047102A00206E
:10CEA000074B1A68D20704D4C02283F8002301225A
:10CEB0001A604FF080430122C3F81825704700BF65
:10CEC00000E100E04FF0804208B50223C2F80833C9
:10CED0004FF48270FFF7CEFF0123D360D2F81834ED
:10CEE000DB03FBD408BD000010B54FF08041D1F842
:10CEF000003163B14FF48070FFF7BCFF01220D4B8E
:10CF0000C1F80823587910B95A711B6898474FF037
:10CF10008042D2F8043163B14FF48270FFF7AAFF68
:10CF20000223C2F80833034BBDE810401B68012000
:10CF3000184710BD102A002000F1804000F5C040C5
:10CF4000002382B0036003680193019B02B0704725
:10CF5000800000F1A040D0F8003723F44033C0F83F
:10CF60000037D0F8003743EA0143C0F80037704774
:10CF7000054B4FF0FF32072843F8202084BF1B18D1
:10CF800083F84820704700BF182A002010B5194CBC
:10CF900094F858305BBB4FF0FF3204F1300122FAB5
:10CFA00003F0C00748BFCA540133202BF7D100213A
:10CFB000C8B20131FFF7DCFF0C29F9D104220021AE
:10CFC0000D4807F0E5FC0D4BC02283F806234022F4
:10CFD0001A604FF4BE70FFF7AFFF094B4FF00042ED
:10CFE000C3F80423012384F85830002010BD082022
:10CFF000FCE700BF182A00206C2A002000E100E0B6
:10D0000000600040034B93F85800003818BF01201F
:10D01000704700BF182A0020F0B53B4E331893F933
:10D020003030002B6DDA8F78C7F34007002F15BF23
:10D03000002308234FF0080C4FF00C0C634501D17E
:10D040000420F0BD56F8235001354FEA830442D145
:10D0500006EB000C5DB246F823208CF8305017B96F
:10D06000334483F848008B785F0716D4DA0734D549
:10D07000830003F1A043D3F8002722F00202C3F893
:10D080000027224FC20800F0070C012303FA0CF31B
:10D0900017F802C043EA0C03BB548B780A789B074D
:10D0A00024D504F1804303F5C0430002D3F81015E2
:10D0B00021F4473121F44071C3F810151204D3F85C
:10D0C000101500F4F85002F4403210430843C3F83E
:10D0D00010050020B5E70133B0E74A7800F5E073AA
:10D0E0004FF0A047920047F82320CAE7A5F10803B4
:10D0F00046FA83F393F8501041EA821283F85020E5
:10D10000E7E708209DE700BF182A00206C2A0020CE
:10D1100038B5204C251895F93020072A18DD083A33
:10D1200044FA82F292F850309B09032B0BD14FF056
:10D13000A043D3F81015C14001F001010231BDE850
:10D140003840FFF705BF012B0CBF02210321F6E792
:10D15000D3B2072B1CD8930003F1804303F5C043DF
:10D16000D3F8100540F00100C3F8100502F14000AB
:10D1700040B2800080B2FFF7DFFE49B195F9303050
:10D1800054F8233023B101239340034AC2F80433F7
:10D1900038BD00BF182A0020006000404FF0A043B7
:10D1A000D3F8103523FA00F000F0010070470000BA
:10D1B0002DE9F34700244F4D01944FF48072012173
:10D1C00002F1804303F5C0431B68012B07D1D5F85A
:10D1D00004330B4203D090B2FFF7AEFE0C4304328F
:10D1E000B2F5907F4FEA4101EAD1424BD3F87C314E
:10D1F000012BE2B229D14FF4BE70FFF79DFE4FF034
:10D20000A043D3F820150191C3F820150AB344F0C8
:10D210000044394F00250126344210D0AB0003F101
:10D22000804303F5C043D3F81005D3F8101557F821
:10D23000253023B1C1F30141C0F3042098470135E3
:10D24000082D4FEA4606E7D101E0002AE1D1002C83
:10D2500048DA294C4FF0A047284D4FF0000801262E
:10D2600015F9013F5A1C31D0C3F3C201083169449A
:10D27000DAB211F8041C03F03F0903F0070306FAC1
:10D2800003F3194222D009F5E073484657F82330DA
:10D29000C3F3014ABAF1020F0CBF03210221FFF7C9
:10D2A00057FE06FA09F3C7F8203504EB090393F992
:10D2B000303054F823304BB19109032904D0BAF12E
:10D2C000020F12D1012901D14846984708F10108FF
:10D2D000B8F1040FC4D1D7F820350193C7F8203531
:10D2E000002BB9D102B0BDE8F087BAF1030FEDD140
:10D2F0000229E8E700600040182A0020672A002081
:10D30000014B1B68184700BF742A00200E4B98423F
:10D3100013B50C4602D0002002B010BD00230DF161
:10D3200007008DF80730FDF7A9F8084B9DF80700B6
:10D330001A791AB1FDF7C6F81120EDE701221C6039
:10D340001A71FDF7BFF8E6E700200040742A0020BC
:10D35000034B984201BF034B00221A601A717047B9
:10D3600000200040742A002000F1804000F5E040D9
:10D37000002382B0036003680193019B02B07047F1
:10D38000F0B5544B544CD3F8043194F82E2085B0AA
:10D39000002B3BD04FF48270FFF7E6FF2AB394F8DE
:10D3A0002F3013BB4B4AD2F80031002B32D04FF450
:10D3B0008070FFF7D9FF638B94F82D00834250D91A
:10D3C00021891B1A9BB289B26383CB1A616801EB76
:10D3D0004301C2F82C16C2F830064FF48270FFF7F2
:10D3E000C3FF3C4B01225A6014E063680293238917
:10D3F000ADF80C30E36800218DF8041033BB2374C2
:10D40000236801A89847002384F82F3094F82E3021
:10D41000002BC7D12F4BD3F810315BB14FF488707C
:10D42000FFF7A2FF0023237402238DF8043001A824
:10D4300023689847274BD3F814310BB34FF48A7005
:10D44000FFF792FF0023237405B0F0BD208B6083AB
:10D4500063602081E160002AD2D11E4B01221A6054
:10D46000CEE7BAD1E168012084F82F0031B1002065
:10D470006083C2F82C16C2F83036AEE76183ACE7A1
:10D4800066694FF000470125002EDDD0B6FA86F21E
:10D4900027FA02F34632920026EA030602F180439D
:10D4A00003F5E0431B68002BEED01046A2F58C720A
:10D4B000FFF75AFFD30882F00402C2F380028DF80E
:10D4C00008308DF8045023688DF8092001A898478A
:10D4D000DAE700BF007000407C2A002038B5204AFF
:10D4E00092F82C300446002B37D111601D4900788A
:10D4F000C1F8F0056078C1F8F405E078137482F89B
:10D500002D30536182F82F3001256FF0004382F8EF
:10D510002E0082F82C504FF48270C1F80833FFF7C8
:10D5200023FF4FF48070FFF71FFF4FF48A70FFF75F
:10D530001BFFA3780C485B01DBB280F80733802324
:10D5400003600223C1F8043392F82E300BB1C1F806
:10D550000453C1F80055002038BD0820FCE700BF87
:10D560007C2A00200070004000E100E010B52C4B48
:10D570001A7C02F0FF04002A4FD10A79012A9CBFCD
:10D58000284AC2F8004500F10C0403EB440212796A
:10D5900022B993F82D20013283F82D2003EB4403A8
:10D5A000CA791A710A7A5A714B788A781B01120269
:10D5B00002F4E06203F0300313430A7802F003023E
:10D5C0001343CA78120302F4805213430A791204F7
:10D5D00002F4E02213434A79120502F48012134345
:10D5E0008A79120602F0807213430E4A02EB00148D
:10D5F000000100F18040C4F8183500F5E040CB7917
:10D600000C7AC0F81445C0F810350B79012B9CBF7B
:10D610000123C2F80035002010BD1120FCE700BF37
:10D620007C2A00200070004038B5254A254B04466E
:10D630001220C2F808031D7C022D03D1C2F8040396
:10D64000112038BD187C01281CD1D86818B10223DC
:10D65000C2F80433F4E7DC60198393F82E305BB929
:10D66000D2F80031002BFBD04FF48070FFF77CFE26
:10D67000C2F82C46C2F83016114B0222C3F804231C
:10D680000020DEE70220C2F804030020D86093F8EF
:10D690002E005C6001251D74198138B1598393F8FF
:10D6A0002D30C2F82C46C2F83036E9E7C2F82C46D5
:10D6B0004FF48070C2F83016FFF756FE1560DFE7B2
:10D6C000007000407C2A0020074B197C0129CAB257
:10D6D00008D193F82E10054B11B11A600020704745
:10D6E0005A60FBE7082070477C2A00200070004049
:10D6F0000023435082B043580193019B02B070470E
:10D700000A4610B54FF48E71FFF7F2FF136A916865
:10D71000C95C136A01331362C0F81C1510BD10B543
:10D720008B690A464FF4847123B9FFF7E1FFD0F803
:10D73000183510BDFFF7DCFF536AD168D0F8180523
:10D74000C854536A01335362F3E700001FB5012345
:10D750008DF80030044BCDE90110D3E90012684682
:10D76000904705B05DF804FBAC2A002030B54E4D63
:10D77000D5F804339A0585B051D5D5F82431002B5E
:10D780004DD04FF492712846FFF7B2FF4FF401736A
:10D79000C5F80833454B93F829200AB901226A607D
:10D7A000414902228DF80020D1F88024C1F880245C
:10D7B00003929A690292DA6801920022C3E9062272
:10D7C0006846D3E9001290473748D0F81C315BB166
:10D7D000364A5169136A99424ED992F82830002B83
:10D7E0004AD11146FFF78CFF2F48D0F84431002B67
:10D7F00057D04FF4A271FFF77BFF2C4B93F82920F1
:10D800000AB1012202609A69002A4AD0586AD9688E
:10D8100000229A6105B0BDE83040FFF797BFD5F808
:10D8200004335B07D0D5D5F80831002BCCD01F4C82
:10D830001D482146FFF773FF636AA2699A42C3D16C
:10D84000E36953B1A3612369E168E3600023606A7F
:10D85000E3616362FFF77AFFB6E794F829300BB90A
:10D8600001236B60104B4FF40172C3F808230023AF
:10D87000606AE168A361EDE70B484FF48E71FFF732
:10D8800037FF5369002BAFD0516902910023916893
:10D890008DF80030019153616846D2E90013984732
:10D8A000A2E705B030BD00BF00200040AC2A002038
:10D8B0002DE9F8435A4E90F804802C2303FB0863AB
:10D8C000054693F82A300C469146002B40F0A48080
:10D8D00054490068FFF71AFD0746002840F09E8073
:10D8E0002268501C0BD0012393404FF0A04203212B
:10D8F000C2F80835236803F5E07342F82310636823
:10D90000591C1FBF03F5E0734FF0A042002142F8FD
:10D9100023102B68A269C3F82425217D637D2A6822
:10D920000B43C2F86C35D4E900122B68C3F81425F8
:10D93000C3F80C15237D012B1FD1A3685A1C1FBFF0
:10D940004FF0A04203F5E073002142F82310E26893
:10D95000531C0BD0012393404FF0A0420321C2F887
:10D960000835E36803F5E07342F82310D4E90212A6
:10D970002B68C3F80825C3F810152C2303FB08F304
:10D98000F218C2F804902269F250B9F1000F30D0B9
:10D990002868227F4FF48E71FFF7AAFE4FF4A27120
:10D9A0002868FFF7A5FE2B681F49C3F804132B68EE
:10D9B00043F30733002BAEBF03F1604303F00F03C3
:10D9C0001A494FEA4212A8BF03F56143D2B2B4BF6D
:10D9D000CA5483F800232B6843F30733002B08DB7A
:10D9E0000122590903F01F0302FA03F3104A42F817
:10D9F00021302B680422C3F800252C2303FB086385
:10DA00000022C3E9062283F829205A61012283F803
:10DA10002A203846BDE8F8830827FAE71127F8E7F7
:10DA2000AC2A00206DD701008000020014ED00E058
:10DA300000E100E0F8B503680579324C0022C3F834
:10DA400000252C2303FB05435B68B3B103682E4A12
:10DA5000C3F80823036843F30733002B0DDB5A098F
:10DA6000012103F01F03994002F12003274A42F8E5
:10DA70002310BFF34F8FBFF36F8F03684FF0FF3C4E
:10DA8000D3F80C75D3F81465D3F80825D3F810151E
:10DA9000C3F814C5C3F80CC503686745C3F808C5C7
:10DAA00018BF07F5E077C3F810C51EBF4FF0A043BD
:10DAB0004FF0020C43F827C0771C1FBF4FF0A04364
:10DAC00006F5E076022743F826704E1C1FBF01F5CD
:10DAD000E0714FF0A043022643F82160531C1FBFA2
:10DAE0004FF0A04302F5E072022143F822100068D3
:10DAF000FFF72EFC2C2303FB0544002384F82A3077
:10DB00006360F8BDAC2A00208402020000E100E05E
:10DB10000279044B2C2101FB02335869003818BFED
:10DB200001207047AC2A00202DE9F84F06460779FE
:10DB300089469246FFF7ECFF044600283ED1DFF805
:10DB400084802C2507FB058B4FF48E71CBF814A035
:10DB5000CBF80890CBF820008BF828003068FFF74E
:10DB6000C7FD336801229A6030685946FFF7C8FD47
:10DB7000DBF804305D461BBB3068DBF814402B6AD1
:10DB80009C4211D83368D3F81C21002AFBD0012213
:10DB9000DA6000202C2303FB078300225A61BDE8D2
:10DBA000F88F95F828303BB9D0F81C31002BF8D00D
:10DBB0005946FFF7A5FDE2E70F20EBE71120EEE75E
:10DBC0002046ECE7AC2A00200023435082B04358A3
:10DBD0000193019B02B070471FB501238DF80030FF
:10DBE000044BCDE90110D3E900126846904705B017
:10DBF0005DF804FBD82A00207FB5434AD2F824619F
:10DC0000002E60D010464FF49271FFF7DDFF022323
:10DC10008DF80030D2F88034C2F880340393D2F803
:10DC20003C350293394BDA6801920022C3E906229F
:10DC30006846D3E9001290473348D0F8443173B1B5
:10DC40004FF4A271FFF7C0FF304B9A693AB100223E
:10DC5000C3E90622D968D0F83C05FFF7BDFF2A4882
:10DC6000D0F82031ABB14FF49071FFF7ADFF012335
:10DC7000C360264B5A6962B1D0F84C15029100225C
:10DC800099688DF8002001915A616846D3E9001225
:10DC900090471D48D0F858319BB14FF4AC71FFF755
:10DCA00093FF1A4B5A6962B1D0F84C1502910022C9
:10DCB00099688DF8002001915A616846D3E90012F5
:10DCC000904704B070BDD2F81031002BB4D04FF49F
:10DCD00088711046FFF778FF0C4BD2F83C05996924
:10DCE0008842A9D1DC69D96864B1D2F8005225F024
:10DCF0002005C2F800521A699C61DA60DE61FFF704
:10DD00006BFF99E79C61FAE700200040D82A0020C9
:10DD10002DE9F843614E90F80480242303FB086347
:10DD2000054693F820300C469146002B40F0B18018
:10DD30005B490068FFF7EAFA0746002840F0AB802D
:10DD40002268501C0BD0012393404FF0A0420321C6
:10DD5000C2F80835236803F5E07342F823106368BE
:10DD6000591C1FBF03F5E0734FF0A042002142F899
:10DD700023102B68A269C3F82425217D637D2A68BE
:10DD80000B43C2F86C35D4E900212B68C3F80C258D
:10DD9000C3F81415237D012B1FD1A3685A1C1FBF84
:10DDA0004FF0A04203F5E073002142F82310E2682F
:10DDB000531C0BD0012393404FF0A0420321C2F823
:10DDC0000835E36803F5E07342F82310D4E9021242
:10DDD0002B68C3F80825C3F81015242303FB08F3A8
:10DDE000F218C2F804902269F250B9F1000F3FD046
:10DDF0002868227F4FF48871FFF7E6FE28684FF409
:10DE00009071FFF7E1FE28684FF49271FFF7DCFE96
:10DE100028684FF4A271FFF7D7FE4FF4AC71286861
:10DE2000FFF7D2FE2B681F49C3F804132B6843F396
:10DE30000733002BAEBF03F1604303F00F031A4911
:10DE40004FEA4212A8BF03F56143D2B2B4BFCA542D
:10DE500083F800232B6843F30733002B08DB0122F0
:10DE6000590903F01F0302FA03F3104A42F8213064
:10DE70002B680822C3F80025242303FB086600232F
:10DE8000C6E906337361012386F820303846BDE8C1
:10DE9000F8830827FAE71127F8E700BFD82A0020FF
:10DEA000F9DB01001003420014ED00E000E100E0A6
:10DEB000F8B5444C0579242303FB054302465B680F
:10DEC0000068ABB1404BC0F80833136843F3073325
:10DED000002B0DDB5909012603F01F039E4001F1C1
:10DEE00020033A4941F82360BFF34F8FBFF36F8F90
:10DEF000D0F8003223F02003C0F80032242303FBC3
:10DF000005439B692BB14FF4A271FFF75DFE01231E
:10DF100043604FF4AC71FFF757FE0123C360242325
:10DF200003FB0543D0F858110029FBD0996919B1BA
:10DF3000D0F844110029F5D00023C0F8003513684B
:10DF40004FF0FF3ED3F80CC5D3F81475D3F808157D
:10DF5000D3F81065C3F80CE5C3F814E51368F4456D
:10DF6000C3F808E518BF0CF5E07CC3F810E51EBF48
:10DF70004FF0A043022243F82C207B1C1FBF4FF020
:10DF8000A04307F5E077022243F82720721C1FBF49
:10DF900006F5E0764FF0A043022243F826204B1C02
:10DFA0001FBF4FF0A04301F5E071022243F821208A
:10DFB000FFF7CEF9242303FB0544002384F8203027
:10DFC0006360F8BDD82A00201003420000E100E0A1
:10DFD0000279044B242101FB02335869003818BF31
:10DFE00001207047D82A002001F06043B3F1005FA0
:10DFF0002DE9F0470546884692463CD190F80490BA
:10E00000FFF7E6FF0446002837D11E4F242606FB03
:10E0100009764FF49071C6F814A0C6F808802868F5
:10E02000FFF7D2FD4FF4AC712868FFF7CDFD2B68E8
:10E030007269B168C3F84415C3F848252B680122FA
:10E040009A607368DBB92B68D3F82021D3F85801A4
:10E050000243F9D068B90122DA602A68D2F858314F
:10E06000002BFBD0242303FB097700237B61BDE851
:10E07000F0870F20F6E71020F9E71120F7E7204698
:10E08000F5E700BFD82A00200220FEF789BD000076
:10E090002DE9F04780460D46FEF7A2FD0328044611
:10E0A00010D8012D10D0022D30D05DB91A48FCF7E0
:10E0B000D9F81A4B04EB440213449D78184B1B5DAE
:10E0C000AB4219D0BDE8F087144E00EB4003F218C4
:10E0D000F55C5378470053B1DFF848900E484A4644
:10E0E0004FF48041FCF78EF808B989F80080274486
:10E0F0003E440B4BB2781A55002DE3D00A4B1B68F7
:10E10000002BDFD02846BDE8F0471847034B00EB53
:10E11000400423445D78EFE7901A0020012B002093
:10E12000FC2A0020002B0020102B00200078022168
:10E13000FFF7AEBF08B5094B1B7853B10020FEF7BF
:10E1400005FD0120FEF702FDBDE808400320FEF7B3
:10E15000FDBCBDE80840FEF705BD00BF142B002044
:10E16000F8B5884D2B7804461BB100232B70FFF7C0
:10E17000E1FF172C00F2A280DFE814F01800230062
:10E1800023004E006E007F0090009A00A200A700BE
:10E19000A200A700AF00B400B400B400B400B40003
:10E1A000DE00E300EB00F300FE00FE00FFF7C2FF1D
:10E1B0007548FCF757F8754B002205461A7028463B
:10E1C000F8BD0020FEF7A8FCF0B10020FEF7BEFC71
:10E1D000022C0CBF4FF4E1654FF47A656B4B1C7059
:10E1E00000244FF400464FF47A7021464FF4FA624F
:10E1F0000023E5FB060106F00FFC22460146BDE8C0
:10E20000F8406148FBF7FEBFFEF794FC022C0CBF00
:10E21000C8254FF4C875E1E70020FEF77DFCB8B1D2
:10E220000020FEF793FC4FF44874584B032200255E
:10E230004FF400464FF47A7029461A70E4FB060149
:10E240004FF4FA62002306F0E7FB2A460146D6E7C0
:10E25000FEF770FCC824E8E70020FEF75DFC38B14B
:10E260000020FEF773FC4FF47A64484B0422DEE78B
:10E27000FEF760FC4FF4C874F7E70020FEF74CFC93
:10E2800048B10020FEF762FC404B05221A7040F6B0
:10E29000CD410022B3E7FEF74DFCF5E70020FEF785
:10E2A0007FFC3A4B06221A70002240F26661A6E714
:10E2B0000020FEF73FFC354B07221A7000257EE751
:10E2C00001202870FEF76CFCEEE701202870FEF7B5
:10E2D00067FC00224FF4005191E7FEF752FC2B4BF4
:10E2E0000C22EAE72A482B4EFBF7BCFFD4F11104BD
:10E2F00005461CD0D8B9012C13D0C8235C4329464D
:10E300004FF400474FF47A704FF4FA620023C4FBD5
:10E31000070106F081FB2A4601461D48FBF772FF04
:10E3200005460220FEF706FC0123337047E7022072
:10E33000FEF70CFC0023F8E7FFF7FCFE134B12225C
:10E34000BBE7FFF7F7FE0020FEF7F4FB0F4B1322AD
:10E35000B3E7FFF7EFFE0120FEF7ECFB0B4B1422B7
:10E36000ABE7FFF7E7FE0020FEF7E4FB0120FEF736
:10E37000E1FB064B1522A0E7FEF703FC034B1C70E4
:10E380009CE700BF1C2B0020D01A00201D2B002072
:10E39000B01A0020142B0020044B1B68DB0703D5A8
:10E3A000034B1878FFF7DCBE704700BF182B002026
:10E3B0001D2B002010B500290CBF00240324FEF7FC
:10E3C00021FC800000F1A040D0F8003723F4403356
:10E3D000C0F80037D0F8003743EA0443C0F80037EC
:10E3E000002010BD032801D8FEF7ECBB00207047C9
:10E3F000044B1B6813F0010301D0FFF7B1BE1846B0
:10E40000704700BF182B002038B5254B1860254BEE
:10E410001960830700F0010411D444B30120FEF712
:10E42000F7FB214A21480021FBF7DAFE0446F0B948
:10E43000BDE838401E4A1F480121FBF7D1BE1E4BE4
:10E440001E480F210E22D97010211A7099711522C1
:10E4500011219A705A711A725972DA72042140F2BB
:10E460003332FBF73FFD054618B1ACB92C462046C8
:10E4700038BDFBF78FFD05460028F6D10146104A4E
:10E480001048FBF7ADFE0546002CEFD00120FEF74B
:10E49000BFFB002DEAD1C4E70120FEF7B9FBE5E799
:10E4A000182B0020102B002099E301006856020071
:10E4B00089E0010064560200012B00204056020052
:10E4C0002DE1010060560200032811D8012A0AD16B
:10E4D00001290AD100F10E02D2B20C4B00EB400030
:10E4E0001A54002070470129F7D0022902D039B10F
:10E4F00007207047054B00EB400003445A70F0E7DB
:10E50000024B00EB400003449A70EAE7012B002025
:10E51000032802D80121FFF74DBF062070470122D2
:10E5200008B502211046FFF7CFFF08B1072810D128
:10E53000072202210120FFF7C7FF08B1072808D1F1
:10E540000A2200210120FFF7BFFF10B1072808BFF2
:10E55000002008BD10B50388102B02D0112B22D04B
:10E5600010BD194C2168D1B901221046FFF7ACFF4C
:10E5700008B107280FD1072202210120FFF7A4FFCD
:10E5800008B1072807D1042202210120FFF79CFFD0
:10E5900028B1072803D00D4B1B6803B198472368A7
:10E5A00001332360DCE7084A1368013B1360002B4A
:10E5B000D6D1FFF7B4FF0028D2D0044B1B68002B44
:10E5C000CED0BDE810401847202B0020242B00207F
:10E5D00008B50020FFF79CFF08B1062806D10120EE
:10E5E000FFF796FF10B1062808BF002008BD000005
:10E5F0000D4B10B518600C4629B10120FFF7F2FE53
:10E6000040B102232370094B1B6853B9BDE8104089
:10E61000FFF785BFFFF7E6FE08B10B23F2E7207096
:10E62000F1E7002010BD00BF242B0020202B00208C
:10E6300076DF704777DF704778DF70477ADF7047A3
:10E640007CDF70478FDF704733DF7047FBF7B8BC64
:10E6500008B5FFF739F818B1BDE80840FBF7B0BCC2
:10E6600008BD0000012808B514D002281ED048BB00
:10E67000154B16481649C01AC008000440F00300A4
:10E68000FBF7A0F91120FFF7B3FED8B1BDE80840B1
:10E69000FBF796BC0C4B0D480E49C01AC00800048D
:10E6A00040F00300FBF78EF90D20ECE7064B07481E
:10E6B0000949C01AC008000440F00300FBF782F9C2
:10E6C0001020E0E708BD00BF9C720200CC7202007F
:10E6D0006C560200765602008256020008B50020F1
:10E6E000FFF786FE08B1FBF76BFCFFF771FF08B17F
:10E6F000FBF766FCFFF7A8FF18B1BDE80840FBF781
:10E700005FBC08BD043810B50B2826D8DFE800F040
:10E710000A2525252525062525251631BDE8104085
:10E72000FFF7DCBF1B4B13211889FFF781FF30F087
:10E73000080312D0BDE81040FBF742BC164B1B7813
:10E740005BB1164C23784BB90221124805F0CCFD81
:10E7500030B9237883F00103237010BD0021F4E762
:10E760001328FAD043F201439842F6D00528F4D09A
:10E77000E0E70B4B0B480C49C01AC008000440F0FE
:10E780000300FBF71FF91120FFF732FE0028E4D049
:10E79000D0E700BFD02D00202C2B00202D2B0020F7
:10E7A0009C720200CC7202008E56020013B50388E0
:10E7B000212B04463ED005D8102B19D0112B0AD09E
:10E7C00002B010BD3B2B01D0562BF9D1A0881321EC
:10E7D000FFF72EFF27E01D4B1D481E49C01AC00839
:10E7E000000440F0030002B0BDE81040FBF7EAB8B7
:10E7F000164B17481849C01AC008000440F003001F
:10E80000FBF7E0F80720FFF7F3FD08B1FBF7D8FBB3
:10E81000A188124803F0C0F808B1FBF7D1FBA1882A
:10E820000F4801F0B1FB0028CAD002B0BDE810408B
:10E83000FBF7C6BB00238088ADF8043001A9FFF7C1
:10E8400001FF0028BCD0FBF7BBFBB9E79C720200BC
:10E85000CC72020099560200A7560200B42D002087
:10E86000181B00200146014805F0CCBCD02D00202B
:10E8700008B598B1032815D10B4B0C480C49C01AA8
:10E88000C008000440F00300FBF79CF80220FFF7EB
:10E89000AFFD38B1BDE80840FBF792BBBDE80840CA
:10E8A000FFF71CBF08BD00BF9C720200CC720200C3
:10E8B000B256020008B50A7812B1012A0BD008BD81
:10E8C00007484FF4F011FBF79DFC0028F7D0BDE896
:10E8D0000840FBF775BB0248FBF7C4FCF5E700BF37
:10E8E0000821002008B50548032100F0AEFD18B14D
:10E8F000BDE80840FBF764BB08BD00BFBC2C00208E
:10E9000010B5044604F0EEFB204604F00FFC204650
:10E9100004F0A0F923780D2B03D1BDE81040FFF7D8
:10E92000E1BF10BD08B50B7813B1022B0CD008BDA8
:10E930008A890748498805F001FD08B1FBF740FBCB
:10E94000044B01221A70F2E7024B0022FAE700BFE3
:10E95000D02D00202C2B00200B7813B94878FFF71E
:10E9600081BE70470B7823B94B6813B11878FFF755
:10E9700079BE704738B50578CDBB40680121B0F944
:10E980000040FEF751FE08B1FBF71AFB4FF4167377
:10E9900014FB03F3002BB8BF03F2FF339B1203EB0E
:10E9A00043035B0003F587739BB240F6B732934293
:10E9B00045D840F6543293421AD9C3F53B633A2204
:10E9C000083353436FF0630293FBF2F36433DDB219
:10E9D00020484FF6FE72294605F03BFB38B113285C
:10E9E0002FD8072831D91C4BC340DB072DD538BDA4
:10E9F00040F6B4218B4209D9D21A18235A436FF03A
:10EA00009F0392FBF3F22A32D5B2E1E740F6881277
:10EA1000934207D9C91A6FF0180391FBF3F1123131
:10EA2000CDB2D5E740F634018B42D1D9D11A0623B5
:10EA30005943A3F5AD7391FBF3F10631F0E764257B
:10EA4000C6E743F201439842D1D0BDE83840FBF716
:10EA5000B7BA00BFEC2D002000010A00FBF7B0BAE6
:10EA6000FBF7AEBA00B54FF48041ADB00020FAF725
:10EA700013FE08B1FBF7A4FAFAF756FDFBF77EFB8D
:10EA800008B1FBF79DFAAF4AAF480121FBF7A8FB9D
:10EA900008B1FBF795FAAD490320FFF7B5FC08B1C3
:10EAA000FBF78EFA01A90020FFF7A2FD08B1FBF7E2
:10EAB00087FA9DF80450FDF735FD08B1FBF780FAA1
:10EAC00005F064FD08B1FBF77BFA002301A90120E2
:10EAD000019305F021FE08B1FBF772FA01A805F0D9
