:020000021000EC
:1090000000600020099301005D9301005F9301005F
:10901000619301006393010065930100000000006B
:109020000000000000000000000000006793010045
:1090300069930100000000006B9301006D93010033
:10904000C1CB01006F930100D9CF01006F930100E4
:109050006F9301000000000089CE01006F930100B2
:109060006F9301006F9301006F9301006F930100F4
:109070006F9301006F9301006F9301006F930100E4
:109080006F93010081A801006F9301006F930100AD
:109090006F9301006F9301002D3E02006F9301005A
:1090A0006F9301006F9301000000000000000000BA
:1090B0006F9301006F9301000000000000000000AA
:1090C00000000000000000000000000000000000A0
:1090D0000000000000000000000000000000000090
:1090E0000000000000000000000000000000000080
:1090F0000000000000000000000000000000000070
:10910000000000000000000000000000000000005F
:10911000000000000000000000000000000000004F
:10912000000000000000000000000000000000003F
:10913000000000000000000000000000000000002F
:10914000000000000000000000000000000000001F
:10915000000000000000000000000000000000000F
:1091600000000000000000000000000000000000FF
:1091700000000000000000000000000000000000EF
:1091800000000000000000000000000000000000DF
:1091900000000000000000000000000000000000CF
:1091A00000000000000000000000000000000000BF
:1091B00000000000000000000000000000000000AF
:1091C000000000000000000000000000000000009F
:1091D000000000000000000000000000000000008F
:1091E000000000000000000000000000000000007F
:1091F000000000000000000000000000000000006F
:109200000348044B834202D0034B03B11847704715
:10921000FC1C0020FC1C0020000000000548064B40
:109220001B1AD90F01EBA301491002D0034B03B164
:1092300018477047FC1C0020FC1C002000000000A8
:1092400010B5064C237843B9FFF7DAFF044B13B18E
:109250000448AFF300800123237010BD101D0020CF
:10926000000000006469020008B5054B1BB1054908
:109270000548AFF30080BDE80840FFF7CFBF00BF4F
:1092800000000000141D002064690200A3F5803A6C
:10929000704700BF174B002B08BF134B9D46FFF7CD
:1092A000F5FF00218B460F461348144A121A0AF0A4
:1092B00039FF0E4B002B00D098470D4B002B00D0F0
:1092C00098470020002104000D000D48002802D01E
:1092D0000C48AFF300800AF02DFF2000290004F0B5
:1092E0006DFC0AF0FDFE00BF000008000000000059
:1092F0000000000000600020101D0020A42F0020AE
:1093000000000000000000000E4800680E490968D7
:109310000A280AD1002908D10C4802686FF07003AE
:109320001A404FF040031A4302600949094A0A4BA8
:109330009B1A03DD043BC858D050FBDC03F042FA13
:10934000FFF7A8FF3001001034010010E40E0040C8
:10935000EC6A0200401A0020101D0020FEE7FEE724
:10936000FEE7FEE7FEE7FEE7FEE7FEE7FEE7FEE7D5
:109370007047000007B5044B0093044A402300F0F7
:1093800034F803B05DF804FB919301002C1D00201C
:109390002DE9F84388461446B2B1104B104D032610
:1093A000002743F00109224608EB0701002004F0E2
:1093B000A5FE0744241A60B92B782BB14FF47A40EC
:1093C000C847013E02D12E70BDE8F88301232B70FF
:1093D000E9E701232B70002CE5D1F5E7D04402002A
:1093E0006C1D0020704704F0B5BEF0B595B01D4669
:1093F000164608460C4603F0F2F81A9B0D93CDE989
:10940000086500252B46082205A920460A958DF8F7
:109410002C500C9503F0FFF8079B0293069B0393D7
:109420009DF814308DF8115003F00302012A1DD16C
:10943000BDF81420059DC3F3C203C2F383168DF853
:109440001030B20008230EA9204603F0E4F8C5F35B
:10945000952508AB0093324602AB0EA9284600F0D2
:109460003DFB204603F0BFF815B0F0BD022AF8D14D
:10947000BDF81650C3F3C203C5F389158DF810303B
:109480000827082D2E4628BF08263B4632460EA93F
:10949000204603F0C0F8AD1B08AB02AA31460EA867
:1094A000374400F07FFB002DEBD1DAE708B5FFF77A
:1094B0009AFF0448042100F079FA034B01225A7103
:1094C00008BD00BFD46A0200401A0020037813F0E0
:1094D000040215D003F00303012B03D0022B09D0A3
:1094E000012070470B6802880233C2F383121344D1
:1094F0000B60F5E70B684288023303EB9213F7E742
:10950000104670472DE9F04F434C87B08846002342
:109510000546871C0DF1070016468DF8073001F04F
:1095200033F86268C8F80020A36803F580739B1ABB
:1095300004F21C4804F5836A04F21449BB4218D3B0
:109540000021002E64D005F00F05AD0145F00505A2
:1095500065F30F0163689DF80700DAB203323B44FC
:1095600044F82210636001F033F8012007B0BDE831
:10957000F08F0121404602F056FA504602F06EFA92
:10958000484602F06BFAA0680290C0B2033004EBC8
:10959000800002A9FFF79AFF20BB029BDAB204EB1E
:1095A0008202D16803919A1C0133DBB204EB83037E
:1095B0000292D3F80CB001F00303012B20D0022B50
:1095C00013D08346484602F04CFA08B1029BA360D0
:1095D0005946404602F027FAA368626803F5807393
:1095E0009B1AABE79DF80800D0E7BDF80E30C3F337
:1095F000891303334FEA1B4B02EB93030293E1E71A
:10960000BDF80C30C3F383134FEA1B4B1344F5E74B
:10961000AD0545F006019DE7701D0020064B07488B
:1096200010B500221A7002F096FF044610B90448E3
:1096300003F020F8204610BD701D0020F0690200E4
:109640000C45020030B50A4C71B10A4A0A49121B96
:10965000D20800239A4201D1002030BD31F82350B6
:10966000854202D00133F5E7034654F83300F4E7AE
:10967000046A0200D46A0200101D0020094B01395F
:1096800003EBC000032909D8DFE801F0020A040651
:10969000022070470079704740797047002070477A
:1096A00004207047046A020070470000034BD3E9AE
:1096B0000130C31A58425841704700BF701D002046
:1096C0002DE9F04387B0FFF7F1FF002874D1744C07
:1096D000C4F81804BFF34F8FA0680290C0B20330E3
:1096E00004EB800002A9FFF7F1FE029B18B1D4F849
:1096F0001824002A5CD0DAB29F1C013304EB8202EA
:10970000DBB204EB8303D268DB68049302F003034B
:10971000022B0392029758D1BDF80E306148C3F373
:1097200089184646502E28BF502666F38F1306F13F
:109730000801ADF80E3002F026FF0546002800F0C3
:10974000998002F04CFF002303A90822284602F06A
:1097500058FFFB43DBB20133F9B20331B6EB830FA1
:109760004FEA830904EB81012CD908234A46A6EB72
:109770000906284602F045FFF6B24B4909F10803F5
:10978000324608F10308284607EB980702F039FF34
:109790000297D4F81834D4F81064002B55D028461A
:1097A00002F021FFFFF782FF80F00100C0B204E069
:1097B00062689A4204D8A260002007B0BDE8F08336
:1097C000D8B28CE708233246DBE7012B52D1BDF833
:1097D0000C303448C3F38311062928BF062161F3F6
:1097E0008913023101F00F018900ADF80C3002F04D
:1097F000CAFE054600283DD002F0F1FE00230822F3
:1098000003A9284602F0FDFE0026BDF80C20C2F395
:109810008312B300B24203F10803BAD902994A1C79
:10982000C9B20331029204EB81010422284602F0FE
:10983000E8FE0136E9E7F3685B7923B1336829462E
:109840001B6830469847F3681E68002EF3D12846FF
:1098500002F0C9FE0DF107008DF8076000F094FEDC
:10986000D4F818340BB9029BA3609DF8070000F0F0
:10987000AFFE97E7D4F8104454B90C4B0C480D498F
:10988000C01AC008000440F0020000F05DF889E74B
:10989000236820469B689847E3681C68ECE700BF94
:1098A000701D0020F06902007C1D0020046A020087
:1098B0002C6A0200F44402002DE9F34704460E46E8
:1098C000924601A9012218469946FFF71BFE1C4F3C
:1098D00010B3019D4FF00008AA1CC84508EB020117
:1098E00025D11848002102F057F880F31000000439
:1098F00040EA1440E4006B1C04F03804DBB2EDB223
:1099000044F0010407EB8303033544EA881444EA76
:109910008624D86047F825403B781BB1FFF7D0FE7E
:109920000028FBD1FFF7C0FE02B0BDE8F087C9B246
:1099300007EB81015AF82830CB6008F10108CCE729
:10994000701D00208C21002000231A46FFF7B4BFB1
:1099500007B50123019201AAFFF7AEFF03B05DF83E
:1099600004FB07B5CDE9002302236A46FFF7A4FFF5
:1099700003B05DF804FB1FB5CDE90123069B0393FB
:1099800001AA0323FFF798FF05B05DF804FB1FB59C
:10999000CDE90023069B0293079B03936A460423A9
:1099A000FFF78AFF05B05DF804FB000030B51349EE
:1099B000D1F810440346002022464AB9DC682071E1
:1099C000D1F8104484B9C1F81034DB681A600AE099
:1099D000D2681579854201D01268EEE701300A2875
:1099E000EAD14FF0FF3030BDE468DA6824681460D3
:1099F000D1F81024D2681360F5E700BF701D002075
:109A000038B5084B0125D3F810441D7004B938BD92
:109A1000E3685D71236820465B689847E3681C68CB
:109A2000F4E700BF701D002010B5037A052B0C462B
:109A30000FD0437A23B1084A0849204602F076F84D
:109A40000749204602F072F82046BDE8104002F0B7
:109A500062B8002AF8D0F3E718450200BF5D0200A3
:109A60003A45020073B5C38804460D4633B1144A23
:109A700000921449144A284602F058F8217A052920
:109A80001CD0637A4BB1A088FFF7F8FD0F4B10494B
:109A900053F82020284602F049F8227A0D4BA0887E
:109AA00053F822600021FFF7CDFD0B4903463246F3
:109AB000284602B0BDE8704002F038B802B070BD70
:109AC00018450200254502001D450200A44502007C
:109AD000BF5D0200C84502003D4502002DE9F0438C
:109AE00085B01F460C9D002395F80C902B730646FD
:109AF0000C46904629463846FFF7B4FFB8F1060FEA
:109B000009D8DFE808F00412181F28334000314656
:109B1000284602F00BF8002229463846FFF784FF5A
:109B200085F80C9005B0BDE8F083226831462846E0
:109B300001F0FCFFEFE7D4E900233146284601F0AD
:109B4000F5FFE8E7A3680093D4E9002331462846EF
:109B500001F0ECFFDFE7E3680193A3680093D4E929
:109B600000233146284601F0E1FFD4E72369029340
:109B7000E3680193A3680093D4E9002331462846A3
:109B800001F0D4FFC7E76369039323690293E36895
:109B90000193A3680093D4E900233146284601F0DD
:109BA000C5FFB8E708292DE9F84F80460E4617464D
:109BB0001C463DD8002593F80C901D73194610469D
:109BC000FFF750FFDFF884A0DFF884B0AE4231D950
:109BD00018F805205946204601F0A8FF0135082D48
:109BE000F4D11C491C4DDFF874B0204601F09EFFF3
:109BF0004FF0000A564524D918F80A207E2A1ED8AC
:109C0000511CC9B21BF8011011F0970F08BF2E228A
:109C10001349204601F08AFF0AF1010ABAF1080F40
:109C2000E8D1012221463846FFF7FEFE84F80C9069
:109C3000BDE8F88F5146204601F078FFCEE72E228E
:109C4000E6E72946204601F071FFE5E74D450200B1
:109C500047450200514502004F450200606802007E
:109C60005345020010B5C307064A4FEA500048BFEB
:109C70000901145C4ABF0F23F023C9B223401943E2
:109C8000115410BDF822002010B5094B1978094B6A
:109C90001B680022914201DC002005E013F83240ED
:109CA000844202D103EBC20010BD0132F2E700BFD3
:109CB000142300201823002070B504460D46FFF73A
:109CC000E3FF30B1436823B129462046BDE8704028
:109CD000184770BD034B044819680022490800F07A
:109CE00017BB00BF10230020481A002010B5C0B2D7
:109CF000FFF7CAFF0446007803F0BCF863785A1EE9
:109D000053425341834208D1044AD2E900321343FB
:109D100003D1BDE81040FFF7DDBF10BD08230020D0
:109D200037B54308374AD35CC2074CBF1B0903F061
:109D30000F0304460D46042B25D8DFE803F0032665
:109D4000303D4100F9B10121FFF78CFF00230DF1F7
:109D500007008DF8073000F017FC0122A4F1200362
:109D6000C4F12000284922FA00F002FA03F3034369
:109D7000A240D1E9004014431843C1E900409DF8D6
:109D8000070000F025FC03B030BD003918BF0121E9
:109D90004900204603B0BDE83040FFF763BF49B13A
:109DA0000321FFF75FFF0121204603B0BDE83040EB
:109DB000FFF782BF0121ECE70029E4D10421E8E7A5
:109DC00009B10321E5E7FFF74DFF29462046FFF7DC
:109DD00073FF0DF107008DF8075000F0D5FB01224D
:109DE000A4F12003C4F12000074922FA00F002FA8E
:109DF00003F30343A240D1E9004024EA020420EA2D
:109E00000300BAE7F8220020082300202DE9F041E2
:109E1000124E134F00243378A34208DC114AD2E9D2
:109E20000032134318D0BDE8F041FFF753BF3D683F
:109E300005EBC40815F8340003F01CF898F801305D
:109E40005A1E53425341181A4142414115F83400F9
:109E5000FFF766FF0134DEE7BDE8F0811423002040
:109E60001823002008230020092AF7B505460C46D0
:109E700016463ED902F032FFE8B11F4B1F481D6065
:109E80001F4B204F1C70204B002110221E600AF037
:109E900049F91E4B00200021C3E90001013CE4B256
:109EA0000326FF2C0DD11A4A1A48002103B0BDE841
:109EB000F04000F01BBA02F0D5FE0028DDD003B060
:109EC000F0BD9DF8063015F834008DF8046005EB00
:109ED000C40223F007038DF8063001A993788DF8AA
:109EE00005303A4602F004FF013CE4B20028D8D025
:109EF000E5E70720E3E700BF18230020F822002051
:109F000014230020ED9C01001023002008230020D2
:109F10000D9E0100DC45020070B5084D084E00247E
:109F20002B789C4201D3002070BD3368012113F8C7
:109F3000340002F059FF0134F2E700BF142300207F
:109F4000182300201FB50021039001AA44F201004C
:109F5000CDE9011100F004F805B05DF804FB000044
:109F600038B572B6FFF74CFDFFF7AAFB0028FBD10E
:109F7000104B114C114D1249E41AE408240444F02A
:109F80000100FFF7E1FCD5F8F030DB0700D500BE9B
:109F90000C4944F00200FFF7D7FCBFF34F8FEA688B
:109FA000094B02F4E0621343EB60BFF34F8F00BF35
:109FB000FDE700BF046A02002C6A020000ED00E029
:109FC000EB450200F74502000400FA054B1C30B5D2
:109FD000DB00044612F003009BB20DD1074D2A604E
:109FE0001A44074B1A60074B1870074B1870074B41
:109FF0001C80074B198030BD0720FCE72823002078
:10A000002423002020230020212300201E230020C1
:10A010001C2300202DE9F347DFF8A880B8F80030B2
:10A020008B4206460C4617464AD300250DF1070021
:10A030008DF8075000F0A8FA234B244ADFF890C0AF
:10A040001B78BCF800C010786045C1B238BF013140
:10A05000DBB238BFCDB2AB429DF8070005D100F0AE
:10A06000B7FA042002B0BDE8F08715781178DFF860
:10A070006490CBB28C4586BF0133DBB20023EDB2D6
:10A08000137000F0A5FAD9F800304FEAC50A43F87A
:10A09000357003EBC50286B17CB10F4BB8F80000F8
:10A0A0001B68224605FB003031460AF067F8D9F8F4
:10A0B000003053449C800020D4E700239380FAE7CB
:10A0C0000920CFE71E230020212300202023002089
:10A0D0001C230020282300202423002070B5104CCE
:10A0E000104D22782B789A4200D170BD0E480F4A4D
:10A0F0002378126806880E4802EBC301006852F804
:10A100003320898803FB060090470A492278098892
:10A11000D3B2914286BF0133DBB200232370E0E764
:10A1200021230020202300201E230020282300209C
:10A13000242300201C23002010B5D0E90242D1E9DD
:10A140000203A04293412CBF0120002010BDD0E9A2
:10A150000030184708B50A4800F07BFB094AD2E9ED
:10A160000031C018084BD3E9002341F100019042AF
:10A1700071EB030303D210F1807041F1000108BDBF
:10A18000681A0020A02300209823002037B5054638
:10A190000C460A4801A901F034FB68B1057044601F
:10A1A00001A9064801F057FB10B9002003B030BDEB
:10A1B000034800F053FBF8E70420F7E730230020C2
:10A1C000681A002030B52D4B1D7885B004461DB9A6
:10A1D0000025284605B030BD0028F9D0FFF7BAFFAA
:10A1E000D4E902239042994140D3002302A88DF87C
:10A1F000083000F0C9F923692BB94FF0FF324FF056
:10A20000FF33C4E902239DF8080000F0E1F9636917
:10A2100002930821A3691A4A03930DEB0100FFF78B
:10A22000F9FE08B1FFF78EFE00230DF107008DF84F
:10A23000073000F0A9F923699DF8070013B900F071
:10A24000C7F9C5E7D4E90212B2F1FF3F08BFB1F187
:10A25000FF3FF4D05B1842F10002C4E9023200F083
:10A26000B7F90848214602F028FAB2E7B3F1FF3FF8
:10A2700008BFB2F1FF3FABD0F3E700BFA823002037
:10A280004FA101000446020013B5114B1149186893
:10A29000019008231048582201F07EFA044698B92C
:10A2A0000E4A0F4801A900F0B5F9044660B90C4800
:10A2B000012100F0AFFA01230A4A0948194600F0CB
:10A2C0000BFA094B01221A70204602B010BD00BFE4
:10A2D0001A4602004023002030230020CDA30100B5
:10A2E000681A0020FFFF7F00A823002030B56AB164
:10A2F00003684FF0FF344FF0FF355A614A1E514258
:10A30000C3E9024551411961002030BD0720FCE737
:10A31000F7B5044600270DF1070016460D468DF8E7
:10A32000077000F031F9D4E90223B3F1FF3F08BF11
:10A33000B2F1FF3F15D1FFF70DFF281841F10001E1
:10A34000C4E902019DF8070000F042F92369A66103
:10A3500003B125612146002003B0BDE8F040FFF7BE
:10A3600015BF9DF8070000F033F9384603B0F0BD83
:10A3700037B5044600250DF107008DF8075000F0B1
:10A3800003F9D4E90223B3F1FF3F08BFB2F1FF3F65
:10A390009DF807000ED04FF0FF324FF0FF33C4E9B5
:10A3A000022300F015F92146012003B0BDE830403A
:10A3B000FFF7ECBE00F00CF9284603B030BD0000FA
:10A3C000014800F046BA00BF681A00202DE9F743A3
:10A3D000074600F028FA40B1634AD2E9003113F190
:10A3E000807341F10001C2E900310021384600F0DC
:10A3F0002AFA38B15D4C236823B12068FFF7E2FEEA
:10A40000002323600121384600F01DFA20B1FFF738
:10A41000A1FE574BC3E900015648544E01A901F073
:10A420002AFA4FF0FF344FF0FF35A0B9DFF848812A
:10A430004E4C404602F057F9002800F08A80D0E9DF
:10A440000223B3F1FF3F08BFB2F1FF3F36D14046D0
:10A4500002F043F9EDE70378012B21D0022B09D15B
:10A46000DFF81481404602F038F920BB434B01224B
:10A470001A700CE05BB94168D1E90223B3F1FF3FE8
:10A4800008BFB2F1FF3F02D03B4802F016F901A924
:10A49000384801F01BFA01A9364801F0ECF9C4E78D
:10A4A00041683368994202D100233360EFE73248B4
:10A4B00002F01CF9EBE7C0E90245D3E7216891B14E
:10A4C0002168D1E9020182428B412CD22368D3E971
:10A4D0000223B3F1FF3F08BFB2F1FF3F03D0216871
:10A4E000404602F0EAF8404602F0F7F8D0E9025997
:10A4F0000646FFF72FFE281A69EB0109012879F1BA
:10A50000000915DBB0F5350F10D3FFF759FF1C4AD2
:10A5100002441C484FF49603002100F001F978B979
:10A52000236893B1266003B0BDE8F0832A46F0E7C4
:10A530001448002100F07CF93046FFF743FE01E0AB
:10A540000D28F9D00023236073E7384600F0BCF8EB
:10A55000E8E7064B1B68002BE5D1384603B0BDE8A1
:10A56000F04300F0B5B800BFA0230020AC230020CA
:10A57000982300203023002004460200A823002056
:10A58000FFFFB400681A002070B5EFF3108672B6B2
:10A590000C4A9468012384B993600B4B0B4DD3F89C
:10A5A000801029401160C3F88050D3F884105160A6
:10A5B0004FF0FF32C3F884202346037006B962B619
:10A5C00070BD00BFB023002000E100E0FC06FFBD2D
:10A5D00010B5084B9A685AB150B9EFF3108172B6B2
:10A5E000054A1C6814605C685460986001B962B6E2
:10A5F00010BD00BFB023002000E100E0034640583A
:10A6000082B028B100225A505B580193019B01206F
:10A6100002B0704770B5244B4579244E43F825208D
:10A620000446234B234806EBC505C01AC30818048B
:10A630002B7933B140F002001F49FFF785F908205C
:10A6400070BD23680A88C3F8082594F904308A7815
:10A65000002B4FEA4212ADBF03F1604303F00F033A
:10A66000164903F56143B9BFD2B2CA54D2B283F8D6
:10A67000002394F90430002B08DB0122590903F070
:10A680001F0302FA03F30E4A42F82130637906EB06
:10A69000C3020121117140F003000A4946F833401A
:10A6A000FFF752F90020CBE7C4230020BC23002091
:10A6B000046A02003C6A02001E46020014ED00E03B
:10A6C00000E100E040460200036801221A60704782
:10A6D000036801225A607047F7B504684FF480356B
:10A6E0008D40C4F808530468C4F8485301F150047D
:10A6F000A4000668A4B20027375134590194019C84
:10A70000046801F5A87122F07F4244F82120026814
:10A71000C2F8445313B10368C3F8045303B0F0BD47
:10A720002DE9F34799464FF48038036808FA01F899
:10A73000C3F848830368C3F8088322F07F450268A2
:10A740000E46D2F8041502EB860206F15007D2F845
:10A750004035C2F84015BF000268BFB24FF0000A92
:10A7600042F807A05B1AD259009223F07F43012BD5
:10A77000009A04460BD1264B4FF4806043F001034E
:10A780009847236843F807A0DB590193019B23688E
:10A79000D3F80475C3F84483EB1B23F07F43012BEC
:10A7A00006F5A876236819D1013543F82650184BD1
:10A7B0004FF4806043F0010398472368D3F80435D1
:10A7C0009F4209D12368C3F8448323680020C3F85B
:10A7D000048302B0BDE8F0870D20FAE743F8265065
:10A7E0002068D0F804156A1A013AC9F1FF1322F063
:10A7F0007F4203F57F439342EED3002AE2D1013535
:10A8000040F826502368D3F804359942D9E700BFB1
:10A810006046020002680223C2F8443311B10268A4
:10A82000C2F80433704700684FF48271FFF7E6BE48
:10A830004FF4803303FA01F10368C3F84813036847
:10A84000C3F80813704750318900006889B2FFF7D8
:10A85000D5BE0368D3F804057047000090F90430B2
:10A86000002B09DB5A09012103F01F03994002F173
:10A870004003024A42F82310704700BF00E100E0A5
:10A88000024B034A1B681068184700BFC42300200E
:10A89000BC23002070B5064E0546002456F8043B44
:10A8A0000BB1284698470134042CF7D170BD00BF86
:10A8B000C82400204388033300EB830399420BD361
:10A8C00082884FF6FF739A4208D0038833B18068BC
:10A8D000431C58425841704702207047012070477E
:10A8E00068B10268084B9A4209D14068074B984208
:10A8F00007D0013398420CBF01200320704703208A
:10A9000070470020704700BFDEC0ADDEFE011EF1C3
:10A91000C21C92B240F2FE339A4230B51ED8124B9E
:10A92000187838B91C895D892C441444A4B2B4F554
:10A93000806F0AD9187DA0B9988BDC8B2044104415
:10A9400080B2B0F5806F0CD801200880142101FB83
:10A950000033002059890A445A8130BD48F208600A
:10A96000FBE748F20660F8E7002400200B4A0C4998
:10A970005388142000FB0311CB6833B904204968C5
:10A9800010700122074801F0A3BB0749052313708B
:10A9900002238B80012209680023F3E7E8230020CB
:10A9A00000240020FC1C0020F823002007B5002311
:10A9B00005490093054A09680548082301F0E0FAB3
:10A9C00003B05DF804FB00BFF823002074460200CA
:10A9D000FC1C002007B5002301460093034A0448ED
:10A9E000082301F0CDFA03B05DF804FB6C460200C9
:10A9F000FC1C002013B500230C4600930146084AB6
:10AA00000848042301F0BCFA38B90749142202FBB4
:10AA1000041101230B7402B010BD48F20D60FAE777
:10AA200068460200FC1C00200024002037B50A48BC
:10AA30000A4B42689C8819685388032503330570C4
:10AA40009BB2002000909B0001EB8401044801F0C0
:10AA500097FA03B030BD00BFE8230020F8230020A0
:10AA6000FC1C002010B50146044800F0CAFE1C2260
:10AA70000446002109F056FB204610BD2824002082
:10AA80002DE9F0410D460223154F2B80164600F5A7
:10AA9000805100F108044FF001088C420ED2236867
:10AAA00001330BD02046FFF705FF48B10EB186F801
:10AAB0000080022809D14FF480632B80BDE8F0812B
:10AAC000A3683A68934200D93B602B8862880333BD
:10AAD00013442B806388033304EB8304DDE700BF5A
:10AAE000C424002038B5144B14220D4602FB003359
:10AAF0005C682B6804F58051A3B15C88033403EBD8
:10AB000084048C4215D22368013312D02046FFF70B
:10AB1000D1FE012808D002280BD00028F1D12C60EA
:10AB2000012038BD0834ECE76388033304EB830469
:10AB3000E7E70020F5E700BF00240020F7B54368F1
:10AB400005460E461BB1244AD1688B4206D200242A
:10AB50000027022C34802BD1002022E0126993427E
:10AB6000F5D813F00304F2D11C4A018912899142ED
:10AB7000EED101689A689142EAD119494A68934234
:10AB800003D902F5805293420DD38A6993420CD9BE
:10AB900002F58052934208D201233380B4FA84F044
:10ABA000400903B0F0BD2346F7E748F20964F5E732
:10ABB000019701A92046FFF795FF10B90134A4B20F
:10ABC000C7E7019B2A6899689142F2D16B60034BF9
:10ABD0001B892B81E5E700BFFC1C0020E823002037
:10ABE000002400202DE9F0471C46204B1B78074627
:10ABF00088461646002B33D0002A34D0002C32D0A1
:10AC0000DFF86C904FF0140AA588012D02D948F2A4
:10AC1000096023E00AFB05F319F803302BB921463C
:10AC20002846FFF75FFF18B920600135A580EBE7E4
:10AC300023681FB199883A889142F0D1B8F1000F8A
:10AC400004D01988B8F800209142E8D19B6833609D
:10AC500023687360074B1B8933810020BDE8F087B0
:10AC600048F20160FAE748F20460F7E7E0240020C8
:10AC700000240020E823002008B5074B5888191D40
:10AC8000FFF730FF18B1BDE80840FFF7CFBEBDE8C1
:10AC90000840FFF76BBE00BFE82300202DE9F04716
:10ACA0009D4FDFF8788288B006463B6823B99C4800
:10ACB000414600F0E0FD38603D6829784B1E052BC9
:10ACC00000F21481DFE813F0060065006500090159
:10ACD00009017B014EB1934B00215960142203A856
:10ACE00009F020FA4FF4064407E12B79032B1CD816
:10ACF000DFE803F01402313C8B4A1378022B1ED09C
:10AD0000137D022B4FF001031BD114214B43D118AB
:10AD10000020D0544868FFF75DFE03E001232B714B
:10AD2000FFF744FE002800F0D2807E4B0021142261
:10AD300003A8596048F20D6409F0F4F9DDE000233E
:10AD4000E3E7784A002113705160142203A809F048
:10AD5000E9F90024D1E075497548002302222B71DE
:10AD60008A800968012201F0B3F9DBE7714B6E4C70
:10AD70005B886E4A14214B43E11800262E714D6802
:10AD800010681560958848600D810221E654918015
:10AD9000C1E7B5F814A0AA7DDFF88C911423B6B1F1
:10ADA000022A06D903FB0A93EA88198903320A4466
:10ADB0001A811422EB8802FB0A99C3F57F43B9F884
:10ADC0000A10FD330B44A9F80A30002187E703FB82
:10ADD0000A9318895C6804EB8004062A05D8DFE82A
:10ADE00002F0385F4755276B790048F20E64AB7D5F
:10ADF000022B07D9142202FB0A92EB881189033334
:10AE00000B441381142303FB0A99EB88B9F80A2039
:10AE1000C3F57F43FD331344A9F80A3014220021FF
:10AE200003A809F07FF941F61D539C4291D064E0DC
:10AE30004148424900234360AB690360FFF77EFE4F
:10AE4000014630B9142203A809F06CF948F20964EC
:10AE500053E00223AB75002300930423EA18214634
:10AE6000334801F08DF8002831D048F20D64BEE778
:10AE70002B69002B0CBF01230323AB750023009328
:10AE800005F10C02042304F10801E9E70123AB7585
:10AE90000022EB8800922A699B0004F10C01DFE795
:10AEA000032914BF06230523AB7500230093042355
:10AEB00005F10802E118D3E70623AB751F4B19888B
:10AEC0001D4B5868FFF796FD044600288FD108B047
:10AED000BDE8F08741F61D5489E70EB1142274E7EE
:10AEE0002B79012B49D0022B5BD04BB314220021CC
:10AEF00003A809F017F948F20E643B6804941A7825
:10AF0000023A042A00F21281DFE812F0F300FF0097
:10AF100021012901300100BFE4230020E0230020AB
:10AF200028240020E024002000240020F823002012
:10AF3000FC1C0020E8230020D4230020D023002084
:10AF400002232B71CDE904660DF10A01EB6803932E
:10AF500003A8FFF7F3FD10B91422314673E70498F4
:10AF6000BDF80A108388EB8003882B81FFF742FD30
:10AF70000446002C7FF452AFA9E7DFF8F89103AA4A
:10AF80004B463146A81DFFF72DFE044660B9B9F8BF
:10AF900004100498FFF72EFD48F209639842044616
:10AFA000E7D114220021D1E608223146484609F0B3
:10AFB000B9F848F209639C427FF430AFF1E7002E04
:10AFC0008CD16D4B197B1A78B1B11E731A78013A86
:10AFD000062A8BD801A151F822F000BF87B00100EA
:10AFE000ADB00100CBB00100D1B00100EDAE010069
:10AFF000D7B00100E9B00100072AE7D801A151F854
:10B0000022F000BF25B00100CDAF0100CDAF01009F
:10B010004BB001005FB0010083B0010083B00100BC
:10B0200047B001001A89554901321A8100225A801D
:10B030001A730A78B2FA82F252099A720A7DB2FA47
:10B0400082F25209DA72012207E04D4958688A8873
:10B050004088033202448A8002221A70B6E75C8874
:10B06000464A4749142505FB042208685468506085
:10B070008888108102200C608880002111740622CB
:10B08000EBE70722E9E79A7A32B9DA7A8AB900213E
:10B0900019705980596058E6384900229A72CA6876
:10B0A000002AF2D1097C0029EFD05A80FFF7E4FD95
:10B0B0005EE70022DA72314A116A0029E7D192F87C
:10B0C0002420002AE3D00122EFE7FFF7AFFC4FE78F
:10B0D000FFF74CFC4CE75A88284B142101FB023344
:10B0E0005868FFF777FC43E700225A60FFF75EFCE1
:10B0F0003EE701228DF80C201A89ADF818209A88B5
:10B10000ADF81A20DB68059310E002228DF80C20C0
:10B110001A89ADF818209A88ADF81A20DA680592D5
:10B120009B7D9A1F534253418DF81C3003A8FFF7B3
:10B13000B1FB0026414613483E6000F0C7FB1248B1
:10B14000012100F07CFC00287FF4AFADBFE60322B4
:10B150008DF80C20DA88ADF818201A89D0E704227F
:10B160008DF80C20DB88ADF81830DFE705238DF86B
:10B170000C30DBE7C8230020E82300200024002057
:10B18000F823002028240020DC2400204068FFF75A
:10B1900085BD000008B50548012100F038FC18B94C
:10B1A000BDE80840FFF77ABD08BD00BFDC240020E1
:10B1B0002DE9F74398463A4B1B7806460D46002B7F
:10B1C00062D0002963D009884FF6FF73994261D09D
:10B1D0006B88002B5ED06B689B075ED14AB92F89C4
:10B1E0000DF102013846FFF793FB30B103B0BDE823
:10B1F000F08313885788ADF8023001A8FFF732FCBE
:10B20000BDF80220044650B9264B142101FB02333D
:10B2100058890338C01B588148F20760E6E74FF0B1
:10B22000000980F8008080F8169082826B680361C4
:10B2300001211D4800F0F7FBE0602B8823816B881B
:10B24000A380B8F1030FE78012D10423A3753368FC
:10B250001648A361A4F80A9001A900F0FCFA0023A3
:10B260007360E268B372124B32601B89338107E06E
:10B270000E48A4F80A9001A900F0EDFA002EEED1D4
:10B28000FFF788FF0020B1E748F20160AEE748F21F
:10B290000460ABE748F20360A8E748F20260A5E764
:10B2A000E024002000240020C424002028240020C2
:10B2B000E823002008B5034607480268042A08D09E
:10B2C0000168064A42F82130012100F0ACFB002061
:10B2D00008BD48F20B60FBE7D8240020C8240020FA
:10B2E0002DE9F04F774F87B01422002101A808F014
:10B2F00019FF3B7803F0FF081BB101A8FFF7CAFA5A
:10B3000003E0381D00F0A7FB20B10024204607B061
:10B31000BDE8F08FD8F8F83F581C4FF0805237D076
:10B320001269DFF8A4916949C9F810300022A3F529
:10B3300040534846C9F80C3000F0F0FD04460028A0
:10B34000E4D1634963481C238C2200F025FAA3460C
:10B350004FF0030A2546D9F80C605E443046FFF7EB
:10B36000BFFA012866D003281BD000283FD15A49D4
:10B3700014236B43CA18C854566003F110020833F3
:10B380000A4430461944FFF77BFB44F002044EE0C8
:10B390004FF010235B691269591C04BF30235343DB
:10B3A000BFE733685A1C02D04C4A934234D1331D54
:10B3B00006F58052196801312ED104339342F9D138
:10B3C000474B1A682AB902221E609A804FF0010882
:10B3D0000BE014236B4340480221C218C154414B77
:10B3E00056605D8001351181ADB244F001040BF56A
:10B3F000805BBBF5405FAED1BAF1010F06D9E4B274
:10B40000062C39D03DD814F0FD0F3AD100233B7003
:10B4100048F20A647B6079E72F4A14236B43D11802
:10B420000AF1FF3A4E600321D1541FFA8AFA01351E
:10B43000ADB2DCE72A4BB8F1000F0FD0DFF898C0AF
:10B4400014226A430CEB020102200CF802001A6875
:10B450004A60244A088155800135ADB222491E60F8
:10B4600000223046FFF70CFB1D4B9B88022B14BFBC
:10B47000082304231C43BAE701233B7000237B60AD
:10B480003BE76846FFF7EEFAC8B10123013C0370C1
:10B490000A2C09D8DFE804F00608060807080708A0
:10B4A0000F110F000023037169460A4800F0D3F919
:10B4B000FFF770FE29E70323F5E70223F3E748F2DD
:10B4C000076423E7E0240020FC1C00205C48020005
:10B4D000382400202824002000240020DEC0ADDE17
:10B4E000F8230020E8230020FC23002073B50D463C
:10B4F0000446C0B1B9B10DF10601FFF71FFBA8B1B9
:10B500000C4BBDF806206668142000FB02300121B8
:10B5100000F089FA2E6063680C336B600123A3721C
:10B52000002002B070BD48F20460FAE748F20960FA
:10B53000F7E700BF0C24002013B50446A8B10DF1B5
:10B540000601FFF7FBFA98B1BDF806200B4B14215A
:10B5500001FB0233DA6872B1A27A62B1DA680020C4
:10B56000013ADA60A07202B010BD48F20460FAE756
:10B5700048F20960F7E748F20560F4E7002400208C
:10B5800002230022FFF714BE18B103230022FFF7A5
:10B590000FBE48F20460704713B5114B1B78044688
:10B5A000ABB14FF6FF73984214D001A8FFF75AFAD7
:10B5B00098B10523037001230371C48001A90948D0
:10B5C00000F049F9FFF7E6FD002002B010BD48F297
:10B5D0000160FAE748F20360F7E748F20760F4E732
:10B5E000E02400202824002007B50F4B1B78A3B1CE
:10B5F00001A8FFF737FA98B10623037001A90B4899
:10B6000000F029F90A4B1A780AB101221A73FFF7E0
:10B61000C1FD002003B05DF804FB48F20160F9E7CA
:10B6200048F20760F6E700BFE0240020282400204D
:10B63000E823002007B5ADF80600ADF804100DF1C1
:10B64000060001A9FFF7CEFA03B05DF804FB07B5C9
:10B650001346ADF806000A4600200DF10601FFF77B
:10B66000C1FA03B05DF804FB07B51346ADF8060058
:10B670000A460DF106000021FFF7B4FA03B05DF8A9
:10B6800004FB20B119B103680B600020704748F239
:10B69000046070472DE9F0473D4B1B780446002BB2
:10B6A0006FD0002870D0DFF8EC901222002108F053
:10B6B00039FD032323804FF0000A4F4614264FF034
:10B6C0000108B9F80A30B9F80810D9F8040019448B
:10B6D000FFF706F9032808BF2388628804BF03F137
:10B6E000FF33238006FB0A7389B2DB68134463804F
:10B6F000B9F80A2023891344238163890B446381A9
:10B70000C1F58061A38989B28B4238BFA181D9F884
:10B71000041001F1080501F58051A94229D92B68CF
:10B72000013326D02846FFF7C5F801280AD00228A1
:10B7300015D00028F1D1A3880133A3800AE04FF08F
:10B74000010ABEE7E3880133E380E3896A880333B3
:10B750001344E3816B88033305EB8305DDE7E3885E
:10B7600084F810800133E380E389491B03EBA101D6
:10B77000E18109F11409BAF1000FE0D00020BDE821
:10B78000F08748F20160FAE748F20460F7E700BF8B
:10B79000E02400200024002010B561B1B2FBF3F4D6
:10B7A00003FB1424A4B244B9C0E90014846082816C
:10B7B000C381204610BD0E20FCE70920FAE782B0C5
:10B7C00050E8022FC188B2EB324F4FF0000317BF91
:10B7D00092B241EA014142EA014104E04268B2EB1F
:10B7E000324F08BF012340E80212002AE8D18DF849
:10B7F00007309DF80730002B0CBF1120002002B04D
:10B80000704737B550E8013F9DB2C489254484890B
:10B81000A54228BF2D1B0489A54202BFBFF32F8F6D
:10B82000002207E0C5EA030540E80154002CE9D1F5
:10B830004FF001028DF803200193019A0A609DF8F0
:10B84000031001F0FF0321B1006810FA82F003B089
:10B8500030BD1846FBE70A884B889A4209D150E868
:10B86000012FC2EA024240E80123002BF7D1012058
:10B8700070470020704737B550E8023F1FFAA3F524
:10B88000C488A54202BFBFF32F8F00220DE0C489F8
:10B8900025448489A54228BF2D1BC3EA054540E8FD
:10B8A0000254002CE8D14FF001028DF803200193DF
:10B8B000019A0A609DF8031001F0FF0321B10068AE
:10B8C00000EB124003B030BD1846FBE70A884B88F6
:10B8D0009A4209D150E8022FC2EA224240E80223EC
:10B8E000002BF7D1012070470020704701F01F02A4
:10B8F0004B090121914000EB830000F064B84B0933
:10B9000010B501F01F040121A14000EB830000F0FD
:10B910004EF8E04000F0010010BD01F01F030122CD
:10B920009A404B0900EB8300D14300F064B84B0907
:10B9300001F01F0150F82300C84000F001007047DB
:10B940002DE9F0474F1E7F0980460E46013700253E
:10B9500058F8254008EB8509E44394FAA4F4A4B10F
:10B96000B4FA84F44FEA451A5444A6420DD921464C
:10B970004046FFF7C4FF60B1D9F80040E44394FAB1
:10B98000A4F414B1B4FA84F4EEE70135BD42DFD378
:10B9900034462046BDE8F08710B5034653E8000F53
:10B9A0000A4643E8002494F0000FF7D110BD10B50B
:10B9B000034653E8000F40EA010243E8002494F0F4
:10B9C000000FF6D110BD10B5034653E8002F42EA30
:10B9D000010043E8000494F0000FF6D110BD10B54B
:10B9E000034653E8000F00EA010243E8002494F004
:10B9F000000FF6D110BD10B5034653E8002F02EA40
:10BA0000010043E8000494F0000FF6D110BD10B51A
:10BA1000034653E8000F00EB010243E8002494F0D2
:10BA2000000FF6D110BD10B5034653E8002F02EB0E
:10BA3000010043E8000494F0000FF6D110BD10B5EA
:10BA4000034653E8002FA2EB010043E8000494F002
:10BA5000000FF6D110BD0121FFF7A9BF0121FFF7AB
:10BA6000B2BF0021FFF7BBBF10B590B1D0E90123F1
:10BA700001689B1ADBB20A60013BDBB2FF2B026854
:10BA800002D10020107110BD11684C1C14600B70A5
:10BA9000F2E70E20F7E737B5044600250DF1070061
:10BAA0008DF80750FEF770FD2268616813688B42BD
:10BAB00010D9591E1160216813F8010C258AE3681A
:10BAC000A2680C68121B0C79D2B2944238BF0A717A
:10BAD00005FB00359DF80700FEF77AFD284603B008
:10BAE00030BD37B5054600230DF107000C468DF833
:10BAF0000730FEF749FD2A681368591C1160EA688F
:10BB0000A41A2A8AB4FBF2F41C709DF80700FEF711
:10BB10005FFD03B030BD10B5826804462AB14369A9
:10BB20000168006998470023A36010BD0EB403B5F7
:10BB3000039921B104AB01AA019300F077F802B098
:10BB40005DF804EB03B070470A2938B504460D468A
:10BB500002D10D21FFF7F8FFA3682268591CA160EC
:10BB6000D554D4E901329A4204D32046BDE8384086
:10BB7000FFF7D1BF38BD00002DE9F84F9946DDE948
:10BB80000A431546824688460A460127AA420FD232
:10BB90004F4538BF4F4613F0010B01D164B9002463
:10BBA0000126B9F1010F1CD909F1FF396E43F8E7FD
:10BBB0000137B2FBF5F2E9E79B0710D5B9F1000FA9
:10BBC00014BF20263026BC42EAD9013C31465046FB
:10BBD000FFF7BAFF002CE2D0BC42F6D1E0E7202606
:10BBE000F1E7B8FBF6F39D42E0D9DFF83C90B8FBF3
:10BBF000F6F3504619F8031006FB1388FFF7A4FF6D
:10BC00003346AB42B6FBF5F6F1D2BBF1000F00D0E4
:10BC100034B9BDE8F88F20215046013CFFF794FF6E
:10BC2000BC42F8D8F5E700BF7C4602002DE9F74F8B
:10BC3000064617468846002900F06C8118F8011B5B
:10BC400049B9337B002B00F06581304603B0BDE875
:10BC5000F04FFFF760BF252940F09380002598F84A
:10BC600000102D29424608F1010806D0302907D0DE
:10BC70002B2908D145F00405F1E745F00105EEE771
:10BC800045F00205EBE72A2943461AD13B681A1D05
:10BC90003A601C68424613782E2B21D101324FF0B6
:10BCA000000A4FF00A0C104610F8011BA1F1300EEB
:10BCB000BEF1090F16D80CFB0A11A1F1300A024699
:10BCC000F1E7002413F8011CA1F130000928E2D8A3
:10BCD0000A2202FB0411A1F130041A460133F1E7F4
:10BCE0004FF0000A12F8011B01F0FB006828904693
:10BCF000F8D0782909D86F290CD863293DD021D8EC
:10BD000025293ED0582900F0B18098F80030002B4A
:10BD100094D196E770390829F7D801A252F821F09A
:10BD2000E7BE01000BBD01000BBD01007DBE01009F
:10BD30000BBD01005BBE01000BBD01000BBD01008E
:10BD40006DBE0100642901D06929DED13A68111D58
:10BD50003960D2F800B08BEAEB72A2EBEB724FF0D5
:10BD600001090A21092A10DCD14538BFD1468CB916
:10BD70000024BBF1000F25DA4BE03B681A1D3A6046
:10BD800019783046FFF7E0FEBFE709F10109B2FB81
:10BD9000F1F2E7E7BBF1000F05F0020225DB6807CF
:10BDA00050D452B9E90740F1B18005F00302022AEC
:10BDB0003FD1BAF1000F3CD10CE0BAF1000F05D031
:10BDC000EA0717D569072AD52B2125E005F00302DC
:10BDD000022A2ED1A1452CD2013C30213046FFF75A
:10BDE000B3FE2CB3A145F7D123E0013C72B9EB07B8
:10BDF0000FD474B14C45BCD9013C20213046FFF72B
:10BE0000A3FE002CB4D0A145F6D1B2E7BAF1000FE1
:10BE1000EDD1CBF1000B2D213046FFF795FE05F05B
:10BE20000302022A05D1BAF1000F02D1002CD1D1B0
:10BE30000024CDE9004553460A2259463046FFF713
:10BE40009BFE62E7013C22B9E807BBD4002CD1D1AC
:10BE5000B8E7BAF1000FB5D0F6E739680A1D3A60C5
:10BE6000CDE9004553460A220968E7E739680A1D0B
:10BE70003A605346CDE900451022F5E73B681A1DAC
:10BE80003A6015F00105D3F8009024D1B9F1000F04
:10BE900003D0484608F080F90546AC421DD809F1A8
:10BEA000FF3919F8011F00293FF42FAF3046FFF783
:10BEB0004BFEF6E730460135FFF746FE19F8051050
:10BEC0000029F7D1A542BFF420AF20213046013C24
:10BED000FFF73AFEF6E70025F0E720213046013C67
:10BEE000FFF732FED9E73B681A1D3A603021304631
:10BEF0001C68FFF729FE78213046FFF725FE002257
:10BF00000823CDE900322146102297E74C453FF641
:10BF100073AF57E703B0BDE8F08F00BF13B50B4612
:10BF2000114680B9104B1148114AC01A0E23C0089F
:10BF30000093104B0004104940F00100FDF71BFD79
:10BF40000E2002B010BD4BB9074B08480B4AC01A6F
:10BF5000C0080E2300930004064BECE703601B6847
:10BF600002B0BDE810401847046A02005C6A020093
:10BF70008C4602003B48020091460200C046020087
:10BF80002DE9F34188B9464B4648474AC01A0E236B
:10BF9000C0080093454B000440F001004449FDF700
:10BFA000EAFC0E2002B0BDE8F0814AB93C4B3D48A6
:10BFB000404AC01AC0080E23009300043B4BEBE735
:10BFC000D0F800E0BEF1000F0FD1354B35483A4AAA
:10BFD0003749C01AC0080824000440F00100334B60
:10BFE0000094FDF7C8FC2046DCE77BB92C4B2D48BC
:10BFF000324AC01A0923C00800932C4B000440F0B9
:10C0000001002B49FDF7B7FC0920CBE74768D7F8BB
:10C010000480B3FBF8F708FB17374FB1204B2148DA
:10C02000274AC01AC0080923009300041F4BE6E703
:10C030008F070FD01A4B1B48224AC01A1023C00882
:10C0400000931A4B000440F001001949FDF793FCDE
:10C050001020A7E712F0030F09D0114B11481A4A1C
:10C06000C01AC008102300930004104BEBE7C76808
:10C07000B9420BD305694C1E1C44AC4206D8DEF80D
:10C080000C40A44602B0BDE8F0416047044B0548AF
:10C090000E4AC01AC008102300930004034BD2E7D5
:10C0A000046A02005C6A02008C4602002848020012
:10C0B000914602000E470200BA460200CD46020039
:10C0C000144702003E47020056470200794702002B
:10C0D000F7B580B92D4B2E482E4AC01AC0080E2441
:10C0E0002D4B009400042D4940F00100FDF743FC66
:10C0F000204603B0F0BDD0F800C0BCF1000F09D15C
:10C10000224B2348264AC01AC0080824224B009418
:10C110000004E8E74AB91D4B1D48224AC01AC0086E
:10C1200009241D4B00940004DDE74768D7F800E0C0
:10C130000EF1FF370F420FD0144B15481A4AC01AA0
:10C140001023C0080093144B0004144940F0010070
:10C15000FDF711FC1024CBE7C768B9420CD3056981
:10C160004C1E0EFB0244AC4206D8DCF81040A4463C
:10C1700003B0BDE8F0406047044B05480B4AC01AC5
:10C18000C008102300930004034BDEE7046A02009A
:10C190005C6A02008C4602001548020091460200CB
:10C1A000BA460200CD460200A0470200C647020080
:10C1B00029DF704728DF704770B50668B36886B01E
:10C1C00004460D4673B114220021684607F0AAFF09
:10C1D000A36805932379019533B1012B0ED0B36881
:10C1E0006846984706B070BD01238DF8003023697A
:10C1F0000293E368039363690493F0E702238DF8E5
:10C200000030E3681B030293F5E7084670470020FF
:10C2100070470000024B187A003818BF01207047A1
:10C22000F0240020034B187A0122B0FA80F05A74EF
:10C2300040097047F024002008B510461A4607F060
:10C240009DFF002008BD000008B51422002104480D
:10C2500007F068FF0348FFF7B2FA002008BD00BFEF
:10C26000F02400200425002010B5094C094B436040
:10C270002046FFF7F0FB40B907F0BCFD06492074EB
:10C280001C2306488C22FFF787FA002010BD00BF50
:10C29000F02400207C480200142500200425002002
:10C2A00038B5234C234D237A3BB923492348FFF764
:10C2B000E2FA286008B9606038BD022323722B6857
:10C2C0001A7972B1012A24D028680321FFF774FF7C
:10C2D000002323726360BDE8384017491748FFF711
:10C2E000F5BAD3E90520121AB2F5805FD3E903133A
:10C2F00028BF4FF480529208012A014438BF01221E
:10C300001844FFF755FF50B11128DDD101232372E6
:10C31000D2E7D3E903031844FFF74CFFF3E7237C8C
:10C32000002BC9D1BDE83840022000F009B800BF99
:10C33000F0240020EC240020E82400200425002024
:10C3400038B5244C237A0246002B41D0022B09D168
:10C35000032826D0204B18680023E36003793BB103
:10C36000012B18D0637C7BBBBDE83840FFF798BF3A
:10C37000D0E90513CD1AB5F5805F94BF5B1903F5BD
:10C38000805383619942EDD10023022A237214BFA6
:10C390000D21194611E003694169013303618B42A4
:10C3A000F1E7E3680133082B01D8E360DAE7002303
:10C3B000E3602372084B18680D21FFF7FDFE074963
:10C3C0000748FFF783FACDE7BDE8384007F002BD24
:10C3D00038BD00BFF0240020EC240020E824002019
:10C3E00004250020831E012B01D8FFF7A9BF704749
:10C3F00000F0FD03012B08D1044B00225A74421EA9
:10C40000504250411874FFF74BBF7047F024002092
:10C4100008B50648FFF71FFB30B9054B5B7C1BB91D
:10C42000BDE80840FFF73CBF08BD00BFF424002072
:10C43000F02400202DE9F34180460D460F4801A964
:10C4400016461F46FFF7DDF90446A8B11C2200215D
:10C4500007F068FE2D0B0123237101A90748C4F8DA
:10C460000080A760E5606661FFF7F5F9FFF7D0FF90
:10C47000002002B0BDE8F0810420FAE70425002086
:10C480002DE9F74381468846104801A917461E4604
:10C49000FFF7B7F90446B0B11C22002107F042FEB5
:10C4A00000250A9BA36001A9C4E903780748257108
:10C4B000C4F800906661FFF7CEF9FFF7A9FF2846A0
:10C4C00003B0BDE8F0830420FAE700BF0425002094
:10C4D0002DE9F84FB0F806A04579D2F800B09DF8E4
:10C4E00028900AFB05F5043D88460BEB0301A942A1
:10C4F00003F1040488BFA5EB030BB4FBFAF607466F
:10C500000AFB1644C2F800B04EB9AAEB04055D451B
:10C5100028BF5D46BBF1000F04D1BDE8F88F3F682E
:10C52000013EF1E7043408EB06003C442A46B9F129
:10C53000000F0DD02146ABEB050B07F01FFEDA45CF
:10C540002E443F6855464FF0000428BF5D46E1E7A2
:10C5500001462046EFE7FFF787BAF8B5467901466E
:10C56000721E0546002393422D6803D30024A64281
:10C5700002D8F8BD0133F6E70F682846FFF7B1FA95
:10C5800001343946F3E72DE9F041CD1C078A064610
:10C59000FFF781FA043F3D440446B5FBF7F5D0B1FF
:10C5A0004FF48073EDB2C7808380013D0660804602
:10C5B0000027AF4210D23046FFF76DFA40B16379E1
:10C5C000013363710137C8F8000006608046F0E768
:10C5D0002046FFF7C2FF00242046BDE8F08101217C
:10C5E0000430FFF720BA10B5012104460430FFF7EC
:10C5F00026FAC0B220B92046BDE81040FFF7ADBF13
:10C6000010BD1FB503920022009203AAFFF760FF3E
:10C6100005B05DF804FB1FB503920122009203AA46
:10C62000FFF756FF05B05DF804FB41DF70470000DF
:10C63000064B10B500241C70054B1C60BFF35F8FC8
:10C640000449054800F024F8204610BDA825002024
:10C65000AC25002088480200A025002008B507F07E
:10C66000C9FB18B1BDE80840FFF7DFBF20BF40BFDE
:10C6700020BF08BD826800239360826813618268CE
:10C6800053618268D3608268536082681360704728
:10C6900001600B6843604A68934208BF002343600F
:10C6A0007047436843B1026891680B444360526825
:10C6B000934204BF00234360704770B54468064648
:10C6C0000D46206818B1B3682946984718B9236801
:10C6D0002B60256070BD2468F3E74368186808B1D3
:10C6E00002681A60704743681868704743681868A2
:10C6F00000B97047884203D102681A600120704770
:10C7000003460068F4E7000010B50B4AA2F59473E5
:10C710009A4201D800200CE0D11A091103EBC104A0
:10C7200053F83110814205D802D204F10803EFE733
:10C73000606810BD2246EBE7884D020008B5FFF7A0
:10C74000E3FF024B002808BF184608BD884D0200D1
:10C75000D1E90023097B00290ABF134600220122E8
:10C7600003600271704710B503684A688968D41A7B
:10C770008C428BBF5B1800230360026098BF03717B
:10C7800010BD10B503680A6889689C1A8C428BBF7B
:10C790005B1A01230360026098BF037110BD10B5DE
:10C7A000037904461BB1FFF7DEFF206810BDFFF7D9
:10C7B000E8FFFAE7024AD2F80034002BFBD07047BA
:10C7C00000E0014010B54FF08053D3F830210A2A21
:10C7D0005BD1D3F844224FF08041C2F34232C1F81A
:10C7E0003C250022C1F80C21C1F81021C1F83825E0
:10C7F000484AD3F80404C2F82005D3F80804C2F864
:10C800002405D3F80C04C2F82805D3F81004C2F8A4
:10C810002C05D3F81404C2F83005D3F81804C2F874
:10C820003405D3F81C04C2F84005D3F82004C2F83C
:10C830004405D3F82404C2F84805D3F82804C2F804
:10C840004C05D3F82C04C2F85005D3F83004C2F8D4
:10C850005405D3F83404C2F86005D3F83804C2F89C
:10C860006405D3F83C04C2F86805D3F84004C2F864
:10C870006C05D3F84434C2F87035D1F80034DB07C6
:10C8800009D56FF00103C1F800344FF08053D3F89D
:10C8900030310A2B0CD14FF08053D3F834313BB1F7
:10C8A0004FF08042D2F8E43E43F00F03C2F8E43E7A
:10C8B0004FF01023D3F80022002A03DBD3F8043210
:10C8C000002B22DA144901234FF01020C1F804355F
:10C8D0001524FFF76FFFC0F80042FFF76BFFC0F8A9
:10C8E0000442FFF767FF0023C1F80435FFF762FF3A
:10C8F000BFF34F8F09490A4BCA6802F4E062134341
:10C90000CB60BFF34F8F00BFFDE7064B064A1A60AE
:10C9100010BD00BF00C0004000E0014000ED00E09D
:10C920000400FA05701A00200090D003054A4FF069
:10C93000A043125CD3F8043523FA02F0C04300F0A0
:10C94000010070479B4D0200044B1A5C0123934089
:10C950004FF0A042C2F80C35704700BF9B4D02005B
:10C96000044B1A5C012393404FF0A042C2F80835F3
:10C97000704700BF9B4D020008B50020FFF7F0FF95
:10C98000BDE808400120FFF7EBBF08B50020FFF726
:10C99000DBFFBDE808400120FFF7D6BF074A4FF094
:10C9A000A041105CD1F804350122824022EA030044
:10C9B0001340C1F80805C1F80C3570479B4D0200C3
:10C9C0004FF0A043D3F810056FEA506000F001006B
:10C9D0007047193818BF4FF0FF3070471920704763
:10C9E000C20708B5014608D54FF0A0430322C3F89B
:10C9F0004827C3F85027FFF7BFFF8B0742BF4FF010
:10CA0000A0430C22C3F8642708BD000038B5074CCA
:10CA1000051E04F1080318BF1C4623682BB11A68D1
:10CA200022605B6828469847F7E738BDB8250020A4
:10CA300020B9054B01225A70FFF7E8BF012802D147
:10CA4000014A9070F8E77047B025002020B9034BE9
:10CA500001225A70FFF7DABF704700BFB0250020EF
:10CA600038B50E4C2378B3B90D486360A3602361D9
:10CA7000E36000F075F8054607F0BCF908B900F06E
:10CA80007BF801232370074BD3F800340BB101234B
:10CA9000A370284638BD8525F5E700BFB0250020E6
:10CAA00031CA01000000014037B50D4C00230DF1E3
:10CAB00007008DF80730FDF767FDE368013BE36091
:10CAC000E36833B9074BD3F8005415B900F066F8A2
:10CAD000A5709DF80700FDF77BFD03B030BD00BFDA
:10CAE000B025002000000140012813B50CD0032818
:10CAF00020D038B9134B0122C3F88020BFF34F8FE9
:10CB0000BFF36F8F02B010BD0F4C00230DF1070073
:10CB10008DF80730FDF738FD23780BB9FFF7A0FF3C
:10CB2000E3689DF807000133E3600123A370FDF77C
:10CB30004FFDE7E700F020F802B0BDE81040FFF736
:10CB4000B3BF00BF00E100E0B025002000F180404D
:10CB5000002382B0036003680193019B02B0704719
:10CB6000044B0246187918B91A6001229A8070475E
:10CB700085207047C4250020074B1A68D20704D4CB
:10CB8000C02283F8002301221A604FF08043012263
:10CB9000C3F81825704700BF00E100E04FF0804265
:10CBA00008B50223C2F808334FF48270FFF7CEFFB6
:10CBB0000123D360D2F81834DB03FBD408BD000096
:10CBC00010B54FF08041D1F8003163B14FF480705F
:10CBD000FFF7BCFF01220D4BC1F80823587910B9AB
:10CBE0005A711B6898474FF08042D2F8043163B104
:10CBF0004FF48270FFF7AAFF0223C2F80833034BF9
:10CC0000BDE810401B680120184710BDC425002056
:10CC100000F1804000F5C040002382B0036003684B
:10CC20000193019B02B07047800000F1A040D0F852
:10CC3000003723F44033C0F80037D0F8003743EA18
:10CC40000143C0F800377047054B4FF0FF3207280B
:10CC500043F8202084BF1B1883F84820704700BF8A
:10CC6000CC25002010B5194C94F858305BBB4FF020
:10CC7000FF3204F1300122FA03F0C00748BFCA5462
:10CC80000133202BF7D10021C8B20131FFF7DCFFBF
:10CC90000C29F9D1042200210D4807F043FA0D4B6D
:10CCA000C02283F8062340221A604FF4BE70FFF7BB
:10CCB000AFFF094B4FF00042C3F80423012384F86F
:10CCC0005830002010BD0820FCE700BFCC25002014
:10CCD0002026002000E100E000600040034B93F8B4
:10CCE0005800003818BF0120704700BFCC25002035
:10CCF000F0B53B4E331893F93030002B6DDA8F7856
:10CD0000C7F34007002F15BF002308234FF0080C7E
:10CD10004FF00C0C634501D10420F0BD56F82350B0
:10CD200001354FEA830442D106EB000C5DB246F8B0
:10CD300023208CF8305017B9334483F848008B789F
:10CD40005F0716D4DA0734D5830003F1A043D3F884
:10CD5000002722F00202C3F80027224FC20800F089
:10CD6000070C012303FA0CF317F802C043EA0C0383
:10CD7000BB548B780A789B0724D504F1804303F5D4
:10CD8000C0430002D3F8101521F4473121F440715B
:10CD9000C3F810151204D3F8101500F4F85002F47B
:10CDA000403210430843C3F810050020B5E70133B3
:10CDB000B0E74A7800F5E0734FF0A047920047F8DB
:10CDC0002320CAE7A5F1080346FA83F393F850102D
:10CDD00041EA821283F85020E7E708209DE700BF70
:10CDE000CC2500202026002038B5204C251895F9A8
:10CDF0003020072A18DD083A44FA82F292F85030BF
:10CE00009B09032B0BD14FF0A043D3F81015C14061
:10CE100001F001010231BDE83840FFF705BF012BE9
:10CE20000CBF02210321F6E7D3B2072B1CD89300D5
:10CE300003F1804303F5C043D3F8100540F001002F
:10CE4000C3F8100502F1400040B2800080B2FFF745
:10CE5000DFFE49B195F9303054F8233023B1012376
:10CE60009340034AC2F8043338BD00BFCC250020EC
:10CE7000006000404FF0A043D3F8103523FA00F0D3
:10CE800000F00100704700002DE9F34700244F4DEA
:10CE900001944FF48072012102F1804303F5C043F5
:10CEA0001B68012B07D1D5F804330B4203D090B295
:10CEB000FFF7AEFE0C430432B2F5907F4FEA41011A
:10CEC000EAD1424BD3F87C31012BE2B229D14FF4A5
:10CED000BE70FFF79DFE4FF0A043D3F820150191DF
:10CEE000C3F820150AB344F00044394F0025012649
:10CEF000344210D0AB0003F1804303F5C043D3F8B4
:10CF00001005D3F8101557F8253023B1C1F30141AE
:10CF1000C0F3042098470135082D4FEA4606E7D1B3
:10CF200001E0002AE1D1002C48DA294C4FF0A0475B
:10CF3000284D4FF00008012615F9013F5A1C31D049
:10CF4000C3F3C20108316944DAB211F8041C03F0DA
:10CF50003F0903F0070306FA03F3194222D009F54B
:10CF6000E073484657F82330C3F3014ABAF1020F81
:10CF70000CBF03210221FFF757FE06FA09F3C7F899
:10CF8000203504EB090393F9303054F823304BB1CA
:10CF90009109032904D0BAF1020F12D1012901D15C
:10CFA0004846984708F10108B8F1040FC4D1D7F8F2
:10CFB00020350193C7F82035002BB9D102B0BDE868
:10CFC000F087BAF1030FEDD10229E8E700600040D5
:10CFD000CC2500201B260020014B1B68184700BFF2
:10CFE000282600200220FFF7D9BC000008B5074B17
:10CFF0001B783BB10020FFF7B3FCBDE808400120DF
:10D00000FFF7AEBCBDE80840FFF7B6BC3C260020E9
:10D01000F8B5884D2B7804461BB100232B70FFF721
:10D02000E5FF172C00F2A280DFE814F018002300BF
:10D0300023004E006E007F0090009A00A200A7001F
:10D04000A200A700AF00B400B400B400B400B40064
:10D05000DE00E300EB00F300FE00FE00FFF7C6FF7A
:10D060007548FDF785F9754B002205461A7028466C
:10D07000F8BD0020FFF75AFCF0B10020FFF770FC6C
:10D08000022C0CBF4FF4E1654FF47A656B4B1C70BA
:10D0900000244FF400464FF47A7021464FF4FA62B0
:10D0A0000023E5FB060107F089F822460146BDE8AA
:10D0B000F8406148FDF72CB9FFF746FC022C0CBF85
:10D0C000C8254FF4C875E1E70020FFF72FFCB8B181
:10D0D0000020FFF745FC4FF44874584B032200250D
:10D0E0004FF400464FF47A7029461A70E4FB0601AB
:10D0F0004FF4FA62002307F061F82A460146D6E7AA
:10D10000FFF722FCC824E8E70020FFF70FFC38B146
:10D110000020FFF725FC4FF47A64484B0422DEE739
:10D12000FFF712FC4FF4C874F7E70020FFF7FEFB8F
:10D1300048B10020FFF714FC404B05221A7040F65E
:10D14000CD410022B3E7FFF7FFFBF5E70020FFF733
:10D1500025FC3A4B06221A70002240F26661A6E7CF
:10D160000020FFF7F1FB354B07221A7000257EE700
:10D1700001202870FFF712FCEEE701202870FFF76E
:10D180000DFC00224FF4005191E7FFF7FEFB2B4B03
:10D190000C22EAE72A482B4EFDF7EAF8D4F11104F5
:10D1A00005461CD0D8B9012C13D0C8235C432946AE
:10D1B0004FF400474FF47A704FF4FA620023C4FB37
:10D1C000070106F0FBFF2A4601461D48FDF7A0F8BF
:10D1D00005460220FFF7B8FB0123337047E7022022
:10D1E000FFF7BEFB0023F8E7FFF700FF134B122207
:10D1F000BBE7FFF7FBFE0020FFF7A6FB0F4B132258
:10D20000B3E7FFF7F3FE0120FFF79EFB0B4B142261
:10D21000ABE7FFF7EBFE0020FFF796FB0120FFF7DF
:10D2200093FB064B1522A0E7FFF7AFFB034B1C70E7
:10D230009CE700BF44260020B81A002045260020A5
:10D24000981A00203C260020044B1B68DB0703D5FE
:10D25000034B1878FFF7DCBE704700BF4026002064
:10D26000452600202DE9F04106460C46FFF7B1FBAC
:10D2700068B9012C0DD0022C25D044B91348FDF714
:10D2800077F8134B9C78134B1B78A34211D0BDE861
:10D29000F0810F4D6B782C7843B10F4F0B483A4615
:10D2A0004FF48041FDF734F800B93E70094BAA787D
:10D2B0001A70002CEBD0094B1B68002BE7D02046DE
:10D2C000BDE8F0411847024B5C78F2E7781A00207D
:10D2D000322600203026002031260020382600206B
:10D2E00000780221FFF7BEBF002810B54FF0000004
:10D2F0000CBF00240324FFF771FB800000F1A04065
:10D30000D0F8003723F44033C0F80037D0F80037A6
:10D3100043EA0443C0F80037002010BD08B9FFF706
:10D320004FBB002070470000044B1B6813F0010343
:10D3300001D0FFF76DBE1846704700BF40260020A1
:10D3400038B5214B1860214B1960830700F00104A8
:10D3500011D4FCB10120FFF743FB1D4A1D480021F9
:10D36000FCF7C4FF0446A8B9BDE838401A4A1B4878
:10D370000121FCF7BBBF1A4B1A480E221A70152266
:10D380009A70012140F23332FCF76EFD054618B168
:10D39000ACB92C46204638BDFCF7BEFD054600283A
:10D3A000F6D10146104A1148FCF7A0FF0546002CB3
:10D3B000EFD00120FFF714FB002DEAD1CDE70120CB
:10D3C000FFF70EFBE5E700BF4026002038260020CF
:10D3D00049D20100D04D0200E5CF0100CC4D020042
:10D3E00032260020C04D0200E1D20100C84D0200EB
:10D3F00060B9012A05D1012905D10E22074B1A7007
:10D4000070470129FAD0022902D021B107207047C4
:10D41000024B5A707047014B9A70704732260020B9
:10D4200010B90120FFF760BF06207047012208B540
:10D4300002211046FFF7DCFF08B1072810D10722B0
:10D4400002210120FFF7D4FF08B1072808D10A22E2
:10D4500000210120FFF7CCFF10B1072808BF0020F2
:10D4600008BD000010B50388102B02D0112B22D06C
:10D4700010BD194C2168D1B901221046FFF7B8FF41
:10D4800008B107280FD1072202210120FFF7B0FFC2
:10D4900008B1072807D1042202210120FFF7A8FFC5
:10D4A00028B1072803D00D4B1B6803B198472368A8
:10D4B00001332360DCE7084A1368013B1360002B4B
:10D4C000D6D1FFF7B3FF0028D2D0044B1B68002B46
:10D4D000CED0BDE810401847482600204C2600203A
:10D4E00008B50020FFF79CFF08B1062806D10120EF
:10D4F000FFF796FF10B1062808BF002008BD000006
:10D500000D4B10B518600C4629B10120FFF706FF3E
:10D5100040B102232370094B1B6853B9BDE810408A
:10D52000FFF784BFFFF7FAFE08B10B23F2E7207084
:10D53000F1E7002010BD00BF4C2600204826002047
:10D5400076DF704778DF70477ADF70477CDF70479F
:10D550008FDF704733DF70474FF0A0430122C3F8DD
:10D560000C25704708B5FCF7EDFC4FF0A0430122F5
:10D57000C3F80C2508BDFFF7F5BFFFF7F3BFFFF7B2
:10D58000F1BF000008B510491048FFF708F94FF641
:10D59000FE72C1B20E4805F006FC38B1132806D859
:10D5A000072808D90B4BC340DB0704D508BD43F25D
:10D5B00001439842FAD0FCF7C5FC4FF0A04301228A
:10D5C000C3F80C25F2E700BF642700205C27002089
:10D5D0008828002000810A0008B50020FFF7A4FE7B
:10D5E00008B1FCF7AFFCFFF77BFF08B1FCF7AAFC22
:10D5F000FFF7B0FF18B1BDE80840FCF7A3BC08BDB9
:10D600007FB508220346019201A94FF6FF7202A8D6
:10D6100003F06AFE08B1FCF795FC019902A803F03B
:10D620003BFE08B1FCF78EFC07B05DF804FB000080
:10D6300000B5B3B008286BD8DFE800F04B0519201F
:10D640002C3844506D003F483F4B4049C01AC00839
:10D65000000440F00300FCF777F90520FFF764FEB3
:10D66000002855D033B05DF804EBFCF76BBC3548AF
:10D67000354B3749C01AC0080004EAE7324B31483D
:10D680003449C01AC008000440F00300FCF75CF9FC
:10D690000220E3E72C4B2B482F49C01AC008000496
:10D6A00040F00300FCF750F90420D7E72548264B4B
:10D6B0002A49C01AC008000440F00300FCF744F9EE
:10D6C0000320CBE71F48204B2549C01AC00800049F
:10D6D000F2E733B05DF804EBFFF77EBF0823CDE936
:10D6E000023312AA03AB02A904A803F0BFFD08B1DC
:10D6F000FCF728FC0220FFF783FF039B0093029AAC
:10D70000184812AB04A901F073F908B1FCF71AFC30
:10D7100033B05DF804FB144B18884FF6FF73984242
:10D72000F6D012A903F0AAFE0528F1D008B1FCF743
:10D7300009FC0620FFF764FF0DF15901094801F0CB
:10D7400048F9E2E72C6A0200046A0200D44D0200A4
:10D75000DE4D0200F44D0200064E0200184E02009B
:10D76000394E020074270020582700207FB5082377
:10D7700001934FF6FF72012301A902A803F0B4FD43
:10D7800008B1FCF7DFFB0B4B0B48019A0B49C01AA1
:10D79000C008000440F0030008230132FCF7E1F860
:10D7A000019902A803F058FD08B1FCF7CBFB07B0C4
:10D7B0005DF804FB046A02002C6A02005A4E020063
:10D7C00010B5044604F038FB204604F059FB20460F
:10D7D00004F0EAF82378092B13D00D2B05D0032B86
:10D7E00002D1124BA2881A8010BDFFF7BFFF10486C
:10D7F000032100F0BCFF0028F6D0BDE81040FCF784
:10D80000A1BB237CDB07EFD5237A072BECD1094B97
:10D8100009480A49C01AC008000440F00300FCF798
:10D8200093F8BDE81040FFF7A1BF00BF58270020C4
:10D8300074270020046A02002C6A0200874E02004E
:10D84000F7B5184C94F83E30ABB194F83C50A0B109
:10D850000C235D436619144B77781B88009373681B
:10D86000B0683A46002106F03FF9132805D17378D5
:10D87000BB4202D3675503B0F0BD94F83C300C2294
:10D8800002FB034200215160013394F83E20DBB2D9
:10D89000013A052B84F83C3084F83E2008BF84F818
:10D8A0003C10E8E718270020021B002037B5058848
:10D8B0003B2D044653D007D8112D2CD0212D42D01A
:10D8C000102D0BD003B030BD562D48D0572DF9D1B7
:10D8D000012003B0BDE83040FFF7B2BF224B234820
:10D8E0002349C01AC008000440F00300FCF72CF8DC
:10D8F0000720FFF719FD08B1FCF724FB1D4BA18899
:10D900001D48198002F0DCFD0028DBD003B0BDE823
:10D910003040FCF717BB144B14481849C01AC00814
:10D92000000440F00300FCF70FF80020FFF788FF29
:10D93000104B4FF6FF721A80114B002228461A70C6
:10D94000FFF7F2FCE0E700238088ADF8043001A97E
:10D95000FFF7FEFD0028B5D0FCF7F4FAB2E7A08887
:10D960001321FFF7EDFDCFE7046A02002C6A0200E5
:10D97000BB4E0200021B00206C280020C54E020096
:10D980005A2700202DE9F341214B224F1B88009399
:10D9900002460B46064688463846002106F0A4F8A3
:10D9A00013281AD11C4C94F83E20062A12D094F861
:10D9B0003D500C20684301352318EDB20132052D8E
:10D9C000C3E9018726545E7084F83E201CD10023F1
:10D9D00084F83D3002B0BDE8F0810028FAD0132869
:10D9E0000DD8072803D90D4BC340DB07F2D4FCF751
:10D9F000A9FA4FF0A0430122C3F80C25EAE743F24D
:10DA000001439842F3D1E5E784F83D50E2E700BFD7
:10DA1000021B0020041B00201827002000010A0020
:10DA200037B52E4B2E4C2F49E41AE408240444F059
:10DA30000304054602462046FBF78AFF0E2D0CD84C
:10DA4000032D0CD9043D0A2D09D8DFE805F016088E
:10DA500008210808130808082B00152D35D0224886
:10DA6000FCF786FC00224FF434111F48FCF750FCF1
:10DA700003B030BDFFF7B0FDF1E71C4B1321188850
:10DA8000FFF75EFD30F00803E9D0FCF75BFAE6E74C
:10DA9000164B1A884FF6FF739A42E0D1144800F0F3
:10DAA000B8FFEFE7114D13492A882046FBF750FFD6
:10DAB0002A884FF6FF739A42D1D0EA2301A90220A7
:10DAC000ADF80430FFF75EFFC9E7084B1A884FF640
:10DAD000FF739A42C3D00023F0E700BF046A02003C
:10DAE0002C6A0200D24E0200B81C0020021B00204B
:10DAF00074270020DF4E02001FB50B78042B30D1B5
:10DB00008B79022B2DD1CB795BBB0DF10F020192EA
:10DB1000214A2248128800921946012206F041F853
:10DB200008B1FCF70FFA1E4C9DF80F30227803F075
:10DB30000203C2B9ABB11B4B1B481C49C01AC00839
:10DB4000000440F00300FBF7FFFE1020FFF7ECFBA2
:10DB500008B1FCF7F7F916490620FFF713FF012378
:10DB6000237004B010BD002BFBD10E4B0E481149A1
:10DB7000C01AC008000440F00300FBF7E5FE1120C6
:10DB8000FFF7D2FB08B1FCF7DDF90B490620FFF7E0
:10DB9000F9FE0023E4E700BF021B0020041B002065
:10DBA0005A270020046A02002C6A0200F04E02008C
:10DBB000F71A0020084F0200F11A002080B54FF438
:10DBC0008041AEB00020FBF729FD08B1FCF7BAF99F
:10DBD000FBF76CFCFCF758FB08B1FCF7B3F9B84A4B
:10DBE000B8480121FCF782FB08B1FCF7ABF9B64954
:10DBF0000320FFF7A5FB08B1FCF7A4F903A9002057
:10DC0000FFF77EFC08B1FCF79DF94FF0A04303221B
:10DC1000C3F800270122C3F80825FEF709FD08B163
:10DC2000FCF790F906F06EF808B1FCF78BF90023C9
:10DC300003A90120039306F039F908B1FCF782F932
:10DC400003A806F0E1F908B1FCF77CF99F4A0A2124
:10DC50000820FCF7BBF908B1FCF774F911239C48C4
:10DC60008DF8043006F098FA01AD82B29849284642
:10DC7000FFF76CFC08B1FCF765F94FF47070FFF723
:10DC800061FC08B1FCF75EF90822002103A806F048
:10DC900049FA904B039303A803F598130493FFF7F5
:10DCA00053FC08B1FCF74EF98B48002102F032FB1F
:10DCB00008B1FCF747F9AC22002103A806F032FABC
:10DCC00002238DF80C3040F20163ADF80E300123D1
:10DCD000824AADF81C308DF88530ADF8863040F2C0
:10DCE00001134FF448600892ADF88830002244F2E6
:10DCF0005063CDE927032821794B2C93CDE92322CA
:10DD000040F6B832CDE92512764B77482D9303A91A
:10DD100000F0BBFC08B1FCF715F97348012100F0D5
:10DD2000B1FC724B7248039303A902F0B7FB08B130
:10DD3000FCF708F941F615130224ADF8063040222D
:10DD40006C4B0293002103A88DF8044006F0EAF919
:10DD500003A8694901F05CF903A811958DF84840C2
:10DD600005F0B8F808B1FCF7EDF81022002103A87F
:10DD700006F0D8F900230393012205935F48604B16
:10DD80008DF8102003A9069304F09AFF08B1FCF760
:10DD9000D9F85C4DDFF870815C4F082200212846DD
:10DDA00006F0C0F908220021404606F0BBF908221F
:10DDB0000021384606F0B6F908232B8040F2011303
:10DDC0006B8040F20123022440F202264FF0010949
:10DDD000A8F8023048224FF44073002103A87B804A
:10DDE000AE80AC71A8F80090A8F804603C80BE80BA
:10DDF00006F098F9464B03931922464BADF83020B4
:10DE0000454A04930B920023444A4548ADF8143028
:10DE100003A98DF8169006958DF81C90CDF82080FA
:10DE20008DF824900A978DF842308DF838400F9283
:10DE30008DF840408DF84E40ADF850608DF852405E
:10DE40001193ADF848608DF84A4005F030FC08B1F8
:10DE5000FCF778F83349344851226423C1E90023A0
:10DE600001238B600B73FEF773FC1C22002103A8B7
:10DE700006F058F900244FF4A033CDE903434FF4E2
:10DE8000F023059303238DF8183003A8274BADF832
:10DE90001A408DF81C400894099300F0D9FE08B18F
:10DEA000FCF750F8224B9C8783F83E405C601C6175
:10DEB000DC619C625C6303F017F900283CD039E018
:10DEC00085D501006C4F020021DA01006826002090
:10DED000214F02000600180078280020FE1A0020BA
:10DEE00031D6010077D50100742700207BD50100D1
:10DEF0006C280020EEEE01003D4F02008828002033
:10DF000064020202602600205826002050260020CD
:10DF1000F9DA010065D50100D81A002001010003DB
:10DF2000041B0020642700205C2700207FD501000F
:10DF300018270020FCF706F80522002103A806F0A8
:10DF4000F1F8039B03F07C42234B134303939DF8AA
:10DF5000103023F0030343F0030303A88DF81030BF
:10DF600003F062F908B1FBF7EDFF1C4803F044F938
:10DF700008B1FBF7E7FF1A4B1A4C1B49E41AE408F7
:10DF8000240444F003042046FBF7DEFC174800227B
:10DF90004FF40041FCF7BCF908B1FBF7D3FF14497B
:10DFA0002046FBF7D1FC03F07FFA08B1FBF7CAFF6C
:10DFB000104A11480021FCF799F9104800224FF44B
:10DFC0003411FCF7A5F9FCF789F8FBF779FB002879
:10DFD000F9D1FEF743FBF6E731071003C1D7010083
:10DFE000046A02002C6A02004A4F0200981C0020BA
:10DFF0005E4F020059D50100704F0200B81C00208E
:10E000000369C26893429CBF81685B18013B981A00
:10E0100070472DE9F041D0E902840546A8EB0406DB
:10E020004068964220440F46144404D906F0A6F8EE
:10E03000EC60BDE8F0813246A4EB080406F09EF8DF
:10E0400068682246B919F1E72DE9F843C568064624
:10E05000894617464FF000083369B46870689D42DE
:10E0600028BF1B19641BBC4203F1FF3328BF3C4689
:10E070005B1B9C4228BF1C4649462844224606F0AA
:10E080007DF8B3682544AB4208BF00253F1BA04480
:10E09000A144F560E0D14046BDE8F88310B5114CCD
:10E0A000114AA2610223C4E90433104BE361A26464
:10E0B0004FF400730E4A0F492362E26400231022DA
:10E0C000E01DA3626362E362A3656365E3652265A5
:10E0D00006F06AF80849204606F066F82023A37186
:10E0E00010BD00BFCC2A0020744F0200CC280020B5
:10E0F000BC2800207D4F0200814F0200F8B5144B70
:10E10000182700FB07751D4407FB00330E46DB6A2A
:10E11000012B14460AD0022B14D023B92846FFF74E
:10E120006FFF844208D900242046F8BD2846FFF737
:10E1300067FF844228BF0446224631462846FFF73F
:10E1400068FFF1E72846BDE8F840FFF77DBF00BF54
:10E15000CC2A0020FFF7A2BF6DDF704779DF704740
:10E160007DDF704764DF70472DE9F04F85B00026F2
:10E170000E9CBDF83CB0B4F800A001910746904653
:10E180001D46B1463A884A4505DC002E38D10020AC
:10E1900005B0BDE8F08F7A6852F82900039000229C
:10E1A0000DF10B0103A8FFF7DDFF0028F0D19DF86A
:10E1B0000B20424521D1228808EB02011EB15945AE
:10E1C0000CDD0C20E4E702318B45FADB013292B220
:10E1D000019B2280AB5422880132228022880DF1DB
:10E1E0000B012A4403A8FFF7BDFF0028D0D12188E6
:10E1F0009DF80B200A442280012609F10109C1E79C
:10E200002388013BA3EB0A039BB2FF2BD9D805F867
:10E210000A30BCE72DE9F341089FBDF8248015467C
:10E22000CDE90078022204461E46FFF79DFF50B953
:10E230003346102229462046CDE9087802B0BDE8D1
:10E24000F041FFF791BF02B0BDE8F0812DE9F04F3A
:10E2500000231788138090F82D3085B080460D4636
:10E2600014465BB3082F40F2B98102A8FFF774FF90
:10E270000646002840F0E68023880822EA542388D6
:10E2800001339BB21B222380EA542088013080B2E4
:10E29000208006220DF10901284405F06FFF238834
:10E2A0009DF8082006339BB2012A88BF01222380F3
:10E2B00094BFEE54EA5423880133238098F8023047
:10E2C0000BB323880433BB4200F2888102A8FFF716
:10E2D00045FF0646002840F0B58023880322EA5413
:10E2E000238801339BB219222380EA542388BDF886
:10E2F000082001339BB2E9182380EA54120A4A70BD
:10E3000023880233238098F80320A2B12388D91CE4
:10E31000B94200F263810221E954238801339BB2A0
:10E3200001212380E95423880B449BB22380EA54C3
:10E3300023880B442380D8F80430B3B193F900202C
:10E340002388D91CB94200F249810221E95423886B
:10E3500001339BB20A212380E954238801339BB205
:10E360002380EA54238801332380B8F80830002B37
:10E370005CD1B8F810305BB1CDE900472B460722DD
:10E38000032108F11000FFF745FF0646002859D188
:10E39000B8F818305BB1CDE900472B46152214219F
:10E3A00008F11800FFF736FF064600284AD1D8F8D2
:10E3B0002020002A4AD1D8F8246066B3B388218887
:10E3C000981C8A1C0244BA4200F20881FE2800F21E
:10E3D000058103336B54238801339BB2FF222380D2
:10E3E000EA54238801339BB223803288EA54E91827
:10E3F000120A4A702088023080B22080B28852B15E
:10E40000B168002900F0EC80284405F0B7FE2388AD
:10E41000B2881344238098F82C30002B59D198F8F7
:10E420000030002B40F0948000260BE0CDE900473F
:10E430002B460622022108F10800FFF7EBFE0646F4
:10E44000002896D0304605B0BDE8F08F2688B31D71
:10E45000BB4200F2C3801188052940F2C1806FF4ED
:10E46000486C01EB0C039BB24FF27D3C634540F2DC
:10E47000B7805388052B40F2B3806FF448601818BA
:10E4800080B2604540F2AC804FF6FF70814202D00E
:10E49000994200F2A5800523AB55238801339BB236
:10E4A00012212380E954238801339BB223801188F1
:10E4B000E954E818090A4170238802339BB223808B
:10E4C0005288EA54E918120A4A70238802332380DA
:10E4D00071E7D8F82830002B00F082804FF0000957
:10E4E0004FF00C0A4FF0160B98F82C305FFA89F2B7
:10E4F000934294D9D8F828100AFB02F28E18B388F8
:10E50000981CFE286AD8208803332B5423880133B3
:10E510009BB2238005F803B0238801339BB223808C
:10E520008A5AEA54E918120A4A702088023080B2E6
:10E530002080B2884AB1B168002951D0284405F042
:10E540001DFE2388B2881344238009F10109CBE71B
:10E55000B8F80020012A43D02288901CB8423DD848
:10E56000012B05D198F80130023313449F4235D373
:10E57000023FBF1ABFB202A92844ADF80870FFF7E6
:10E58000EFFD064600287FF45DAF98F80010BDF857
:10E590000830022914D1BB421ED9ADF808700821F9
:10E5A000BDF80830FE2B19D822880133AB542288DD
:10E5B000013292B22280A95422881344238033E787
:10E5C00098F80120934201D8BB4205D90129E4D132
:10E5D000974228BF1746E0E70921E1E70C2631E71B
:10E5E00007262FE730B5C8B1F2B10024651C8D4273
:10E5F00006DA1588A54212D805196D789D420ED10C
:10E60000A14211D9005D48B1013880B230B1023465
:10E61000A3B210FA84F4A14206DB138030BD055D7D
:10E6200001352C44A4B2E1E70020F7E713B5134607
:10E630000022ADF806200DF106020446FFF7D2FFD6
:10E6400010B1BDF80600204402B010BD72DF704763
:10E6500073DF704774DF704738B5012204460D46FA
:10E66000B0F8D810D0F8D400FFF7E0FF00B1057083
:10E6700004F13C0204F1D40104F15400BDE8384037
:10E68000FFF7E4BF80F830107047F8B504460F4636
:10E69000002968D0002866D091F87A301BB191F833
:10E6A0009830002B61D1D7F8A030042B5DD0D7F87B
:10E6B0009C30042B59D04FF0000C84F802C007F1B5
:10E6C00078060FCE251D0FC50FCE0FC596E80700A3
:10E6D00085E8070084F830C0D7F8A4306363D7F822
:10E6E000A830A3634FF6FF7504F1D403C4F8E430F7
:10E6F000A4F8E8500722614604F1EA0005F012FD93
:10E7000023780BB984F85450224604F155011F2593
:10E71000C4F8D410384622F8D85FFFF797FD08BB3D
:10E72000224604F19301C4F8DC1007F13C0022F802
:10E73000E05FFFF78BFDA8B9A369A4F848304FF458
:10E7400080730125A4F8503063692064014684F881
:10E750003C50636404F13C0204F15400FFF776FF7F
:10E7600000B92570F8BD0E20FCE70720FAE7F8B5E0
:10E77000077804460D46002F00F0F48000F1EA0609
:10E78000817007220021304605F0CCFCE38813B1EC
:10E79000A378012B04D0E3794BB1A378022B06D1E7
:10E7A000636BA3B1012284F8F12008209847334617
:10E7B00004F1F00113F8012F12B98B42FAD1174678
:10E7C000013D032D22D8DFE805F0050D101284F875
:10E7D000F130ECE7A3792BB194F8243013B927B1C9
:10E7E000012311E0E37903B16FB9237A4BB9637A5E
:10E7F00053B10423A370636B53B9002384F8F3303F
:10E8000014E00323F6E70223A370F6E70023FBE7F7
:10E810006279002AF1D094F8F220002AEDD184F830
:10E82000F420012284F8F3200720984704F13C05E6
:10E8300018220021284605F075FCE36A591E0122C2
:10E84000022928BF134684F8513094F8243084F804
:10E850003C2033B1A36A591E022928BF134684F80D
:10E860005230A378002284F85020042B11D8DFE81E
:10E8700003F0610318284600012384F83130C4E90D
:10E880001062022384F83C308023C4F8E420A4F80A
:10E890004830A378002B50D1636B002B5ED1002051
:10E8A0005BE0022384F83130032384F83C30236991
:10E8B000A4F848300023C4F8E430E36826646364B5
:10E8C000E7E762696264A269A4F8482062797AB1D4
:10E8D00094F8F22062B994F8F4204AB1022384F843
:10E8E000503004212046FFF7B7FE0028D1D1052380
:10E8F00084F8313004F1D403C4F8E430C9E7E269A4
:10E900006264226AA4F848206279002AF0D094F860
:10E91000F220002AECD194F8F420002AE8D0022357
:10E9200084F8503004212046FFF796FE0028B0D12D
:10E930000623DDE784F83120ABE7D4F8E4102A465B
:10E9400004F15400FFF782FE38B994F8301094F8BF
:10E950005400FFF77DFE00289ED0F8BD94F83100EA
:10E9600098479CE70820F8E710B50388112B0C4660
:10E970000AD0262B1FD0102B05D1C27B8388012AF9
:10E9800001D1A1F8E83010BD002381F8F23082886F
:10E99000B1F8E8309A42F6D10B79002BF3D101217E
:10E9A0002046FFF7E4FE0028EDD0A36B002BEAD051
:10E9B000BDE810401847037A013B012BE3D8897862
:10E9C00005230131B1FBF3F303EB8303C91AC9B289
:10E9D000E6E710B590F8F13043B1002480F8F1403B
:10E9E0000722EA3005F0CAFB204610BD0820FCE7EC
:10E9F00090F8F310034651B1009900200A4314BF68
:10EA00000122024683F8F30083F8F42070470820BF
:10EA1000704738B5044690F85400FFF71BFE0123F9
:10EA200084F8F230002384F8F43084F85030062162
:10EA30002046FFF711FE054638B9A1782046FFF7BA
:10EA400096FE10B1A36B03B19847284638BD75DF19
:10EA5000704776DF70477ADF70477BDF70470000D2
:10EA6000034B1A8882420CBF18460020704700BF33
:10EA7000682B0020024B9B6903B11847704700BF09
:10EA80004C2B002073B585B22846FFF7E9FF0446FA
:10EA900068B1174E027A337B9A4211D200F10A0113
:10EAA0002846FFF7D4FF20B9237A0133237202B03E
:10EAB00070BD1128FBD002B0BDE87040FFF7DABF8F
:10EAC00000230372337C43B13B212846FFF7C1FF8B
:10EAD00030F0080301D0FFF7CDFF7369002BE6D0BB
