:020000021000EC
:1090000000600020099301005D9301005F9301005F
:10901000619301006393010065930100000000006B
:109020000000000000000000000000006793010045
:1090300069930100000000006B9301006D93010033
:10904000F5DA01006F930100F5E801006F9301006C
:109050006F93010000000000FDE701006F93010025
:109060006F9301006F9301006F9301006F930100F4
:109070006F9301006F9301006F9301006F930100E4
:109080006F930100DDBB01006F9301006F9301003E
:109090006F9301006F930100A52E02006F930100F2
:1090A0006F9301006F9301000000000000000000BA
:1090B0006F9301006F9301000000000000000000AA
:1090C00000000000000000000000000000000000A0
:1090D0000000000000000000000000000000000090
:1090E0000000000000000000000000000000000080
:1090F0000000000000000000000000000000000070
:10910000000000000000000000000000000000005F
:10911000000000000000000000000000000000004F
:10912000000000000000000000000000000000003F
:10913000000000000000000000000000000000002F
:10914000000000000000000000000000000000001F
:10915000000000000000000000000000000000000F
:1091600000000000000000000000000000000000FF
:1091700000000000000000000000000000000000EF
:1091800000000000000000000000000000000000DF
:1091900000000000000000000000000000000000CF
:1091A00000000000000000000000000000000000BF
:1091B00000000000000000000000000000000000AF
:1091C000000000000000000000000000000000009F
:1091D000000000000000000000000000000000008F
:1091E000000000000000000000000000000000007F
:1091F000000000000000000000000000000000006F
:109200000348044B834202D0034B03B11847704715
:10921000881B0020881B0020000000000548064B2A
:109220001B1AD90F01EBA301491002D0034B03B164
:1092300018477047881B0020881B00200000000092
:1092400010B5064C237843B9FFF7DAFF044B13B18E
:109250000448AFF300800123237010BD881B002059
:1092600000000000B43F020008B5054B1BB10549E2
:109270000548AFF30080BDE80840FFF7CFBF00BF4F
:10928000000000008C1B0020B43F0200A3F5803AD0
:10929000704700BF174B002B08BF134B9D46FFF7CD
:1092A000F5FF00218B460F461348144A121A0AF0A4
:1092B00037F80E4B002B00D098470D4B002B00D0F9
:1092C00098470020002104000D000D48002802D01E
:1092D0000C48AFF300800AF02BF82000290007F0BB
:1092E0008DFC0AF00BF800BF000008000000000031
:1092F0000000000000600020881B00207424002073
:1093000000000000000000000E4800680E490968D7
:109310000A280AD1002908D10C4802686FF07003AE
:109320001A404FF040031A4302600949094A0A4BA8
:109330009B1A03DD043BC858D050FBDC03F05EFEF3
:10934000FFF7A8FF3001001034010010E40E0040C8
:10935000AC400200E01A0020881B0020FEE7FEE778
:10936000FEE7FEE7FEE7FEE7FEE7FEE7FEE7FEE7D5
:1093700080B5A0B002AFF860B9607A603B60B868B1
:1093800003F006FB7B68FB643B683B6500237B6561
:10939000002387F858300023FB65D7F880303B6600
:1093A00000237B6707F134017B6F0822B86803F064
:1093B000B3FB08237B67FB6B3B643B8FA7F8443010
:1093C0007B8FA7F84630002387F8493097F8343070
:1093D00003F00303DBB2012B29D17B6BC3F395238D
:1093E000BB6697F83430C3F3C203DBB287F848306A
:1093F000BB8EC3F38313DBB27B667B6E9A0007F1EF
:109400001C017B6FB86803F087FB7B6E9B007A6F53
:1094100013447B6707F1400207F11C0107F14C037D
:10942000009313467A6EB86E00F0AEFF32E097F804
:10943000343003F00303DBB2022B2BD1FB8EC3F3DA
:1094400089139BB23B6797F83430C3F3C203DBB296
:1094500087F848303B6F082B28BF0823FB6607F1CD
:1094600014017B6FFA6EB86803F056FB7A6FFB6EDF
:1094700013447B673A6FFB6ED31A3B6707F14C03CB
:1094800007F1400207F11400F96E01F01FF83B6F7D
:10949000002BDFD1B86803F08BFA00BF7837BD46E8
:1094A00080BD000080B582B000AF78607B681B781B
:1094B0001A460D4B9B5C002B05D07B680433184685
:1094C00006F0B8FC0BE07B681B781A46064B9B5CE9
:1094D000002B04D17B680C33184605F04BFE00BF0F
:1094E0000837BD4680BD00BF6022002080B586B031
:1094F00000AFF860B9601346FB7100237B61FB6825
:109500001B781A46104B9B5C002B08D0FB68043379
:10951000FA79B968184606F0F1FC78610EE0FB684C
:109520001B781A46084B9B5C002B07D1FB680C3359
:10953000FA79B968184605F095FE78617B69184696
:109540001837BD4680BD00BF6022002080B483B0C4
:1095500000AF78603960044B01221A7000BF0C37ED
:10956000BD4680BC704700BFE41B0020B0B58CB086
:1095700000AF0346FB711A4B07F108041D460FCDDF
:109580000FC495E80F0084E80F002023BB604FF064
:10959000FF33FB604FF0FF333B614FF0FF337B61E4
:1095A0004FF0EB733B62FB79002B01D00D4A00E0DA
:1095B000002207F1080319460B4804F0C7F8F862C7
:1095C000FB6ABB62BB6A002B02D0B86A01F0D0FA1A
:1095D000064AFB79137000BF3037BD46B0BD00BFEF
:1095E000C03302004D950100E01A0020E51B002069
:1095F00080B582B000AF0123FB71FB791846FFF7FD
:10960000B5FF00BF0837BD4680BD000080B588B0FB
:1096100000AFF860B9607A607B68FB77114B00227D
:109620001A70FB7F1A46B9680F48FFF75FFFB861F1
:10963000BB697B617B69002B02D0786901F098FAE5
:1096400000BF0A4B1B78002B07D0064B1B78DBB200
:1096500083F00103DBB2002BF3D100BF2037BD46FE
:1096600080BD00BFE41B0020E01A0020E51B0020A5
:1096700080B584B002AF78603960064B0093402318
:10968000054A39687868FFF773FE00BF0837BD46A2
:1096900080BD00BF0D960100A41B002080B483B0E4
:1096A00000AF786000BF0C37BD4680BC704700003B
:1096B00080B582B000AF78600448FFF7F3FE002069
:1096C000FFF754FF00BF0837BD4680BDE01A0020F9
:1096D00080B483B000AF78607B68DB6801225A7188
:1096E00000BF0C37BD4680BC7047000080B582B01B
:1096F00000AF4FF0FF337B60FFF77AFF042105488E
:1097000000F056FD78600348FFF7E2FF00BF08371E
:10971000BD4680BD9440020080B582B000AF786045
:1097200039607B681B681B6839687868984700BF98
:109730000837BD4680BD80B582B000AF78607B68D9
:109740001B685B687868984700BF0837BD4680BDD6
:1097500080B582B000AF78607B681B689B687868D2
:10976000984700BF0837BD4680BD80B483B000AFC6
:1097700078600B46FB707B68DB68FA781A7100BF73
:109780000C37BD4680BC704780B483B000AF7860B2
:109790007B68DB681B7918460C37BD4680BC704778
:1097A00080B483B000AF78607B68DB6801225A71B7
:1097B00000BF0C37BD4680BC704780B483B000AF9B
:1097C00078607B68DB685B7918460C37BD4680BCE7
:1097D0007047000080B584B000AF786039600C4BF2
:1097E00000221A700B4803F039F8F860FB68002B70
:1097F00001D0FB6808E0084803F0E3F9074A084B8A
:10980000D31ADB08BB60002318461037BD4680BD65
:10981000501D002008400200003402009440020065
:109820001C40020080B400AF034A044BD31ADB088B
:109830001846BD4680BC7047944002001C400200A0
:1098400080B586B000AF78600B46FB70FB78002BCC
:109850001FD0FFF7E7FF386100237B6113E07B69CE
:109860009B000E4A1344FB60FB681B881A467B680A
:109870001B689A4204D17B687A691A60002309E068
:109880007B6901337B617A693B699A42E7D305239F
:1098900000E0002318461837BD4680BD881B002015
:1098A00080B584B000AF78600B46FB70FA783B1D42
:1098B00011461846FFF7C4FF0346002B07D17B680B
:1098C000DB00054A1344FB60FB681B6800E00023D3
:1098D00018461037BD4680BD1C40020080B485B0DC
:1098E00000AF78600B46FB707B68DB00144A1344C2
:1098F000BB60FB78013B032B18D801A252F823F080
:1099000011990100179901001D9901002599010085
:109910000223FB730DE00423FB730AE0BB681B7991
:10992000FB7306E0BB685B79FB7302E00023FB730B
:1099300000BFFB7B18461437BD4680BC704700BF94
:109940001C40020080B485B000AF7860396000230D
:10995000FB737B681B7803F00403DBB2002B23D07E
:109960007B681B78C3F30103DBB2012B02D0022B0F
:109970000CD017E03B681B687A681288C2F3831228
:10998000D2B213449A1C3B681A600BE03B681B6818
:109990007A685288C2F3891292B213449A1C3B68C7
:1099A0001A6000BF0123FB73FB7B18461437BD46CA
:1099B00080BC704780B58AB000AF0023FB84384874
:1099C00002F00EFB374802F00BFB374B9B683B6104
:1099D000364B1B68BB613A69BB69134002339B007D
:1099E000314A134404333B6207F110031946386AC5
:1099F000FFF7A8FF0346002B09D03A69BB69134063
:109A000002339B00284A134404333B62ECE700BF57
:109A10000023FB6111E03B695A1C3A61BA691340AB
:109A2000FA699200391D0A441F4902339B000B4416
:109A30005B681360FB690133FB61FB69012BEAD9A9
:109A40003B79C3F30103DBB2012B0DD0022B16D1FE
:109A50007B89FB84FB88C3F389139BB203339A0889
:109A60003B6913443B610BE07B89FB84BB88C3F3F8
:109A70008313DBB21A463B6913443B6100E000BF2D
:109A8000084802F0BAFA78617B69002B02D03B6982
:109A9000054A9360FB8C18462837BD4680BD00BF41
:109AA0006821002064210020501D0020FC1A0020A5
:109AB00080B584B000AF0021074802F0FCF9F860DF
:109AC000FB68BB60BB6883F310037B607B68184650
:109AD0001037BD4680BD00BF6C21002080B588B026
:109AE00000AFF860B9607A603B60FB681B0CBB613B
:109AF000FFF7DEFFF861FB6919043B685A1CBB6A7B
:109B00001340BA690A431B4902339B000B445A6055
:109B10003A68BB6A134002339B00164A134404336D
:109B20007B61FB6803F00703D9B27A69137861F3AC
:109B3000C50313707B6803F00F03D9B27A691388E9
:109B400061F389131380BB68C3F315017A69136845
:109B500061F39F2313607A691378012161F3010394
:109B600013707A6913786FF38203137000BF203784
:109B7000BD4680BD501D002080B400AF00BFBD4673
:109B800080BC704780B58CB000AFF860B9601346F8
:109B9000FB71FB680233BB62012387F82730002387
:109BA000FB7607F11B03184601F086FC384B5A6818
:109BB000BB681A60374B1A68354B9968344B5B6841
:109BC000CB1A13440133FB6214E00121324802F046
:109BD000D5F9FFF7EFFEF861F9692F4802F0CEF9E9
:109BE0002C4B1A682A4B9968294B5B68CB1A134493
:109BF0000133FB62BA6AFB6A9A42E6D897F82730CB
:109C0000002B3BD000237B61FB79002B11D03B7DE7
:109C1000012262F301033B753B7D43F004033B7576
:109C2000FB6803F00F03DAB2BB8A62F38913BB82CD
:109C300010E03B7D022262F301033B753B7D43F064
:109C400004033B75FB68C3F309039AB2FB8A62F312
:109C50008F13FB820E4B5A680E4B1B681340023366
:109C60009B000B4A134404333B627A693B6A1A60D7
:109C7000074B5A68BB6A1344054A5360FB7E18467B
:109C800001F025FC97F8273018463037BD4680BDD7
:109C9000501D0020FC1A00206C21002080B58AB0E5
:109CA00002AFF860B9607A603B60204B1B687B6153
:109CB00007F11003012219463868FFF763FF0346D6
:109CC000002B24D03B690233FB610023BB6111E010
:109CD000BB699B007A681A44FB69591CF961796970
:109CE0000B401268124902339B000B445A60BB6957
:109CF0000133BB61BA693B689A42E9D33A697B692F
:109D0000009313463A68B968F868FFF7E7FE084B16
:109D10001B78002B04D000F057F80346002BFAD133
:109D2000FFF72AFF00BF2037BD4680BDFC1A002088
:109D3000501D002080B582B000AF786039600023EC
:109D4000002239687868FFF7A9FF00BF0837BD46D1
:109D500080BD80B586B000AFF860B9607A607B687E
:109D60007B6107F114020123B968F868FFF796FFD9
:109D700000BF1837BD4680BD80B586B000AFF86023
:109D8000B9607A603B607B683B613B687B6107F14F
:109D900010020223B968F868FFF780FF00BF183788
:109DA000BD4680BD80B400AF064B9A68054B5B682A
:109DB0009A420CBF01230023DBB21846BD4680BC8B
:109DC000704700BF501D002080B598B000AFFFF76E
:109DD000E9FF0346002B01D00023ABE1924B0022A8
:109DE000C3F81824BFF34F8F00BF8F4B9B683B61B4
:109DF0008E4B1B683B643A693B6C134002339B00FB
:109E0000894A134404337B640023FB650023BB654C
:109E10000023FB6307F110031946786CFFF792FDEE
:109E20000346002B19D0804BD3F81834002B14D1E3
:109E30007D4B5A683B699A4205D87B4B5B687A4AEE
:109E40009360002376E13A693B6C134002339B0038
:109E5000754A134404337B64DCE700237B6511E01F
:109E60003B695A1C3A613A6C13407A6D9200391D75
:109E70000A446D4902339B000B445B6813607B6DA1
:109E800001337B657B6D012BEAD93B7903F003033A
:109E9000DBB2022B40F09280FB88C3F389139BB2A4
:109EA0007B63FB88C3F389139BB2502B28BF5023DD
:109EB0009BB23B633B6BC3F309039AB2FB8862F32B
:109EC0008F13FB803B6B0833FB623B79C3F3C20308
:109ED000DBB2FB63F96A564802F0CCFCF865FB6D17
:109EE000002B00F0C680F86D02F052FD391DBB6DED
:109EF0000822F86D02F0FAFDBB6D0833BB653B69C3
:109F0000DA433B6C134001339B00BB623A6BBB6A84
:109F10009A423DD9BB6A002B08D03A693B6C13408A
:109F200002339B00404A1344043300E0414B3B6240
:109F3000BB6A002B02D0BB6ADBB201E03B6BDBB239
:109F4000FB77BB6A002B01D03A4B00E00023BB61DA
:109F5000BB6A002B06D03B6BDAB2BB6ADBB2D31A0A
:109F6000DBB200E00023FB75FA7FBB6D396AF86D48
:109F700002F0BCFDFB7FBA6D1344BB65BB69002BCF
:109F800015D0FA7DBB6DB969F86D02F0AFFD0EE03A
:109F90003A693B6C134002339B00234A1344043359
:109FA0007B62BB6D3A6B796AF86D02F09FFD7B6B4B
:109FB00003339A083B6913443B615AE03B7903F051
:109FC0000303DBB2012B54D1BB88C3F38313DBB291
:109FD000062B28BF0623DAB2BB8862F38913BB8045
:109FE000BB88C3F38313DBB20233BB633B79C3F398
:109FF000C203DBB2FB63BB6B9B0019460C4802F04B
:10A0000039FCF865FB6D002B33D0F86D02F0C0FC15
:10A01000391DBB6D0822F86D02F068FDBB6D083379
:10A02000BB6500237B651CE0501D0020FC1A00204E
:10A03000084002005C1D00203B695A1C3A613A6CE2
:10A04000134002339B003D4A1344191DBB6D04228B
:10A05000F86D02F04BFDBB6D0433BB657B6D0133C6
:10A060007B65BB88C3F38313DBB21A467B6D9342D7
:10A07000E2D3FB6D002B3DD0304BD3F810343B6561
:10A080002E4BD3F81834002B1BD0F86D02F090FC47
:10A090004AE0002387F84F30386DFFF78EFB034608
:10A0A000002B02D0012387F84F3097F84F30002B58
:10A0B00003D0F96D386DFFF72FFB3B6DDB681B6834
:10A0C0003B653B6D002BE4D1F86D02F071FC002381
:10A0D000FB70FB1C184601F0EFF9184BD3F818344D
:10A0E000002B02D13B69154A9360FB78184601F0BA
:10A0F000EEF919E0114BD3F81034BB6406E0B86CEC
:10A10000FFF726FBBB6CDB681B68BB64BB6C002BDA
:10A11000F5D10B4A0B4BD31ADB081B0443F00203A7
:10A1200009491846FFF706FEFFF73CFE034683F099
:10A130000103DBB218466037BD4680BD501D0020CC
:10A14000444002001C4002001034020080B584B07C
:10A1500000AF0023FB6020E0144BD3F81034BB6049
:10A160000123FB710EE0B868FFF70EFB03461A46A9
:10A17000FB68934202D10023FB7106E0BB68DB68F9
:10A180001B68BB60BB68002BEDD1FB79002B01D0B5
:10A19000FB6807E0FB680133FB60FB68092BDBDD34
:10A1A0004FF0FF3318461037BD4680BD501D0020CC
:10A1B00080B584B000AF78600B46FB70FFF7C6FF38
:10A1C000F860FB68B3F1FF3F01D1FB6822E0FB6858
:10A1D000DBB219467868FFF7C8FA104BD3F8103491
:10A1E000002B08D10D4A7B68C2F810347B68DB680D
:10A1F00000221A600DE0094BD3F81034DA687B684E
:10A20000DB6812681A60054BD3F81034DB687A6893
:10A210001A60FB6818461037BD4680BD501D0020EF
:10A2200080B582B000AF0D4BD3F810347B600B4B80
:10A2300001221A7009E07868FFF7B2FA7868FFF730
:10A240007AFA7B68DB681B687B607B68002BF2D145
:10A2500000BF00BF0837BD4680BD00BF501D0020B5
:10A2600080B483B000AF7860396000BF0C37BD4662
:10A2700080BC704790B585B002AF786039607B686C
:10A28000DB88002B0AD07B68DB881A461F4B0093C3
:10A2900013461F4A1F49386801F081FF7B681B7A0B
:10A2A000052B2ED07B685B7A002B12D07B689B88B5
:10A2B0001A467B681B7A19461046FFF70FFB0346C8
:10A2C0001A46154B53F822301A461449386801F0E3
:10A2D00066FF7B681B6819463868FFF7C1FF7B681B
:10A2E0001B7A1A460E4B53F822407B689B8800214C
:10A2F0001846FFF7D5FA034622460A49386801F0A6
:10A300004EFF00BF0C37BD4690BD00BF4434020075
:10A31000543402008C340200141B0020A4340200C8
:10A32000001B0020A834020080B584B000AFF860A4
:10A33000B9601346FB71FB681B7A052B0FD0FB68D5
:10A340005B7A002B06D00D4B1B681A460C49B86887
:10A3500001F025FF0B49B86801F021FF06E0FB7909
:10A36000002B03D00749B86801F019FFB86801F065
:10A37000FDFE00BF1037BD4680BD00BF141B00208E
:10A38000A4340200B4340200B0B58AB004AFF8605F
:10A39000B9607A603B60BB6A1B7BFB75BB6A0022BD
:10A3A0001A73B96A3868FFF765FF7B68062B7FD898
:10A3B00001A252F823F000BFD5A30100DFA30100E2
:10A3C000EFA3010003A4010021A4010049A401009E
:10A3D00079A40100F968B86A01F0E1FE69E0BB68A0
:10A3E0001B681A46F968B86A01F0D9FE61E0BB68DB
:10A3F0001A68BB6804331B68F968B86A01F0CFFEBD
:10A4000057E0BB681A68BB6804331968BB68083337
:10A410001B6800930B46F968B86A01F0C0FE48E07B
:10A42000BB681968BB6804331868BB6808331B68CD
:10A43000BA680C3212680192009303460A46F96822
:10A44000B86A01F0ACFE34E0BB681868BB6804333E
:10A450001C68BB6808331B68BA680C321268B9689C
:10A460001031096802910192009323460246F9686F
:10A47000B86A01F094FE1CE0BB681C68BB6804333A
:10A480001D68BB6808331B68BA680C321268B9686B
:10A4900010310968B8681430006803900291019285
:10A4A00000932B462246F968B86A01F078FE00E076
:10A4B00000BF0022B96A3868FFF736FFBB6AFA7D31
:10A4C0001A7300BF1837BD46B0BD00BF80B586B057
:10A4D00000AFF860B9607A603B60BB68082B5CD85D
:10A4E0003B681B7BFB743B6800221A7339687868F1
:10A4F000FFF7C0FE00237B6114E07A69BB689A42D3
:10A5000009D2FA687B6913441B781A4625493868D2
:10A5100001F045FE03E02449386801F040FE7B6904
:10A5200001337B617B69072BE7D92049386801F04B
:10A5300036FE00237B6124E07A69BB689A4219D217
:10A54000FA687B6913441B78BB74BB7C7E2B0AD8EA
:10A55000BB7C0133164A13441B7803F09703002B8E
:10A5600001D0BB7C00E02E231A461249386801F066
:10A5700016FE03E01049386801F011FE7B690133D3
:10A580007B617B69072BD7D9012239687868FFF78F
:10A59000CBFE3B68FA7C1A7300E000BF1837BD465B
:10A5A00080BD00BFB8340200C0340200C4340200D1
:10A5B000B03E0200C8340200CC34020080B485B042
:10A5C00000AF0346FB71FB795B08DBB21A460B4B0D
:10A5D0009B5CFB73FB7903F00103002B03D0FB7B37
:10A5E0001B09DBB203E0FB7B03F00F03DBB2BB73A1
:10A5F000BB7B18461437BD4680BC704788210020BD
:10A6000080B485B000AF03460A46FB711346BB71A8
:10A61000FB7903F00103002B01D00F2300E0F023AE
:10A62000FB73FB7903F00103002B03D0BB791B0103
:10A63000DBB200E0BB79BB73FB795B08DBB21A4687
:10A640000F4B9A5CFB795B08DBB21946FB7B13402E
:10A65000DAB20B4B5A54FB795B08DBB21A46084B53
:10A660009A5CFB795B08DBB21946BB7B1343DAB219
:10A67000034B5A5400BF1437BD4680BC704700BF1F
:10A680008821002080B485B000AF0346FB71002311
:10A69000FB600FE00D4B1A68FB68DB001344BB60E6
:10A6A000BB681B78FA799A4201D1BB6809E0FB6864
:10A6B0000133FB60064B1B781A46FB689342E9DBCB
:10A6C000002318461437BD4680BC70477021002017
:10A6D0007421002080B584B000AF03460A46FB71A8
:10A6E0001346BB71FB791846FFF7CCFFF860FB6897
:10A6F000002B09D0FB685B68002B05D0FB685B680A
:10A70000B979FA791046984700BF1037BD4680BD29
:10A710002DE9F04F89B000AF03460A46FB7513469A
:10A72000BB75FB7D1846FFF749FF0346042B00F27B
:10A73000B58001A252F823F04DA70100BDA701008A
:10A74000D5A70100FDA701000FA80100BB7D002BCC
:10A7500000F0A180FB7D01211846FFF751FF002387
:10A76000FB7707F11F03184600F0A6FEF97D4FF0B6
:10A7700001024FF00003A1F12004C1F1200003FA0F
:10A7800001F902FA04F449EA040922FA00F049EA5C
:10A79000000902FA01F8444BD3E9002348EA020118
:10A7A000B96049EA0303FB603F4BD7E90212C3E9F2
:10A7B0000012FB7F184600F08AFE6CE0BB7D002B88
:10A7C00001D0022200E00022FB7D11461846FFF76F
:10A7D00017FF63E0BB7D002B0AD0FB7D03211846E9
:10A7E000FFF70EFFFB7D01211846FFF773FF55E0D1
:10A7F000FB7D01211846FFF703FF4FE0BB7D002BD7
:10A800004BD1FB7D04211846FFF7FAFE45E0BB7DE6
:10A81000002B05D0FB7D03211846FFF7F1FE3DE03C
:10A82000FB7D00211846FFF7EBFEFB7D002118465B
:10A83000FFF750FF0023BB7707F11E03184600F017
:10A840003BFEF97D4FF001024FF00003A1F120061D
:10A85000C1F1200003FA01F502FA06F6354322FAA7
:10A8600000F0054302FA01F46FEA040A6FEA050BEF
:10A870000D4BD3E900230AEA020139600BEA030316
:10A880007B60094BD7E90012C3E90012BB7F184671
:10A8900000F01DFE02E000BF00E000BF00BF243753
:10A8A000BD46BDE8F08F00BF8021002080B582B09A
:10A8B00000AF0648064B1B685B080022194600F0F3
:10A8C000F3FC786000BF0837BD4680BD381B002010
:10A8D0007821002080B586B000AF786000237B61CE
:10A8E00024E01B4B1A687B69DB0013443B613B6926
:10A8F0001B78184603F0E8FE0346FB733B695B7860
:10A90000012B0CBF01230023DBB21A46FB7B9A42CA
:10A910000CBF01230023BB733B691B78BA7B114634
:10A920001846FFF7F5FE7B6901337B61094B1B7805
:10A930001A467B699342D4DB074BD3E900231343C8
:10A9400001D0FFF7B3FF00BF1837BD4680BD00BF81
:10A9500070210020742100208021002080B584B067
:10A9600000AF78600B46FB707B68DBB21846FFF7E0
:10A9700089FEF860FB681B78184603F0A5FE0346C5
:10A98000FB72FB685B78012B0CBF01230023DBB259
:10A990001A46FB7A9A420CBF01230023BB72BB7A92
:10A9A000002B06D0054BD3E90023134301D1FFF759
:10A9B0007DFF00BF1037BD4680BD00BF8021002055
:10A9C00080B58AB000AFF8600B467A60FB727B6896
:10A9D000092B01D807235BE003F06AFD034683F0EF
:10A9E0000103DBB2002B09D003F008FD78627B6A1B
:10A9F0003B623B6A002B01D03B6A49E0264AFB6878
:10AA00001360264AFB7A1370254A7B681360102274
:10AA10000021244808F084FC23494FF000024FF045
:10AA20000003C1E9002328E0FB7ADB00FA68134445
:10AA3000FB6103233B7500237B75BB7D6FF3000334
:10AA4000BB75BB7D6FF34103BB75BB7D6FF38203A9
:10AA5000BB75FB699B787B75FB691B78184607F112
:10AA60001403124A194603F033FD78627B6ABB6116
:10AA7000BB69002B01D0BB690AE0FB7A5A1EFA724F
:10AA8000002BD1D10A4A00210A4800F0E5FB034619
:10AA900018462837BD4680BD702100207421002053
:10AAA0007821002088210020802100205DA901005C
:10AAB000D5A80100DC34020080B582B000AF0023CD
:10AAC0007B600CE00B4B1A687B68DB0013441B783F
:10AAD0000121184603F06CFD7B6801337B60064B57
:10AAE0001B781A467B689342ECD30023184608373C
:10AAF000BD4680BD702100207421002080B582B049
:10AB000000AF00237B600BE0154B1A687B68DB000D
:10AB100013441B78184603F0AEFD7B6801337B605D
:10AB2000104B1B781A467B689342EDD30023FB70D1
:10AB3000FB1C184600F0C0FC0B494FF000024FF020
:10AB40000003C1E90023FB78184600F0C0FC074B66
:10AB5000184600F0F6FB034618460837BD4680BD90
:10AB6000702100207421002080210020381B00204B
:10AB700080B586B000AF78600023FB6000233B61A6
:10AB80007B687B6107F10C031A46002144F2010047
:10AB900000F01AF800BF1837BD4680BD80B400AF82
:10ABA000BFF34F8F00BF064BDB6803F4E06204493C
:10ABB000044B1343CB60BFF34F8F00BF00BFFDE7D3
:10ABC00000ED00E00400FA0580B584B000AFF86045
:10ABD000B9607A6072B600BFFFF722FBFFF7F4F8A6
:10ABE0000346002BFAD10F4A0F4BD31ADB081B0484
:10ABF00043F001030D491846FFF79CF80C4B1B6806
:10AC000003F00103002B00D000BE064A064BD31A06
:10AC1000DB081B0443F0020306491846FFF78AF8D5
:10AC2000FFF7BCFF444002001C400200E034020079
:10AC3000F0ED00E0EC3402002DE9B04F82B000AF3F
:10AC4000144800F0AEFF034600221C461546124B86
:10AC5000D3E9002314EB020A45EB030BC7E900AB71
:10AC60000E4BD3E90023D7E90001904271EB0303B7
:10AC700007D2D7E9002312F1807843F10009C7E930
:10AC80000089D7E90023104619460837BD46BDE8BC
:10AC9000B08F00BF581B0020A0210020A821002059
:10ACA00080B489B000AF786039607B68FB613B6835
:10ACB000BB61FB69D3E90223C7E90423BB69D3E97C
:10ACC0000223C7E90223D7E90423D7E9020190420E
:10ACD00071EB03032CBF01230023DBB2184624379A
:10ACE000BD4680BC704700002DE9B04384B000AF82
:10ACF00078600023FB733C4B1B78002B6ED07B6885
:10AD0000002B6BD0FFF798FF7B68D3E902239042BA
:10AD100071EB030352D300237B7307F10D03184635
:10AD200000F0CAFB7B681B69002B06D179684FF0E5
:10AD3000FF324FF0FF33C1E902237B7B184600F05E
:10AD4000C6FB7B685B697A68926910469847002366
:10AD50003B7307F10C03184600F0AEFB7B681B69E0
:10AD6000002B1AD07B68D3E90223B3F1FF3F08BF61
:10AD7000B2F1FF3F11D07B68D3E9022379680969FA
:10AD800000200C46054612EB040843EB05097B68DE
:10AD9000C3E902890123BB7301E00023BB733B7B42
:10ADA000184600F094FBBB7B002B17D07B6819463C
:10ADB0000E4801F065FF0123FB730FE07B68D3E9C8
:10ADC0000223B3F1FF3F08BFB2F1FF3F06D07B681B
:10ADD0001946064801F054FF0123FB73FB7B18461C
:10ADE0001037BD46BDE8B0839C2100200C35020021
:10ADF000B0B58AB000AF786039600D237B623B68E4
:10AE000000221A707B68D3E90223C7E90623FFF703
:10AE100013FFD7E90623141A63EB0105C7E90445BC
:10AE2000D7E90423012A73F1000318DB3B69B3F56A
:10AE3000350F05D300F0BCFA0246124B134400E074
:10AE4000BB69FB604FF49603FA6800210E4800F0DE
:10AE5000B6FD78627B6A002B05D101230EE000214C
:10AE6000094800F078FE7B6A0D2B06D17868FFF761
:10AE70003BFF03461A463B681A70002318462837E2
:10AE8000BD46B0BDFFFFB400581B002080B582B0A6
:10AE900000AF044801F01EFF78607B681846083751
:10AEA000BD4680BD0C35020080B582B000AF0448BD
:10AEB00001F02AFF78607B6818460837BD4680BDE0
:10AEC0000C35020080B582B000AFFFF7DFFF78607D
:10AED0007B68002B06D079684FF0FF324FF0FF33CC
:10AEE000C1E902237B68002BEFD100BF00BF083708
:10AEF000BD4680BD80B400AF064BD3E9002312F1FC
:10AF0000807043F10001034BC3E9000100BFBD465F
:10AF100080BC7047A021002080B582B000AF78606F
:10AF2000074B1B68002B07D0054B1B681846FFF723
:10AF3000DBFE034B00221A6000BF0837BD4680BD10
:10AF40009821002080B582B000AF7860FFF774FED2
:10AF500002460B460349C1E9002300BF0837BD463E
:10AF600080BD00BFA821002080B586B000AF78600A
:10AF7000FFF79AFF38610023FB753B69002B54D023
:10AF80003B69D3E90223B3F1FF3F08BFB2F1FF3FB2
:10AF900002D1FFF77BFF50E02C4B1B68002B02D146
:10AFA0000123FB751CE03B69D3E90201274B1B68B9
:10AFB000D3E90223904271EB030311D20123FB7505
:10AFC000224B1B68D3E90223B3F1FF3F08BFB2F164
:10AFD000FF3F05D01D4B1B6819461D4801F050FE70
:10AFE000FB7D002B2AD0FFF751FF386107F10F03DB
:10AFF00019463869FFF7FCFE0346002B11D0134BAE
:10B000001B68002B02D1786800F01EFC0F4A3B69D8
:10B010001360FB7B83F00103DBB2002BA8D000BFE1
:10B020000FE00A4B00221A60A2E7084B1B68002BB6
:10B0300006D1786800F016FC02E099E700BF00E056
:10B0400000BF00BF1837BD4680BD00BF982100205B
:10B050000C35020080B586B000AF78602B4A07F14E
:10B060000C031946104600F0A8FE386146E03B6923
:10B070001B78022B2AD0022B2EDC002B02D0012BB6
:10B0800011D029E03B695B68D3E90223B3F1FF3FAC
:10B0900008BFB2F1FF3F21D03B695B6819461C48ED
:10B0A00001F0EEFD1AE03B695A681A4B1B689A42A0
:10B0B00003D1184B00221A6011E03B695B68194606
:10B0C000134801F02DFE0346FB7508E0FFF7FAFE7A
:10B0D000114B01221A7002E000BF00E000BF0B4AD2
:10B0E00007F10C031946104600F081FE074A07F1EC
:10B0F0000C031946104600F060FE38613B69002BD6
:10B10000B5D100BF00BF1837BD4680BD0822002062
:10B110000C350200982100209C21002080B582B0CF
:10B1200000AF7860786800F008FD0346002B01D07E
:10B13000FFF7E0FE0021786800F01FFD0346002BBA
:10B1400002D07868FFF7E8FE0121786800F015FD6D
:10B150000346002B02D07868FFF7F4FE7868FFF70B
:10B1600079FF7868FFF700FF00BF0837BD4680BD54
:10B1700080B500AF024800F022FD00BF80BD00BFD7
:10B18000581B002080B584B000AF03463960FB71C6
:10B19000114A07F108031946104600F0DFFDF86078
:10B1A000FB68002B13D0FB68FA791A70FB683A68C9
:10B1B0005A60094A07F108031946104600F0E8FDF5
:10B1C0000346002B01D0FFF7D3FF002300E0042348
:10B1D00018461037BD4680BD0822002080B582B0D9
:10B1E00000AF164B1B683B601548082358221549D1
:10B1F00000F083FD78607B68002B01D07B6819E04C
:10B200003B46114A1946114800F0B6FA78607B684F
:10B21000002B01D07B680DE001210C4800F07DFC83
:10B2200001230B4A0121094800F02AFB094B0122A6
:10B230001A707B6818460837BD4680BD0835020085
:10B2400008220020B02100201DB10100581B002061
:10B25000FFFF7F009C21002080B487B000AFF86022
:10B260000B467A60FB727B68002B01D1072316E046
:10B27000FB681B687B6179694FF0FF324FF0FF3349
:10B28000C1E902237B697A685A61FB7A012B0CBF02
:10B2900001230023DBB21A467B691A61002318469A
:10B2A0001C37BD4680BC70472DE9B04388B000AF65
:10B2B000F860B9607A60FB68BB610023FB7507F139
:10B2C0001703184600F0F8F8BB69D3E90223B3F17D
:10B2D000FF3F08BFB2F1FF3F11D1FFF7ADFC0246BF
:10B2E0000B46B96800200C46054612EB040843EBF8
:10B2F0000509BB69C3E902890123FB7701E000234B
:10B30000FB77FB7D184600F0E2F8FB7F83F001033A
:10B31000DBB2002B01D000230EE0BB697A689A6192
:10B32000BB691B69002B02D0BB69BA681A61B96995
:10B330000020FFF727FF034618462037BD46BDE82B
:10B34000B08380B586B000AF78607B683B61002336
:10B35000FB7307F10F03184600F0AEF83B69D3E921
:10B360000223B3F1FF3F08BFB2F1FF3F02D1002338
:10B37000FB7508E039694FF0FF324FF0FF33C1E948
:10B3800002230123FB75FB7B184600F0A0F8FB7D30
:10B3900083F00103DBB2002B01D0002304E0396904
:10B3A0000120FFF7EFFE034618461837BD4680BD63
:10B3B00080B500AF024800F0F4FB0346184680BD9C
:10B3C000581B002080B483B000AFEFF310833B60C4
:10B3D0003B687B6072B600BF7B6818460C37BD4681
:10B3E00080BC704780B400AF62B600BF00BFBD46EE
:10B3F00080BC704780B584B000AF7860FFF7E2FF93
:10B40000F860164B9B68002B1BD1144B01229A60ED
:10B41000134BD3F88020134B1340104A1360104B8A
:10B42000104AC3F880200E4BD3F884300B4A536087
:10B430000B4B4FF0FF32C3F884207B6800221A7058
:10B4400002E07B6801221A70FB68002B01D1FFF734
:10B45000C9FF002318461037BD4680BD1C220020BE
:10B4600000E100E0FC06FFBD80B584B000AF0346FC
:10B47000FB710F4B9B68002B15D0FB79002B12D171
:10B48000FFF7A0FFF8600B4A094B1B681360094ADD
:10B49000074B5B685360064B00229A60FB68002BE9
:10B4A00001D1FFF79FFF002318461037BD4680BD2E
:10B4B0001C22002000E100E080B582B000AF78607F
:10B4C0007868FFF797FF00BF0837BD4680BD80B59D
:10B4D00082B000AF0346FB71FB791846FFF7C4FF4B
:10B4E00000BF0837BD4680BD80B483B000AF0346BF
:10B4F000FB7197F90730002B0BDBFB7903F01F0280
:10B50000064997F907305B09012000FA02F241F879
:10B51000232000BF0C37BD4680BC704700E100E02F
:10B5200080B483B000AF0346FB7197F90730002B5E
:10B530000CDBFB7903F01F02074997F907305B0921
:10B54000012000FA02F2403341F8232000BF0C37FB
:10B55000BD4680BC704700BF00E100E080B483B00E
:10B5600000AF03463960FB7197F90730002B0ADB07
:10B570003B68DAB20C4997F907305201D2B20B445A
:10B5800083F800230AE03B68DAB20849FB7903F04C
:10B590000F03043B5201D2B20B441A7600BF0C37A2
:10B5A000BD4680BC704700BF00E100E000ED00E058
:10B5B00080B582B000AF03460A46FB711346BB71EB
:10B5C000BA7997F9073011461846FFF7C7FF00BF51
:10B5D0000837BD4680BD80B582B000AF0346FB7121
:10B5E00097F907301846FFF77FFF00BF0837BD46C1
:10B5F00080BD000080B584B000AF78607B68002B10
:10B600000AD0074B43F00103FB607B689B01BB60E2
:10B61000FB68B868984700E000BF1037BD4680BDA2
:10B620007035020080B485B000AFF860B9607A6010
:10B63000FB68BA6802F5A872796843F8221000BF67
:10B640001437BD4680BC704780B483B000AF7860CB
:10B6500039607B683A6802F5A87253F822301846C0
:10B660000C37BD4680BC704780B483B000AF7860B3
:10B6700039607B683A68C3F8042300BF0C37BD46C5
:10B6800080BC704780B483B000AF786039607B685D
:10B690003A68C3F8082300BF0C37BD4680BC70472A
:10B6A00080B483B000AF78600B467B807B887A687B
:10B6B00013441B6818460C37BD4680BC704780B4E5
:10B6C00085B000AF78600B467B807B887A68134436
:10B6D00000221A607B887A6813441B68FB60FB6851
:10B6E00000BF1437BD4680BC704780B483B000AF44
:10B6F00078607B68D3F8043518460C37BD4680BCAB
:10B70000704780B483B000AF786039607B683A6876
:10B71000C3F8082500BF0C37BD4680BC704780B415
:10B7200083B000AF78600B46FB70FA787B681344F7
:10B730001A460123136000BF0C37BD4680BC70471A
:10B7400080B483B000AF786039607B683A68C3F832
:10B75000442300BF0C37BD4680BC704780B483B023
:10B7600000AF786039607B683A68C3F8482300BF4F
:10B770000C37BD4680BC704780B586B000AFF8601E
:10B78000B9607A60FB685B791946294A7B6842F8A0
:10B790002130FB685B79274ADB0013441B79002BBF
:10B7A0000ED008237B61244A244BD31ADB081B04E8
:10B7B00043F0020322491846FEF7BCFA7B6932E0E7
:10B7C000FB681A68BB681B8819461046FFF799FF8B
:10B7D000FB6893F90420BB689B7819461046FFF775
:10B7E000E7FEFB6893F904301846FFF7F4FEFB68A8
:10B7F0005B79104ADB00134401221A71FB685B7904
:10B8000019460C4AFB6842F8313000237B610A4A32
:10B810000A4BD31ADB081B0443F0030309491846FB
:10B82000FEF788FA7B6918461837BD4680BD00BF11
:10B83000282200202C220020544002001C4002003C
:10B84000183502003C35020080B582B000AF786048
:10B850007B681B6800211846FFF761FF00BF0837AF
:10B86000BD4680BD80B582B000AF78607B681B6844
:10B8700004211846FFF753FF00BF0837BD4680BDBF
:10B8800080B586B000AFF860B9607A60FB704FF4A5
:10B890008032BB6802FA03F37B61BB6850339BB212
:10B8A0009B007B827B6823F07F437B60FB681B6887
:10B8B00079691846FFF7E6FEFB681B687969184648
:10B8C000FFF74CFFFB681B687A8A11461846FFF7A2
:10B8D000F6FEFB681B687A68B9681846FFF7A2FE97
:10B8E000FB681B6879691846FFF72AFFFB78002B75
:10B8F00005D0FB681B6879691846FFF7B5FE00BFE5
:10B900001837BD4680BD80B584B000AFF860B9601F
:10B910001346FB71FB681B68B9681846FFF710FFF8
:10B92000FB79002B05D0FB681B68B9681846FFF748
:10B930009BFE00BF1037BD4680BD80B582B000AF12
:10B94000786039607B681B6839681846FFF706FF26
:10B950007B681B6839681846FFF794FE00BF0837FC
:10B96000BD4680BD80B582B000AF78600B467B805D
:10B970007B681B687A8811461846FFF791FE0346DC
:10B98000002B08D07B681B687A8811461846FFF7A1
:10B9900096FE012300E0002318460837BD4680BD0F
:10B9A00080B483B000AF786039607A683B68D31A9E
:10B9B00023F07F4318460C37BD4680BC704780B5E6
:10B9C0008AB000AFF860B9607A603B604FF48032B3
:10B9D000BB6802FA03F37B62BB6850339BB29B00E7
:10B9E0007B847B6823F07F437B60796AF868FFF78C
:10B9F000A4FFFB681B681846FFF777FEF861FB6839
:10BA00001B68B9681846FFF71FFEB861FB681B6822
:10BA1000FA69B9681846FFF705FEFB681B687A8C5F
:10BA200011461846FFF74BFEF969B869FFF7B8FFF2
:10BA30000346012B09D11020FFF7DCFDFB681B68D2
:10BA40007A8C11461846FFF73AFEFB681B681846C9
:10BA5000FFF74BFEF861F9697868FFF7A1FF78619D
:10BA6000FB681B68796A1846FFF76AFE7B69012B41
:10BA700015D1FB6818687B6801331A46B968FFF76F
:10BA8000D1FD1020FFF7B6FDFB681B681846FFF7D5
:10BA90002CFE0246FB69934235D00D2339E0FB684A
:10BAA0001B687A68B9681846FFF7BCFDFB681B681D
:10BAB0001846FFF71AFEF8617B68013BF9691846E2
:10BAC000FFF76EFF78613B68C3F1FF1303F57F4317
:10BAD0007A699A4201D90D231BE07B69002B12D1B0
:10BAE000FB6818687B6801331A46B968FFF79AFD4E
:10BAF000FB681B681846FFF7F8FD0246FB69934296
:10BB000001D00D2305E00122796AF868FFF7FBFEFA
:10BB1000002318462837BD4680BD80B582B000AFEF
:10BB200078600B46FB70FB781A4602217868FFF7B5
:10BB3000EAFE00BF0837BD4680BD80B582B000AFC9
:10BB400078604FF482717868FFF70CFF034618465F
:10BB50000837BD4680BD80B582B000AF78603960DF
:10BB60004FF480323B6802FA03F319467868FFF716
:10BB7000E4FE00BF0837BD4680BD80B584B000AF8D
:10BB8000786039603B6850339BB29B00FB81FB8936
:10BB900019467868FFF7E6FE034618461037BD469B
:10BBA00080BD80B582B000AF78607B681B681846A6
:10BBB000FFF79BFD034618460837BD4680BD80B59C
:10BBC00082B000AF78607B6893F904301846FFF7C5
:10BBD000A7FC00BF0837BD4680BD000080B500AFA0
:10BBE000034B1B68034A12681046984700BF80BD8C
:10BBF000282200202C22002080B487B000AF78607B
:10BC000039607B6853E8011F8AB2D8890244988959
:10BC1000824228BF121A1889824202BFBFF32F8FB7
:10BC2000002307E0C2EA010243E801200028E9D12D
:10BC30004FF00103FB737861B9603A61BA683B6801
:10BC40001A60FB7BDBB218461C37BD4680BC7047D0
:10BC500080B485B000AF7860796851E8013FC3EAED
:10BC6000034341E80132002AF7D1FA60BB6000BF0C
:10BC70001437BD4680BC704780B487B000AF786091
:10BC800039607B6853E8021F1FFAA1F2D88882420C
:10BC900002BFBFF32F8F00230DE0D889024498899B
:10BCA000824228BF121AC1EA024243E80220002859
:10BCB000E8D14FF00103FB737861B9603A61BA686B
:10BCC0003B681A60FB7BDBB218461C37BD4680BC64
:10BCD000704780B485B000AF7860796851E8023F62
:10BCE000C3EA234341E80232002AF7D1FA60BB607D
:10BCF00000BF1437BD4680BC704780B485B000AF2C
:10BD0000F860B96011461A460B46FB801346BB80AB
:10BD1000BB68002B01D10E231BE0FB88BA88B3FB64
:10BD2000F2F101FB02F29B1A9BB2002B01D0092316
:10BD30000FE0FB68BA681A60FB6800225A60FB6873
:10BD400000229A60FB68FA889A81FB68BA88DA81D7
:10BD5000002318461437BD4680BC704780B584B0B8
:10BD600000AF786039603B6819467868FFF744FF98
:10BD70000346002B07D07B681B683A68128813447F
:10BD8000FB60FB6800E0002318461037BD4680BD0D
:10BD900080B582B000AF786039603B681A883B6834
:10BDA0005B889A4204D17868FFF752FF012300E0D4
:10BDB000002318460837BD4680BD80B584B000AF6B
:10BDC000786039603B6819467868FFF755FF03468D
:10BDD000002B07D07B681B683A6852881344FB60CD
:10BDE000FB6800E0002318461037BD4680BD80B5D3
:10BDF00082B000AF786039603B681A883B685B8826
:10BE00009A4204D17868FFF764FF012300E0002321
:10BE100018460837BD4680BD80B584B000AF786055
:10BE200039603B685B099B007A681A443B6803F001
:10BE30001F03012101FA03F31946104600F053F8DD
:10BE4000F86000BF1037BD4680BD80B584B000AF3C
:10BE5000786039603B685B099B007A681A443B68EC
:10BE600003F01F03012101FA03F3DB4319461046D7
:10BE700000F06BF8F86000BF1037BD4680BD80B49D
:10BE800083B000AF786039603B685B099B007A68DB
:10BE900013441A683B6803F01F0322FA03F303F00C
:10BEA0000103002B14BF01230023DBB218460C371B
:10BEB000BD4680BC704790B486B000AF78603960F2
:10BEC0007B683A6853E8004F104643E8000191F060
:10BED000000FF7D17C613861F9607B69184618372B
:10BEE000BD4690BC704790B486B000AF78603960B2
:10BEF0007B683A6853E8004F44EA020043E80001D7
:10BF000091F0000FF6D17C613861F9603B69184609
:10BF10001837BD4690BC704790B486B000AF7860CB
:10BF200039607B683A6853E8004F04EA020043E84E
:10BF3000000191F0000FF6D17C613861F9607B69F6
:10BF400018461837BD4690BC704790B486B000AF15
:10BF5000786039607B683A6853E8004F04EA020071
:10BF600043E8000191F0000FF6D17C613861F9607F
:10BF70003B6918461837BD4690BC704790B486B0F0
:10BF800000AF786039607B683A6853E8004F04EB93
:10BF9000020043E8000191F0000FF6D17C613861A6
:10BFA000F9603B6918461837BD4690BC704790B49D
:10BFB00086B000AF786039607B683A6853E8004F1C
:10BFC000A4EB020043E8000191F0000FF6D17C6180
:10BFD0003861F9603B6918461837BD4690BC704718
:10BFE00080B582B000AF786001217868FFF77BFFF1
:10BFF000034618460837BD4680BD80B582B000AF05
:10C00000786000217868FFF787FF034618460837F5
:10C01000BD4680BD80B483B000AF78600B46FB7036
:10C020007B68DA68FB787968098A01FB03F31344BB
:10C0300018460C37BD4680BC704780B483B000AF53
:10C04000786039603B687A68D2689B1A7A68128A8D
:10C05000B3FBF2F3DBB218460C37BD4680BC704729
:10C0600080B485B000AF78607B68002B01D10E23CF
:10C070001CE07B689A687B685B68D31AFB737B68FB
:10C080001B687A6852681A6006E07B681A68136851
:10C09000591C1160FA7B1A70FB7B5A1EFA73002B35
:10C0A000F3D17B681B6800221A71002318461437ED
:10C0B000BD4680BC704780B584B000AF7860002377
:10C0C000FB600023BB7207F10A031846FFF7F4F97F
:10C0D0007B681B681A687B685B689A421CD97B681E
:10C0E0001B681A68013A1A601B681B781946786841
:10C0F000FFF790FFF8607B689A687B681B681B6895
:10C10000D31AFB727B681B681B79FA7A9A4203D9AF
:10C110007B681B68FA7A1A71BB7A1846FFF7D7F961
:10C12000FB6818461037BD4680BD90B585B000AF9E
:10C13000786039603B68FB600023FB7207F10B03FA
:10C140001846FFF7B9F97B681B681C68621C1A6007
:10C15000F9687868FFF771FF03462370FB7A184689
:10C16000FFF7B5F900BF1437BD4690BD80B582B06A
:10C1700000AF78607B689B68002B0CD07B685B69A4
:10C180007A6810697A6811687A68926898477B685B
:10C1900000229A6000E000BF0837BD4680BD0EB4A3
:10C1A00080B585B000AF7860FB69002B0CD0002310
:10C1B000FB6007F12003FB6007F10C031A46F969E5
:10C1C000786800F0AFF900E000BF1437BD46BDE865
:10C1D000804003B0704780B582B000AF78600B46F6
:10C1E000FB70FB780A2B03D10D217868FFF7F3FF72
:10C1F0007B681A687B689B68581C79688860134460
:10C20000FA781A707B689A687B685B689A4202D3F6
:10C210007868FFF7ABFF00BF0837BD4680BD80B52B
:10C2200086B000AFF860B9607A603B6000237B6144
:10C230003B6803F00103002B21D00AE0BB68013307
:10C24000BB607B6901337B61FB7C1946F868FFF7B3
:10C25000C2FFBB681B78FB74FB7C002BEED106E0B1
:10C260007B68013B7B602021F868FFF7B4FF7A68A8
:10C270007B699A422BD97B68002BF1D127E0BB6800
:10C28000002B0BD0B86807F085F8786106E07B6872
:10C29000013B7B602021F868FFF79DFF7A687B698E
:10C2A0009A420ED97B68002BF1D10AE0BB680133BA
:10C2B000BB607B6901337B61FB7C1946F868FFF743
:10C2C0008AFFBB681B78FB74FB7C002BEED100BFA0
:10C2D0001837BD4680BD000080B588B000AFF8605B
:10C2E000B9607A603B60BB68FB610123BB6107E01A
:10C2F000FA697B68B2FBF3F3FB61BB690133BB6195
:10C30000FA697B689A42F3D23A68BB699A4201D9CA
:10C310003B68BB61FB6A03F00103002B1FD1BB6AC2
:10C32000002B1CD0FB6A03F00203002B05D03B68F6
:10C33000002B02D13023FB7501E02023FB7507E0C1
:10C34000BB6A013BBB62FB7D1946F868FFF743FF00
:10C35000BB6A002B03D0BA69BB6A9A42F0D30123AF
:10C36000FB613B68012B03D93B68013B3B6009E063
:10C37000BA68FB69B2FBF3F33B613A697B689A42A6
:10C3800000D205E0FB697A6802FB03F3FB61E8E792
:10C39000BA68FB69B2FBF3F33B613B69FA6902FBE4
:10C3A00003F3BA68D31ABB60154A3B6913441B7880
:10C3B0001946F868FFF70FFFFA697B68B2FBF3F3E1
:10C3C000FB61FB69002BE3D1FB6A03F00103002B47
:10C3D00011D0BB6A002B0ED006E0BB6A013BBB62EA
:10C3E0002021F868FFF7F7FEBB6A002B03D0BA697B
:10C3F000BB6A9A42F1D300BF2037BD4680BD00BF63
:10C400007835020080B588B002AFF860B9607A6014
:10C410003B60BB68002BB8BF5B423B6101237B6183
:10C4200007E07B683A6992FBF3F33B617B69013378
:10C430007B617B683A699A42F3DA3A687B699A428F
:10C4400001D93B687B613B6A002B0AD0BB68002B9B
:10C4500004DB7B6A03F00403002B02D03B6A013B40
:10C460003B627B6A03F00203002B02D03B68002B87
:10C4700016D07B6A03F00103002B11D13B6A002B1D
:10C480000ED006E03B6A013B3B622021F868FFF7D3
:10C49000A2FE3B6A002B03D07A693B6A9A42F1D331
:10C4A000BB68002B07DABB685B42BB602D21F868D4
:10C4B000FFF791FE08E07B6A03F00403002B03D032
:10C4C0002B21F868FFF787FE7B6A03F00203002B3D
:10C4D00019D07B6A03F00103002B14D13B68002BB9
:10C4E00011D13B6A002B0ED006E03B6A013B3B6258
:10C4F0003021F868FFF76FFE3B6A002B03D07A69A2
:10C500003B6A9A42F1D3B9687B6A01933B6A009314
:10C510003B687A68F868FFF7DFFE00BF1837BD4652
:10C5200080BD000080B58EB002AFF860B9607A605F
:10C53000BB68002B00F08E81BB681B7887F82F301A
:10C54000BB680133BB6097F82F30002B00F0798176
:10C5500097F82F30252B40F0688100233B620123A0
:10C56000BB62BB681B7887F82F3097F82F30302BD1
:10C570000DD0302B1BDC2B2B11D02D2B17D13B6A70
:10C5800043F001033B62BB680133BB6012E03B6ACE
:10C5900043F002033B62BB680133BB600AE03B6AC5
:10C5A00043F004033B62BB680133BB6002E000233D
:10C5B000BB6200BFBB6A002BD3D10023FB6197F89D
:10C5C0002F302A2B0CD17B681B68191D7A681160EB
:10C5D0001B68FA691344FB61BB680133BB601AE056
:10C5E000BB681B7887F82F3097F82F302F2B12D984
:10C5F00097F82F30392B0ED8BB680133BB60FA692E
:10C6000013469B0013445B001A4697F82F301344DF
:10C61000303BFB61D3E700237B62BB681B7887F864
:10C620002F3097F82F302E2B1DD1BB680133BB6004
:10C63000BB681B7887F82F3097F82F302F2B12D933
:10C6400097F82F30392B0ED8BB680133BB607A6A5C
:10C6500013469B0013445B001A4697F82F3013448F
:10C66000303B7B62E4E7BB681B7887F82F3097F894
:10C670002F306C2B03D097F82F30682B07D1BB6875
:10C680000133BB60BB681B7887F82F30EFE797F862
:10C690002F30252B00F0BF80252BC0F2C180782BD6
:10C6A00000F3BE80582BC0F2BB80583B202B00F219
:10C6B000B78001A252F823F0A3C7010021C80100EE
:10C6C00021C8010021C8010021C8010021C80100C2
:10C6D00021C8010021C8010021C8010021C80100B2
:10C6E00021C801003DC701005BC7010021C801004E
:10C6F00021C8010021C8010021C801005BC7010059
:10C7000021C8010021C8010021C8010021C8010081
:10C7100021C8010021C80100E3C7010021C80100B0
:10C7200021C80100C7C7010021C801007FC701005F
:10C7300021C8010021C80100A3C701007B681B6854
:10C74000191D7A6811601B68BB62BB6AFB75FB7DB3
:10C750001946F868FFF73FFD63E07B681B68191D09
:10C760007A6811601B68BB623B6A0193FB690093A6
:10C770007B6A0A22B96AF868FFF744FE51E07B68D9
:10C780001B68191D7A6811601B68BB62B96A3B6A35
:10C790000193FB6900937B6A0A22F868FFF79CFD0E
:10C7A0003FE07B681B68191D7A6811601B68BB62DB
:10C7B000B96A3B6A0193FB6900937B6A1022F868AF
:10C7C000FFF78AFD2DE07B681B68191D7A681160F0
:10C7D0001B68BB613B6AFA69B969F868FFF71FFD1E
:10C7E0001FE07B681B68191D7A6811601B68BB62BB
:10C7F0003021F868FFF7EFFC7821F868FFF7EBFCD1
:10C80000B96A002301930823009308231022F868D3
:10C81000FFF762FD05E02521F868FFF7DCFC00E08A
:10C8200000BFBB680133BB6005E097F82F301946A5
:10C83000F868FFF7D0FCBB681B78002B7FF47CAE58
:10C8400000E000BFFB681B7B002B04D0F868FFF7FB
:10C850008DFC00E000BF3037BD4680BD80B582B0A2
:10C8600000AF78607868FFF7FBFB0346184608378F
:10C87000BD4680BD80B58AB000AF786039607B6806
:10C880001B8A043BFB613A68FB691344DA1CFB69B1
:10C89000B2FBF3F3FB767868FFF70DFC78617B69F8
:10C8A000002B01D1002337E07B6900221A717B69DC
:10C8B00001225A71FB699AB27B69DA807B697B62DB
:10C8C000FB7E013B3B617B6A7A681A6000233B6216
:10C8D0001DE07868FFF7EFFBF860FB68002B0ED0D7
:10C8E0007B695B790133DAB27B695A717B6AFA68DA
:10C8F0001A60FB687A681A60FB687B6204E07869FA
:10C9000000F00EF8002307E03B6A01333B623A6A0D
:10C910003B699A42DDD37B6918462837BD4680BD06
:10C9200080B58AB000AF78607B68FB61FB695B799A
:10C93000FB767B683B62FB7E013B7B6100237B6275
:10C9400005E03B6A1B683B627B6A01337B627A6A63
:10C950007B699A42F5D33B6A1B683B617B683B620B
:10C9600000237B620BE03B6A1B68FB60396A386915
:10C97000FFF7DBFBFB683B627B6A01337B62FB7E7C
:10C980007A6A9A42EFD300BF00BF2837BD4680BD08
:10C9900080B584B000AF78607B68FB60FB680433CF
:10C9A00001211846FFF7EAFA00BF1037BD4680BDE7
:10C9B00080B586B000AF78607B687B617B690433AB
:10C9C00001211846FFF7F3FA0346FB6007F10C0359
:10C9D0003B613B691B78002B02D17868FFF7A0FF11
:10C9E00000BF1837BD4680BD80B590B000AFF8607D
:10C9F000B9607A603B60FB687B62FB68FB637B6AC3
:10CA0000DB881A467B6A5B7902FB03F3043B3B62DB
:10CA10007B6ADB88FB613B681A1DFB69B2FBF3F3A1
:10CA2000BB633B680433FA69B3FBF2F2F96901FBBB
:10CA300002F29B1A7B637B681A683B6813443A6A6C
:10CA40009A4203D23A6A3B68D31A01E07B681B68BA
:10CA50003B637B683A6B1A6005E0FB6B1B68FB630A
:10CA6000BB6B013BBB63BB6B002BF6D10023FB62AE
:10CA7000FA697B6BD31ABB62BA6A3B6B934228BFDD
:10CA80001346BB622AE0BA68FB6A1344BB61FA6BC7
:10CA90007B6B134404337B6197F84830002B05D03F
:10CAA000BA6A7969B86906F067FC04E0BA6AB969DC
:10CAB000786906F061FC00237B63FB6B1B68FB63FA
:10CAC0003A6BBB6AD31A3B63FA6ABB6A1344FB62D4
:10CAD000FA693B6B934228BF1346BB623B6B002B4A
:10CAE000D1D100BF00BF4037BD4680BD80B588B002
:10CAF00002AFF860B9607A603B607B687B6107F1E8
:10CB00001402002300933B68B968F868FFF76CFFD4
:10CB100000BF1837BD4680BD80B588B002AFF86051
:10CB2000B9607A603B607B687B6107F11402012386
:10CB300000933B68B968F868FFF756FF00BF1837E5
:10CB4000BD4680BD80B483B000AF78607B680022B2
:10CB50001A60BFF35F8F00BF00BF0C37BD4680BCBB
:10CB6000704741DF704700BF1846000080B500AF36
:10CB7000064B00221A700648FFF7E4FF05490648F5
:10CB800000F040F80023184680BD00BF3822002086
:10CB900034220020943502003C22002080B582B06F
:10CBA00000AF06F04DF90346002B03D0FFF7D9FF85
:10CBB000786002E020BF40BF20BF00BF0837BD46FD
:10CBC00080BD80B483B000AF78607B689B68002232
:10CBD0009A607B689B6800221A617B689B680022D0
:10CBE0005A617B689B680022DA607B689B68002240
:10CBF0005A607B689B6800221A6000BF0C37BD46F4
:10CC000080BC704780B483B000AF786039607B68C7
:10CC10003A681A607B681B681A687B685A607B6890
:10CC20005A687B681B685B689A4202D17B68002265
:10CC30005A6000BF0C37BD4680BC704780B483B0DB
:10CC400000AF78607B685B68002B14D07B685B6802
:10CC50001A467B681B689B6813441A467B685A60B7
:10CC60007B685A687B681B685B689A4204D17B6862
:10CC700000225A6000E000BF0C37BD4680BC704700
:10CC800080B584B000AF786039607B685B68FB601A
:10CC90000FE07B689B68FA6812683968104698470D
:10CCA000034683F00103DBB2002B07D1FB681B684E
:10CCB000FB60FB681B68002BEBD100E000BFFB684A
:10CCC0001A683B681A60FB683A681A6000BF103740
:10CCD000BD4680BD80B485B000AF78607B685B687E
:10CCE0001B68FB607B685B681B68002B06D07B6859
:10CCF0005B681A687B685B6812681A60FB68184694
:10CD00001437BD4680BC704780B483B000AF7860F4
:10CD10007B685B681B6818460C37BD4680BC704753
:10CD200080B485B000AF786039600023FB727B6807
:10CD30005B68FB600EE0FB681B683A689A4206D1AC
:10CD40003B681A68FB681A600123FB7206E0FB6807
:10CD50001B68FB60FB681B68002BECD1FB7A184654
:10CD60001437BD4680BC704780B584B000AF786092
:10CD7000786800F00DF8F860FB68002B01D0FB68C4
:10CD800000E0024B18461037BD4680BDAC350200AE
:10CD900080B487B000AF7860174B7B61174B3B6165
:10CDA0001FE03A697B69D31ADB10DA0F13445B107A
:10CDB000DB007A691344FB60FB681B68BB60BA68E0
:10CDC0007B689A4202D9FB683B610AE0BA687B68DB
:10CDD0009A4203D2FB6808337B6102E0FB685B6820
:10CDE00004E07A693B699A42DBD3002318461C377A
:10CDF000BD4680BC704700BFAC390200D43A020087
:10CE000080B400AFBFF34F8F00BF064BDB6803F465
:10CE1000E0620449044B1343CB60BFF34F8F00BF64
:10CE200000BFFDE700ED00E00400FA0580B483B028
:10CE300000AF0E4B1B687B600D4B1B683B607B6833
:10CE40000A2B0CD13B68002B03D03B68012B02D08E
:10CE500003E0012304E0012302E0012300E00023BA
:10CE600018460C37BD4680BC704700BF300100102B
:10CE70003401001080B483B000AF0E4B1B687B60A0
:10CE80000D4B1B683B607B680A2B0CD13B68002B69
:10CE900003D03B68012B02D003E0012304E001230F
:10CEA00002E0012300E0002318460C37BD4680BC99
:10CEB000704700BF300100103401001080B483B00F
:10CEC00000AF0E4B1B687B600D4B1B683B607B68A3
:10CED0000A2B0CD13B68002B03D03B68012B02D0FE
:10CEE00003E0012304E0012302E0012300E000232A
:10CEF00018460C37BD4680BC704700BF300100109B
:10CF00003401001080B483B000AF0E4B1B687B600F
:10CF10000D4B1B683B607B680A2B0CD13B68002BD8
:10CF200003D03B68012B02D003E0012304E001237E
:10CF300002E0012300E0002318460C37BD4680BC08
:10CF4000704700BF300100103401001080B483B07E
:10CF500000AF0E4B1B687B600D4B1B683B607B6812
:10CF60000A2B0CD13B68002B03D03B68012B02D06D
:10CF700003E0002304E0012302E0012300E000239A
:10CF800018460C37BD4680BC704700BF300100100A
:10CF90003401001080B400AF00BFBD4680BC7047B4
:10CFA00080B400AF00BF054BD3F80034002BFAD09B
:10CFB00000BF00BFBD4680BC704700BF00E001401D
:10CFC00080B582B000AF7860044A7B68C2F804354F
:10CFD000FFF7E6FF00BF0837BD4680BD00E0014017
:10CFE00080B400AF034B044A1A6000BFBD4680BC4A
:10CFF000704700BF601B00200090D00380B500AFD9
:10D00000FFF714FF0346002B06D06E4B1B685B0B2B
:10D010006D4A03F007031360FFF72CFF0346002B54
:10D020000ED04FF080430022C3F80C214FF0804314
:10D030000022C3F810214FF080430022C3F83825A6
:10D04000FFF73CFF0346002B76D04FF080535F4A3A
:10D05000D3F80434C2F820354FF080535B4AD3F83C
:10D060000834C2F824354FF08053584AD3F80C34B2
:10D07000C2F828354FF08053544AD3F81034C2F820
:10D080002C354FF08053514AD3F81434C2F8303560
:10D090004FF080534D4AD3F81834C2F834354FF06E
:10D0A00080534A4AD3F81C34C2F840354FF08053BD
:10D0B000464AD3F82034C2F844354FF08053434AEF
:10D0C000D3F82434C2F848354FF080533F4AD3F8A0
:10D0D0002834C2F84C354FF080533C4AD3F82C34F6
:10D0E000C2F850354FF08053384AD3F83034C2F884
:10D0F00054354FF08053354AD3F83434C2F8603594
:10D100004FF08053314AD3F83834C2F864354FF0C9
:10D1100080532E4AD3F83C34C2F868354FF0805320
:10D120002A4AD3F84034C2F86C354FF08053274A6E
:10D13000D3F84434C2F87035FFF7E4FE0346002B01
:10D140000DD04FF08043D3F8003403F00103002BDF
:10D1500005D04FF080436FF00102C3F80024FFF7C1
:10D16000F5FE0346002B05D0194B1B68184A43F007
:10D170000F031360FFF70EFF4FF01023D3F80032B8
:10D18000002B05DB4FF01023D3F80432002B15DA07
:10D190000120FFF715FF4FF010231522C3F80022DE
:10D1A000FFF7FEFE4FF010231522C3F80422FFF70D
:10D1B000F7FE0020FFF704FFFFF722FEFFF710FF46
:10D1C00000BF80BD440200103C05004000C000408C
:10D1D000E40E004080B483B000AF78604FF0A0430D
:10D1E00018460C37BD4680BC704780B584B000AF90
:10D1F0007860084611461A460346FB700B46BB7022
:10D2000013467B703B1D1846FFF7E4FFF860FA7881
:10D21000BB785B001A437B789B001A433B7E1B0262
:10D2200042EA03013B7F1B047A681943FB6802F55D
:10D23000E07243F8221000BF1037BD4680BD80B5B4
:10D2400084B002AF78600023019300230093002391
:10D25000012201217868FFF7C8FF00BF0837BD46EB
:10D2600080BD80B584B002AF78600B46FB70FB7860
:10D270000022019200220092002200217868FFF72C
:10D28000B4FF00BF0837BD4680BD80B584B000AF95
:10D2900078603B1D1846FFF79DFFF8607B68012210
:10D2A00002FA03F31946F86800F02CF800BF1037B3
:10D2B000BD4680BD80B584B000AF78603B1D184688
:10D2C000FFF788FFF8607B68012202FA03F3194632
:10D2D000F86800F025F800BF1037BD4680BD80B566
:10D2E00082B000AF786039603B68002B03D178686A
:10D2F000FFF7E0FF02E07868FFF7C7FF00BF0837DD
:10D30000BD4680BD80B483B000AF786039607B6873
:10D310003A68C3F8082500BF0C37BD4680BC70478B
:10D3200080B483B000AF786039607B683A68C3F836
:10D330000C2500BF0C37BD4680BC704780B582B05D
:10D3400000AF7860122300211846FFF7C8FF00BF26
:10D350000837BD4680BD80B582B000AF786012232B
:10D3600001211846FFF7BBFF00BF0837BD4680BD4F
:10D3700080B582B000AF00237B6005E07868FFF7DE
:10D38000EAFF7B6801337B607B68002BF6D000BF2F
:10D3900000BF0837BD4680BD80B582B000AF002316
:10D3A0007B6006E012231846FFF749FF7B680133D4
:10D3B0007B607B68002BF5D0FFF7DAFF00BF0837F2
:10D3C000BD4680BD80B582B000AF00237B6007E022
:10D3D000192303211846FFF744FF7B6801337B6064
:10D3E0007B68002BF4D000BF00BF0837BD4680BD6E
:10D3F00080B582B000AF78607B6803F00103002B3A
:10D4000001D0FFF7C9FF7B6803F00203002B01D0B6
:10D41000FFF7D8FF00BF0837BD4680BD80B483B09A
:10D4200000AF0346FB7197F90730002B12DBFB7945
:10D4300003F01F020A4997F907305B09012000FA3F
:10D4400002F2203341F82320BFF34F8F00BFBFF318
:10D450006F8F00BF00BF0C37BD4680BC704700BF58
:10D4600000E100E080B400AF054BD3F80034002B9E
:10D4700014BF01230023DBB21846BD4680BC7047B1
:10D480000000014080B500AFFFF7ECFF034683F0DA
:10D490000103DBB2002B04D000F017FB024B00228B
:10D4A0009A7000BF80BD00BF4422002080B582B0CA
:10D4B00000AF00237B60184B1B78002B02D0852324
:10D4C0007B601CE0144B00229A60134B00225A60D0
:10D4D000114B00221A61104B0022DA600F4800F055
:10D4E000C9FA786005F0ACFC034683F00103DBB2B7
:10D4F000002B01D000F0E0FA074B01221A70FFF771
:10D50000B1FF0346002B02D0034B01229A707B68C7
:10D5100018460837BD4680BD44220020CDD5010005
:10D5200080B485B000AF78607B681B68FB60FB68E7
:10D53000002B03D0FB681A687B681A60FB681846EA
:10D540001437BD4680BC704780B582B000AF002361
:10D55000FB71FB1D1846FDF7AFFF094BDB68013B74
:10D56000074AD360064BDB68002B01D1FFF78AFF27
:10D57000FB791846FDF7ABFF00BF0837BD4680BDFD
:10D580004422002080B584B000AF0346FB71FB79D4
:10D59000002B02D10B4BFB6001E00B4BFB60F868EA
:10D5A000FFF7BEFFB860BB68002B05D0BB685B68A7
:10D5B000FA7910469847F2E700BF00BF1037BD4622
:10D5C00080BD00BF4C2200205422002080B582B0D4
:10D5D00000AF0346FB71FB79002B05D1094B0122FB
:10D5E0005A700020FFF7CEFFFB79012B05D1054BC8
:10D5F00001229A700120FFF7C5FF00BF0837BD4622
:10D6000080BD00BF4422002080B582B000AF7860AA
:10D6100039607B68002B05D1044B01225A70002031
:10D62000FFF7B0FF00BF0837BD4680BD4422002091
:10D6300080B584B000AF03463960FB71FB79032BE2
:10D6400027D0032B2ADC002B02D0012B04D025E0AD
:10D650000020FFF7E3FE22E00023FB7307F10F0336
:10D660001846FDF729FF104B1B7883F00103DBB24E
:10D67000002B01D0FFF71AFF0B4BDB6801330A4A7E
:10D68000D360094B01229A70FB7B1846FDF71FFF00
:10D6900005E000F011FAFFF757FF00E000BF00BF00
:10D6A0001037BD4680BD00BF4422002080B588B041
:10D6B00000AF786039603B68FB617B681B783B7327
:10D6C0007B685B683B617B689B68DBB23B757B6812
:10D6D000DB68BB61074AFB6952F823300649FA69E7
:10D6E00051F8221007F10C021046984700BF20376E
:10D6F000BD4680BD582200205C22002080B588B045
:10D7000000AF786039603B68FB617B681B783B73D6
:10D710007B685B683B617B689B68DBB23B757B68C1
:10D72000DB68BB61074AFB6952F823300649FA6996
:10D7300051F8221007F10C021046984700BF20371D
:10D74000BD4680BD582200205C220020B0B58EB0BE
:10D7500000AFF860B9607A60FB681B783B632949C9
:10D760003B6B7A6841F82320BB681A6926493B6BFA
:10D7700041F82320BB685B7F1946244A3B6B134466
:10D780000A461A70BB6807F110041D460FCD0FC47E
:10D7900095E80F0084E80F003B6B3B6200237B633E
:10D7A000FB681B781A46194B9B5C002B0ED0FB685C
:10D7B000181D7B68002B01D0154A00E0002207F1FC
:10D7C0001003194602F0D8FA786315E0FB681B785D
:10D7D0001A460E4B9B5C002B0ED1FB6803F10C002C
:10D7E0007B68002B01D00B4A00E0002207F11003F8
:10D7F000194601F05DFC78637B6B18463837BD46EF
:10D80000B0BD00BF582200205C2200206022002012
:10D81000ADD60100FDD6010080B483B000AF034651
:10D82000FB7197F90730002B0BDBFB7903F01F022C
:10D83000064997F907305B09012000FA02F241F826
:10D84000232000BF0C37BD4680BC704700E100E0DC
:10D8500080B483B000AF03463960FB7197F907309D
:10D86000002B0ADB3B68DAB20C4997F9073052010A
:10D87000D2B20B4483F800230AE03B68DAB20849CD
:10D88000FB7903F00F03043B5201D2B20B441A762A
:10D8900000BF0C37BD4680BC704700BF00E100E010
:10D8A00000ED00E080B483B000AF78607B681B0BB4
:10D8B0005BB218460C37BD4680BC704780B582B05D
:10D8C00000AF03460A46FB711346BB71BA7997F95C
:10D8D000073011461846FFF7BBFF00BF0837BD46AB
:10D8E00080BD80B582B000AF0346FB7197F9073069
:10D8F0001846FFF791FF00BF0837BD4680BD000006
:10D9000080B483B000AF0346FB71114A97F907302A
:10D91000002B00DA1F335B115BB252F8232097F91A
:10D920000730594203F01F0301F01F0158BF4B425B
:10D930005BB222FA03F303F00103002B14BF0123AF
:10D940000023DBB218460C37BD4680BC704700BFD1
:10D9500000E100E080B483B000AF78604FF0804217
:10D960007B68C2F8083300BF0C37BD4680BC7047E7
:10D9700080B483B000AF0346FB71FB7903F18043B1
:10D9800001221A6000BF0C37BD4680BC704780B4CE
:10D9900085B000AF0346FB80FB8803F18043002283
:10D9A0001A60FB8803F180431B68FB60FB6800BFC3
:10D9B0001437BD4680BC704780B483B000AF0346C7
:10D9C000FB80FB8803F180431B68002B14BF0123FD
:10D9D0000023DBB218460C37BD4680BC704780B4CC
:10D9E00083B000AF78604FF080427B68C2F8183592
:10D9F00000BF0C37BD4680BC704780B400AF4FF00D
:10DA00008043D3F818341B0C03F00103002B14BF20
:10DA100001230023DBB21846BD4680BC704780B5A9
:10DA200082B000AF0623FB714FF08040FFF73AFF52
:10DA300003461846FFF764FF034683F00103DBB299
:10DA4000002B12D04FF08040FFF72CFF03461A4600
:10DA5000FB7919461046FFF731FF4FF08040FFF782
:10DA600021FF03461846FFF73CFF00BF0837BD46BD
:10DA700080BD000080B485B000AF78600023FB60FB
:10DA80000C4B1B79002B02D08523FB600BE0094B6C
:10DA900000229A71074A7B681360064B01221A71B3
:10DAA000044B00225A71FB6818461437BD4680BCEF
:10DAB000704700BF6422002080B500AFFFF7AFFFC2
:10DAC0000020FFF78CFF00BF80BD80B500AF0220B3
:10DAD000FFF740FF4FF48270FFF759FF0C20FFF76C
:10DAE00047FF00BFFFF789FF0346002BFAD100BFB5
:10DAF00000BF80BD80B500AF4FF48070FFF75CFFC2
:10DB00000346002B14D04FF48070FFF740FF012034
:10DB1000FFF720FF254B5B7983F00103DBB2002B7D
:10DB200006D0224B01225A71204B1B6800209847D7
:10DB30004FF48270FFF740FF0346002B0AD04FF4EA
:10DB40008270FFF724FF0220FFF704FF174B1B68CA
:10DB5000012098474FF48870FFF72EFF0346002BF3
:10DB60000AD04FF48870FFF712FF1020FFF7F2FE83
:10DB70000E4B1B68022098474FF48670FFF71CFF7E
:10DB80000346002B10D00A4B00221A604FF4867017
:10DB9000FFF7FDFE0820FFF7DDFE044B00229A711F
:10DBA000024B1B680320984700BF80BD6422002001
:10DBB000340C004080B483B000AF0346FB7197F98A
:10DBC0000730002B0BDBFB7903F01F02064997F9A6
:10DBD00007305B09012000FA02F241F8232000BF60
:10DBE0000C37BD4680BC704700E100E080B483B0D4
:10DBF00000AF03463960FB7197F90730002B0ADB51
:10DC00003B68DAB20C4997F907305201D2B20B44A3
:10DC100083F800230AE03B68DAB20849FB7903F095
:10DC20000F03043B5201D2B20B441A7600BF0C37EB
:10DC3000BD4680BC704700BF00E100E000ED00E0A1
:10DC400080B483B000AF78607B681B0B5BB2184672
:10DC50000C37BD4680BC704780B582B000AF03462C
:10DC60000A46FB711346BB71BA7997F90730114622
:10DC70001846FFF7BBFF00BF0837BD4680BD80B523
:10DC800082B000AF0346FB7197F907301846FFF7E3
:10DC900091FF00BF0837BD4680BD80B582B000AFA0
:10DCA0000346FB80FB88184600F024F803461B68F7
:10DCB000012B0CBF01230023DBB218460837BD46F9
:10DCC00080BD80B584B000AF0346FB80FB8818465A
:10DCD00000F010F803461A4600231360FB8818462C
:10DCE00000F008F803461B68FB60FB6800BF1037B4
:10DCF000BD4680BD80B483B000AF0346FB80FB8887
:10DD000003F1804303F5C04318460C37BD4680BC81
:10DD10007047000080B483B000AF7860044A7B682D
:10DD2000C2F8043300BF0C37BD4680BC704700BF4B
:10DD30000060004080B483B000AF7860044A7B6824
:10DD4000C2F8083300BF0C37BD4680BC704700BF27
:10DD50000060004080B483B000AF7860044BD3F81B
:10DD600004237B68134018460C37BD4680BC7047BF
:10DD70000060004080B483B000AF7860094A7B68DF
:10DD800003F5A27352F82330064943F001027B6881
:10DD900003F5A27341F8232000BF0C37BD4680BCB9
:10DDA000704700BF0060004080B483B000AF78606F
:10DDB000094A7B6803F5A27352F82330064923F021
:10DDC00001027B6803F5A27341F8232000BF0C37E2
:10DDD000BD4680BC704700BF0060004080B485B085
:10DDE00000AFF860B9601346FB71154AFB6803F594
:10DDF000A27352F82330124923F4473323F44073BB
:10DE0000FA6802F5A27241F822300D4AFB6803F568
:10DE1000A27352F82320BB681B0203F4F851FB796C
:10DE20001B0403F440330B4305491A43FB6803F515
:10DE3000A27341F8232000BF1437BD4680BC704751
:10DE40000060004080B483B000AF7860064A7B6811
:10DE500003F5A27352F823301B0A03F01F03184680
:10DE60000C37BD4680BC70470060004080B483B072
:10DE700000AF7860074A7B6803F5A27352F823303D
:10DE80001B0C03F00303DBB218460C37BD4680BC05
:10DE9000704700BF0060004080B483B000AF78607E
:10DEA0004FF0A04318460C37BD4680BC704780B584
:10DEB00084B000AF7860084611461A460346FB70EE
:10DEC0000B46BB7013467B703B1D1846FFF7E4FF03
:10DED000F860FA78BB785B001A437B789B001A43A2
:10DEE0003B7E1B0242EA03013B7F1B047A68194315
:10DEF000FB6802F5E07243F8221000BF1037BD4600
:10DF000080BD80B584B002AF78600B46FB70FB78B3
:10DF10000022019200220092002200217868FFF77F
:10DF2000C6FF00BF0837BD4680BD80B584B000AFD6
:10DF300078603B1D1846FFF7AFFFF8607A68FB6812
:10DF400002F5E07253F8223023F00203BB607A68D6
:10DF5000FB6802F5E072B96843F8221000BF103781
:10DF6000BD4680BD80B584B000AF78600B46FB70C5
:10DF70003B1D1846FFF790FFF8607A68FB6802F5D2
:10DF8000E07253F822307A6823F44031FB6802F5DE
:10DF9000E07243F822107A68FB6802F5E07253F8E9
:10DFA0002210FB781B047A681943FB6802F5E072C3
:10DFB00043F8221000BF1037BD4680BD80B584B045
:10DFC00000AF78603B1D1846FFF766FFF860F86801
:10DFD00000F021F802467B6822FA03F303F0010304
:10DFE00018461037BD4680BD80B584B000AF78605C
:10DFF0003B1D1846FFF750FFF8607A68FB6802F592
:10E00000E07253F822301B0C03F00303DBB2184616
:10E010001037BD4680BD80B483B000AF78607B68A8
:10E02000D3F8103518460C37BD4680BC704780B415
:10E0300087B000AFF860B9607A604FF0A0433B61F1
:10E04000FB687B6119E07B699B0018333B4453F804
:10E05000083CD3F820257B681A607B699B00183345
:10E060003B4453F8083C7A681268C3F820257B6863
:10E0700004337B607B6901337B61FA68BB681344BE
:10E080007A699A42DFD300BF00BF1C37BD4680BC0F
:10E09000704780B584B000AF78603B1D1846FFF72D
:10E0A000FBFEF8607B68012202FA03F31A46FB6864
:10E0B000C3F8202500BF1037BD4680BD80B485B0B1
:10E0C00000AF78607B685B09BB600023FB60BB68C6
:10E0D000002B03D14FF0FF33FB6000BF7B6803F0E0
:10E0E0001F037B60FA687B6822FA03F303F00103E5
:10E0F000002B14BF01230023DBB218461437BD46A2
:10E1000080BC704780B485B000AF786039603B68F0
:10E11000FB607B68DB08BB607B6803F007037B6008
:10E1200001227B6802FA03F3F968BA680A4412789C
:10E13000134018461437BD4680BC704780B485B084
:10E1400000AF786039603B68FB607B68DB08BB60D0
:10E150007B6803F007037B60FA68BB6813441B7895
:10E160005AB201217B6801FA03F35BB2134359B23F
:10E17000FA68BB681344CAB21A7000BF1437BD46B0
:10E1800080BC704780B483B000AF78600D4A7B6874
:10E190001344303393F90030002B09DB094A7B68C4
:10E1A0001344303393F90030072B01DC012300E0E6
:10E1B000002303F00103DBB218460C37BD4680BCD8
:10E1C000704700BF6C22002080B483B000AF78603D
:10E1D000074A7B681344303393F90030072BCCBFD8
:10E1E00001230023DBB218460C37BD4680BC7047C4
:10E1F0006C22002080B483B000AF7860074A7B684F
:10E200001344303393F90030DB43DBB2DB09DBB27C
:10E2100018460C37BD4680BC704700BF6C220020FA
:10E2200080B485B000AFF860B9607A60FB70BB68FD
:10E2300059B20F4AFB68134430330A461A700C492E
:10E24000BB687A6841F82320FB7883F00103DBB2D6
:10E25000002B08D0BB68083BFA6851B2044A13444B
:10E260000A4683F8502000BF1437BD4680BC704773
:10E270006C22002080B483B000AF7860054A7B68D0
:10E2800013443033FF221A7000BF0C37BD4680BCE8
:10E29000704700BF6C22002080B582B000AF78606C
:10E2A00003497868FFF74AFF00BF0837BD4680BDC5
:10E2B000C022002080B483B000AF7860054A7B683C
:10E2C0001344303393F9003018460C37BD4680BCF8
:10E2D000704700BF6C22002080B483B000AF78602C
:10E2E000044A7B6852F8233018460C37BD4680BC80
:10E2F000704700BF6C22002080B485B000AF78600A
:10E30000074A7B681344503393F90030FB73FB7B5F
:10E3100023F0C00318461437BD4680BC704700BFC9
:10E320006C22002080B485B000AF7860074A7B681B
:10E330001344503393F90030FB73FB7B9B09DBB232
:10E3400018461437BD4680BC704700BF6C220020C1
:10E3500080B588B000AFF860B9601346FB71FF2349
:10E36000FB77FB79002B01D0002300E008237B61C1
:10E37000FB79002B01D0082300E00C233B617B6973
:10E38000BB6112E00E4ABB6952F82330B3F1FF3F84
:10E3900008D1FB79BA68B969F868FFF741FFBB6932
:10E3A000FB7706E0BB690133BB61BA693B699A42FE
:10E3B000E8D397F91F3018462037BD4680BD00BF0F
:10E3C0006C22002080B483B000AF0346FB71FB7960
:10E3D000094A4FF0FF3142F82310FB79072B06D989
:10E3E000FB79083B044A1344FF2283F8502000BF06
:10E3F0000C37BD4680BC70476C22002080B582B0CF
:10E4000000AF284B93F85830002B03D008233B6013
:10E410003B6843E00023FB710DE0FB791846FFF7F2
:10E420004DFE0346002B03D0FB791846FFF722FF71
:10E43000FB790133FB71FB791F2BEED90023FB71B4
:10E4400006E0FB791846FFF7BDFFFB790133FB714E
:10E45000FB790B2BF5D904220021134804F060FF4F
:10E460001248FFF7EDFB034606211846FFF7F4FBC1
:10E470000E48FFF7E5FB03461846FFF700FC4FF494
:10E48000BE70FFF71EFC4FF00040FFF743FC054B4A
:10E49000012283F8582000233B603B681846083768
:10E4A000BD4680BD6C220020C022002000600040DC
:10E4B00080B400AF054B93F85830002B14BF0123F4
:10E4C0000023DBB21846BD4680BC70476C2200209A
:10E4D00080B586B000AFF860B9607A6000237B61D8
:10E4E000F868FFF787FE0346002B02D008237B6104
:10E4F00056E0BB689B78C3F34003DBB21A467968E9
:10E50000F868FFF725FF0346FB7497F91330B3F162
:10E51000FF3F43D0BB689B78C3F38003DBB283F03B
:10E520000103DBB2002B13D0BB689B7803F001031F
:10E53000DBB2002B03D0F868FFF7F7FC05E0BB68FF
:10E540005B781946F868FFF7DCFCF868FFF7A4FE73
:10E55000BB689B7803F00203DBB2002B08D097F96D
:10E560001300BB681B781A46F968FFF737FC17E001
:10E5700097F91330083B0D4A134493F95010BB68C8
:10E580001B789B015AB297F91330083B0A4351B2EA
:10E59000064A13440A4683F8502001E004237B61B5
:10E5A0007B6918461837BD4680BD00BF6C2200202D
:10E5B00080B588B000AF78600B46FB707868FFF7D5
:10E5C00003FE0346002B24D07868FFF773FE034652
:10E5D000083B1846FFF7A6FE0346FB73FB7B032BA5
:10E5E0000AD17868FFF7EAFC0346002B01D0032329
:10E5F00000E00223FB7706E0FB7B012B01D1022325
:10E6000000E00323FB77FB7F19467868FFF7AAFC3D
:10E610002DE07868FFF7B6FD0346002B27D0786819
:10E62000FFF748FE0346BB61BB699BB240339BB218
:10E630009B00FB82BB691846FFF79CFBFB8A1846D0
:10E64000FFF73FFBFB78002B11D07868FFF732FE15
:10E6500003461846FFF740FE38613B69002B06D0A1
:10E660000122BB6902FA03F31846FFF753FB00BF10
:10E670002037BD4680BD80B584B000AF7860786833
:10E68000FFF7A2FD0346002B04D000217868FFF7B6
:10E6900069FC15E07868FFF775FD0346002B0FD085
:10E6A0007868FFF707FE0346FB60FB681846FFF734
:10E6B0007BFB0122FB6802FA03F31846FFF73AFBE3
:10E6C00000BF1037BD4680BD80B582B000AF786016
:10E6D0007868FFF773FC0346002B14BF0123002367
:10E6E000DBB218460837BD4680BD80B584B000AFA8
:10E6F00078607A6801210020FFF799FC0023FB6015
:10E700000BE0FB689B007A6813441B68002B01D068
:10E71000012306E0FB680133FB60FB68002BF0D0AF
:10E72000002318461037BD4680BD000080B586B076
:10E7300000AF786000237B6150E02F4A7B6913446F
:10E74000503393F90030B3F1FF3F43D07869FFF7BE
:10E75000D3FD386179683869FFF7D4FC0346002B94
:10E7600039D07869FFF7DEFD0346FB733869FFF7A0
:10E770003BFC0346BB73BB7B022B01D1032300E0B0
:10E7800002237B737B7B19463869FFF7EBFB386903
:10E79000FFF77FFC3869FFF78DFD03461846FFF74A
:10E7A0009BFDB860BB68002B15D0FB7B032B0BD007
:10E7B000BB7B022B02D1FB7B012B05D0BB7B032B48
:10E7C00009D1FB7B022B06D1FA7BBB681146386965
:10E7D000984700E000BF7B6901337B617B69032BB5
:10E7E000ABD97868FFF781FF0346002BA2D100BFA9
:10E7F00000BF1837BD4680BD6C22002080B588B0B0
:10E8000000AF0023BB6100233B604FF480737B8229
:10E810000123FB6100237B611DE07B8A1846FFF723
:10E820003CFA0346002B0DD0F869FFF793FA034634
:10E83000002B07D07B8A1846FFF743FABA69FB69B9
:10E840001343BB61FB695B00FB617B8A04337B8202
:10E850007B6901337B617B69072BDED94FF4BE7086
:10E86000FFF71BFA0346002B0DD04FF4BE70FFF7E5
:10E8700028FABB6943F00043BB613B461A460121BD
:10E880000020FFF7D4FBBB69DBB2002B27D00123AC
:10E89000FB6100237B611FE0FA69BB691340002B19
:10E8A00014D07869FFF7CEFAF8607869FFF7DEFADE
:10E8B0000346FB727869FFF70FFD78607B68002BD9
:10E8C00004D0FA7A7B681146F8689847FB695B00C8
:10E8D000FB617B6901337B617B69072BDCD9BB69F9
:10E8E000002B03DA3B461846FFF720FF00BF203716
:10E8F000BD4680BD80B500AF014B1B68984780BD09
:10E90000C822002080B483B000AF78607B68054ADD
:10E91000934201D1044B00E0002318460C37BD465A
:10E9200080BC704700200040C822002080B586B01F
:10E9300000AF786039607868FFF7E4FF38613B69C1
:10E94000002B20D00023FB750023FB7207F10B0383
:10E950001846FCF7B1FD3B691B79002B02D001235F
:10E96000FB7505E03B693A681A603B6901221A7140
:10E97000FB7A1846FCF7ABFDFB7D002B03D011237F
:10E98000FB60FB6802E00023FB60FB681846183759
:10E99000BD4680BD80B584B000AF78607868FFF771
:10E9A000B1FFF860FB68002B05D0FB6800221A60FD
:10E9B000FB6800221A7100BF1037BD4680BD000001
:10E9C00080B483B000AF0346FB7197F90730002B8A
:10E9D0000BDBFB7903F01F02064997F907305B094F
:10E9E000012000FA02F241F8232000BF0C37BD4697
:10E9F00080BC704700E100E080B483B000AF034604
:10EA0000FB7197F90730002B12DBFB7903F01F0233
:10EA10000A4997F907305B09012000FA02F2203316
:10EA200041F82320BFF34F8F00BFBFF36F8F00BFAC
:10EA300000BF0C37BD4680BC704700BF00E100E05E
:10EA400080B483B000AF03463960FB7197F907309B
:10EA5000002B0ADB3B68DAB20C4997F90730520108
:10EA6000D2B20B4483F800230AE03B68DAB20849CB
:10EA7000FB7903F00F03043B5201D2B20B441A7628
:10EA800000BF0C37BD4680BC704700BF00E100E00E
:10EA900000ED00E080B483B000AF78607B681B0BB2
:10EAA0005BB218460C37BD4680BC704780B582B05B
:10EAB00000AF03460A46FB711346BB71BA7997F95A
:10EAC000073011461846FFF7BBFF00BF0837BD46A9
:10EAD00080BD80B582B000AF0346FB7197F9073067
